:20000000A0FA002019590000D56D000005590000055900000559000005590000055900009C
:200020000000000000000000000000007959000005590000000000000559000005590000D4
:200040002D0E00002D0E00002D0E00002D0E00002D0E00002D0E00002D0E00002D0E0000C8
:200060002D0E00002D0E00002D0E00002D0E00002D0E00002D0E00002D0E00002D0E0000A8
:200080002D0E00002D0E00002D0E00002D0E00002D0E00002D0E00002D0E00002D0E000088
:2000A0002D0E00002D0E00002D0E00002D0E00002D0E00002D0E00002D0E00002D0E000068
:200460002D0E00002D0E00002D0E00002D0E00002D0E00002D0E00002D0E000053B94AB9D0
:20048000002908BF00281CBF4FF0FF314FF0FF3000F00CB8ADF1080C6DE904CE00F008F80E
:2004A000DDF804E0DDE9022304B07047704700BF2DE9F04786468C460846089E15467446C3
:2004C0001946002B40F0C1808542B2FA82F245D94AB1C2F1200300FA02FC954094402EFA82
:2004E00003F343EA0C0C4FEA154EA8B2230CBCFBFEF80EFB18CC08FB00F943EA0C439945AC
:2005000028D9EB1808F1FF3704D2994502D9A8F102072B44A3EB0903A4B2B3FBFEFC0EFB67
:200520001C330CFB00F044EA0344A04214D92C190CF1FF3304D2A04202D9ACF102032C4418
:20054000241A43EA07401EB1D440002334607360BDE8F0874746DDE76346F1E792BB431BE3
:2005600001214FEA154EAFB2200CB3FBFEFC0EFB1C330CFB07F840EA0343984561D9EB18A0
:200580000CF1FF3004D2984502D9ACF102002B44A3EB0803A4B2B3FBFEFC0EFB1C330CFB9D
:2005A00007F744EA0344A7424DD92C190CF1FF3304D2A74202D9ACF102032C44E41B43EA6D
:2005C0000040C0E7C2F120039540944020FA03F12EFA03F34FEA154E9040AFB20343B1FBCA
:2005E000FEFC0EFB1C10190C0CFB07F841EA0041884522D969180CF1FF3004D2884502D942
:20060000ACF102002944A1EB08019BB2B1FBFEFC0EFB1C110CFB07F743EA01439F420ED9D2
:20062000EB180CF1FF3104D29F4202D9ACF102012B44DB1B41EA004193E76046E3E76146F6
:20064000F7E76046A4E76346B8E7834206D916B9002108467CE7C6E900E0F9E7B3FA83F768
:200660008FB9834201D3724508D8BEEB020460EB030301209C461EB9002169E73846FAE758
:20068000C6E9004CF8E7C7F1200CBB400EFA07F522FA0CF42EFA0CF1BA401C4320FA0CF3EA
:2006A000B8404FEA144901431FFA84FEB3FBF9F809FB18300B0C08FB0EFA43EA00439A4571
:2006C00040D9E31808F1FF3004D29A4502D9A8F102002344A3EB0A0389B2B3FBF9F809FBD3
:2006E000183308FB0EFE41EA03418E452CD9611808F1FF3304D28E4502D9A8F1020321442E
:2007000043EA0040A1EB0E01A0FB02984145CE46434602D306D14D4504D20138B9EB020E78
:2007200068EB0403002EA7D0B5EB0E0261EB030101FA0CFC22FA07F3F9404CEA0303C6E97D
:20074000003199E74046C5E74346D9E70822F0B589B005F0D1F9CB6A002703930B6B0C46EC
:2007600004934B6B064605938B6BCDE901770693CB6B0097079313466A461146104605F079
:20078000F7F931460546304605F0F2F9216B05440391616B10460491A16B0591E16BCDE98D
:2007A0000617114605F0E4F931460544304605F0DFF90544206ACDE904770090606A0397F8
:2007C0000190A06A0290A06B0690E06B0790304605F0CEF90544606AD4F838C00090A06AC6
:2007E000CDF810C00190E06AD4F83CC00290606BCDE905C00390206A0790304605F0B8F919
:200800000544E06ACDE904770090206B03970190606B0290206A0690A06A0790304605F045
:200820008CF9236B2D1A0093636B30460193A36B0293E36B0393636A0693E36A07930823F4
:2008400005F07BF9636B2D1A0093A36B30460193E36B0293236A0393636A0493A36ACDE942
:200860000537236B0793082305F067F9A36B2D1A0093E36B3046CDE90137636A0393A36A8A
:200880000493E36A0593636B0793082305F055F92D1A10D40D4C35B908223146204605F098
:2008A00037F901280FD0082322463146304605F044F92D1AEFE7054A08233146304605F0D5
:2008C00057F92D18F8D409B0F0BD00BF187200002DE9F04F002503689DB003934368DFF8BE
:2008E000B89104938368DDE903470593C36806930369DDE905BC0793436908938369DDE93B
:20090000072A0993C3699E460A93099B009351F825600CAB96FA86F843F8258059F8046BF3
:200920004FEAF22383EAB213464483EA72633344009E02EA0A0826EA020686EA080633444B
:20094000734487EA0B064FEA743E8EEAB40E264007EA0B0886EA08068EEAB45E0135B64497
:20096000102D03EB0C067344DC46DDF800E040F084804A490B91294601350DF1700E05F033
:200980000F0C0EEB8C0C5CF840CC01F00F094FEABC48CDF804C088EAFC1801F10E0C0CF0EE
:2009A0000F0C0EEB8C0C5CF840CC09314FEAFC4ECDF808C08EEA7C4E01F00F010DF1700C24
:2009C0000CEB81010CEB890951F8401C59F840CC402D8C44019988EAD1080299C4448EEAD6
:2009E000912EF44406EA02084FEAF62E2AEA060181EA08018EEAB61EDDF82C808EEA766EF1
:200A0000714458F804EF49F840CC71446144DDF800C04FEA733E614484EA070CCDF82C8021
:200A20008EEAB30E0CEA030C04EA07088EEAB35E8CEA080CF4448C4401EB0B0ECDF800A0F6
:200A4000BB4622D103996144016004991944059B416023448360069B3B44C360079B7344DF
:200A60000361089B33444361099B134483610A9B5344C3611DB0BDE8F08FBB46CDF800A0BE
:200A8000274692461C46324641E79246274632461C46764663466EE71471000050710000F0
:200AA0000146F0B550B332B3164E306830BBD1F8C842D1F8D8329C4213DA134D05F5C047A9
:200AC0003B8803F5005C45F8234001339BB2B3F5805F25F81C203B8003D96FF01E0030605A
:200AE000F0BDD1F8CC3222449A42A8BF6FF01D00C1F8C822F4E76FF02100F1E76FF0200008
:200B0000EEE700BF9C8600209826002008B5134660B172B10A46D0F8C0120748006805F041
:200B200026FC002818BF6FF01C0008BD6FF02000FBE76FF02100F8E70C890020014B1B6810
:200B4000184700BF4C0100202DE9F047058B04462807904612D4022905F0070540F0CD804F
:200B6000204605F056FC80B10138218B042800F29F80DFE800F0C29D657D8D0001290CBFFB
:200B800045F0100545F02005258388F31188BFF36F8FBDE8F08701F007035A1F012A1CD896
:200BA000002221F00701062B276889B2C4E9002209D13B4603E0628B013262831B68002B3F
:200BC000F9D141F002012046218305F022FC002800F0A18041F020019CE0042B0AD121F0D8
:200BE000070189B22046218305F013FC10B141F020012183218B01F0070AAA4575D00027E4
:200C0000B946A368002B00F08E8041F00801218388F31188BFF36F8FA168002900F08C80D1
:200C20000D68002900F08880334652462046D1F80480C047002D48D02B6829461D46F0E7D2
:200C4000236921F0070141F00601062DD3F80090218335D1B9F1000F47D041F008012183D1
:200C600088F31188BFF36F8F20463D49C84731E021F00701236941F0040189B2042DD3F892
:200C800004902183E6D000274FF0040A3E46B8E721F00701236941F0050189B2052DD3F8BB
:200CA00008902183D6D000274FF0050A3E46A8E701F0070AAA4518D00027B9463E46A0E7C0
:200CC00000274FF0060A3E469BE72B46B5E7B9F1000FC9D1EFF31188202383F31288BFF3B8
:200CE0006F8F238B23F008032383258BEA062ED525F01003238305F007056669218B002E69
:200D0000BFF649AF00232768C4E9003321F0070141F001012183218B4FF0000901F0070AAE
:200D2000AA457FF46EAF002F94D041F00801218388F31188BFF36F8F002FC8D03D68394614
:200D400033465246204605F052FB2F46F4E7AB067FF51BAF25F02003238305F00705FFE6D7
:200D60004B640000002210B50C4B1C7884420FD00132072A03F11003F7D16FF0010010BDED
:200D8000D2685078C00706D5107820B90B60F6E7DA68002AF4D16FF01200F0E744700000D9
:200DA000002318460649D1F89020C2F30722934200DB7047C1F89830C1F8A0000133F6E7BA
:200DC00000ED00E0002807DB01234109034A00F01F00834042F82130704700BF00E100E0ED
:200DE00000280CDB01220649430900F01F008240203341F82320BFF34F8FBFF36F8F70478F
:200E000000E100E00028ACBF00F16040064B4FEA4111C9B2ABBF00F5614000F00F0080F81F
:200E200000131954704700BF14ED00E0EFF30583034A103B02EBC301496852F833000847AB
:200E4000C08200000239012902D8034B1B6818474FF0FF30704700BF480100202B4BD3F853
:200E60000438012B4FD0032B02D1294B294A1A600122294B2948C3F8042441F6F873D0F834
:200E80002416C1F3080203EA5133132182F48072883201FB02331D4A590ADB0548BF01317F
:200EA000C2F80419D0F820364FF47A60C3F30801C3F30943434342F21C5081F4807101F2E0
:200EC000172100FB01334FF47A701B0AB3FBF0F100FB1133B3F5FA7F28BF01310F4BC2F83D
:200EE0001C17D3F840331C2B08D13423C2F82436D2F83C3623F40023C2F83C360123002010
:200F0000C2F800367047024B054AB0E700001250440100200090D003002008E000C0FF0006
:200F20000020A107084B70B5C31A0D4607499B10044659434022064805F08AFC2B4601467D
:200F40002046BDE87040184720260020B76DDBB6486E0000402373B50B4C0093041B0B46C1
:200F60000D460A49A41061430646094A094805F09AFC011E05DA30462B4602B0BDE870400C
:200F8000184702B070BD00BF20260020B76DDBB615690000486E0000F8B50221054640F2B8
:200FA0000510FFF72FFF174B1A7922BB164A1A6001221A71154B1B6A9B0603D440F20510FA
:200FC000FFF700FF0024124BC3F840442B69ABB11C222146184605F095FB01261C220D4F23
:200FE000066407612D692146A81805F08BFB2046EF62EE64F8BD6FF00400FBE76FF0150070
:20100000F8E700BF182600206D19000000E100E000E01050E87000000A2810B5044603D1E0
:201020000D21044800F008F90248E1B200F004F9204610BD986E0000074B5A78D20707D569
:20104000187828B9054B064A1360064A136070476FF01200704700BF57010020191000000A
:20106000480100204C01002070B5164D1446A84225D8C0F5BE1303F580539A421FD8C2B13A
:2010800041F20103104DC5F80035A1B105F04EFABFF35F8FD5F81834DB0705D4E4B21CB164
:2010A0000123AB60BFF35F8F4FF48052064BC3F80025002070BDFF2105F024FBE8E76FF06C
:2010C0001500F7E7FFCF170000B0045010461A46084B10B5994209D8C1F5BE1404F5805455
:2010E000A24203D805F022FA002010BD6FF01500FBE700BFFFCF170000487047E0700000EA
:20110000024B0B6001231360704700BFD8700000024B034A0020C3F80C25704700B0045061
:2011200080000080036803F01F025F2B02604FEA53129ABF024B53F822000020704700BFFD
:20114000CC7000004209022A034670B503D0012A18D0CAB170BD0E4E326951680029F9D03E
:20116000012503F01F030C689D400029F2D08A682A4002D030464B6898473CB123682146E3
:201180001C46F2E7034EE7E7034EE5E72346F6E7706E00005C6E0000846E00002DE9F041B1
:2011A00047683B69B3B36C203E7D214D00FB065898F8684074BB404621464622103005F077
:2011C000A1FA21463869D8F858C08C4525D10024C0F84441D0F84431C0F308300130FFF70D
:2011E000F1FD6C23012203FB065686F8682032663A7D104903FB025291603A7D022103FB2C
:201200000255DB20EC60FFF7FDFD022140F20D10FFF7F8FD0020BDE8F081CBB29B0003F59D
:201220008072442B04BF845083580131CDE700BF6C000020451100002DE9F84304460D4666
:20124000D0F80480EFF30583B3B92A4B1B789BB1294E46F001066427DFF8A09063681B6884
:20126000D3F8303193BB264BD9F80000B0FBF3F0B047013FF2D1EEE72021EFF311831A463E
:2012800081F31288BFF36F8F60680068D0F8300120B983F31188BFF36F8FEEE7D8F82030DA
:2012A00000201D706368D8F820101B68C3F83C170121C3F84017C3F83001D3F8300119658B
:2012C00082F31188BFF36F8FBDE8F883EFF3118320211A4681F31288BFF36F8F6168096821
:2012E000D1F830110029D9D183F31188BFF36F8FB1E700BF178A0020306F00004401002036
:2013000040420F0070B5114BD3F8100510F0020019D0EFF31184202383F31288BFF36F8F76
:201320004FF0FF306FF04041094DD5E90023904271EB0306F9D31046C3F3130184F31188F5
:20134000BFF36F8F70BD0146FCE700BF00200E5040270E5038B5EFF31185202383F31288CC
:20136000BFF36F8F124B1B6803BBFFF7CBFF114AD2E90032C01A61EB0201400940EAC16357
:201380000D4AD2E90004181844EBE37485F31188BFF36F8F4FF47A71A0FB010547F6122280
:2013A000002301FB0451FFF769F838BD0023E7E710890020600100206801002030B50D4681
:2013C000816887B0102302AA1039044605F04AF8002802DA012007B030BD1022204602A938
:2013E00005F01AFB00283FD11022204902A805F016FA00280CBF012302232B70A16801235D
:20140000203921F00F0120460DF10702203905F029F80028DEDB9DF80730204603F00F025F
:201420001B096A702B7101220DF1070105F0F4FA10B96B78042B03D901236B7000232B7191
:20144000A2682046203A22F00F02103AA91C05F0F4FA0028BED1A2682046203A22F00F0209
:20146000E91C05F0EAFAB6E70323C6E7E272000030B5816885B0103921F00F04054605F01A
:2014800045F810220146684605F03CF910226846064905F04BF810236A462146284604F0AB
:2014A000FFFF003818BF012005B030BDE272000003689A070CD50368DB070DD50922074B6F
:2014C000C3F80C250F22C3F8042501221A60FEE7034B0360EF3B0360704700BF00801050F5
:2014E000F000FA5001282DE9F341264B054625D004220024C3F8082301225A61C3F808417C
:20150000D3F80831002342F210768DF807301E4B1C4F43F00108012D27D0D7F84C3403F4B3
:201520008033B4B93BB1194B1868194BB0FBF3F0C047013EEFD102B0BDE8F0810022C3F81E
:2015400008035860C3F80021D3F800310DF10704D8E7D7F84C2402F003022270002BEAD07B
:201560009DF80730002BDED0E5E7D7F80C3403F48033002CD6D0002B0CBF0123002323709F
:20158000EED1D8E700E01050306F00004401002040420F0010B5EFF31184202383F3128869
:2015A000BFF36F8F074A136823F00201DB07116002D40120FFF796FF84F31188BFF36F8F04
:2015C00010BD00BF70260020012838B50446274D41D0274BD3F84C14D3F84C24C80322D54A
:2015E00002F00303012B04D013B10020FFF77AFF23461F4A0424C2F8403410224FF484730C
:20160000002103F1A04303F5871319601868012002F1A04202F5871210602A68FAB1144BB5
:20162000C3F804430CE0D3F84824D107E0D5D3F850249207D9D42A681AB10422C3F804230E
:2016400038BDD3F80821002AFBD00022C3F80821D3F80831F4E700224FF48073D0E71A6836
:20166000002AFCD019601B68EAE700BF1826002000E0105010B51E4BD3F8002152B100200D
:20168000C3F80001D3F800210122C3F80823194B1B689847164BD3F8082172B10022C3F87E
:2016A0000821D3F80821D3F84C24D3F84C24920714D10122C3F840241A610D4BD3F8042114
:2016C000A2B100220220C3F80421D3F80421C3F80803084BBDE810401B6818470422C3F8D2
:2016E0000823044B01201B689847E6E710BD00BF00E0105018260020034A4309D35C00F03E
:201700001F001844C0B27047A382000010B504460846FFF7F1FF3622237902FB0300034B7B
:20172000083033F81000C0F3401010BD6C00002010B504460846FFF7DFFF3622237902FBB8
:201740000300034B083033F81000C0F3400010BD6C00002010B504460846FFF7CDFF362202
:20176000237902FB0300034B083033F81000400B10BD00BF6C00002070B504460846FFF7F6
:20178000BBFF362123791F4A01FB0303083332F81310C80535D5C1F3432021F4F85122F843
:2017A00013106C210026237901FB03210E3131F8025F15F4807F03D0C5F34325A84220D0F9
:2017C0000136232EF3D16C2500216B4303EBC003D150237905FB0324216EC140C90710D484
:2017E00005FB0323012260338240216E41EA0200D3E8EF5F8D4203D1C3E8E60F002EF7D14D
:20180000F3D170BD6C000020F0B50646002487B0114F019117F8012B06AB03EBD20313F853
:20182000143C02F00702D34013F0010306D10134032CEFD10023184607B0F0BD074A03AD62
:2018400007CA85E8070055F824100A6A46F824200A62002AEBD0EEE7A0820000106F000005
:20186000104B70B553F82040013053F82060A64200D870BDD4E9003595B153B128469847CB
:2018800038B10028B8BF4042FF28A8BFFF20EB681870EA68537843F0010353700834E6E796
:2018A0009847FBE7B47000000C22104B014602FB0033002030B4D3E90E529863EFF31180B5
:2018C000202484F31288BFF36F8F1C6C04F0C00444F002041C6480F31188BFF36F8F1DB17F
:2018E0002B4630BC0248184730BC704720260020486E000010B4EFF31182202383F3128897
:20190000BFF36F8F1648016841F002040460C80707D482F31188BFF36F8F012010BCFFF76A
:2019200053BE1049D1F80C14C903F2D5EFF3118083F31288BFF36F8F0B490B6C03F0C0030D
:2019400043F002030B6480F31188BFF36F8F82F31188BFF36F8F002010BCFFF7A5BF00BF61
:201960007026002000E010502026002010B1012804D07047034B1B6C5B0701D1FFF794BF44
:20198000704700BF202600202DE9F34132480DF1060104F099FC304E10B16FF0110554E031
:2019A0009DF80630A6F5177403F00F0213F0700FA26148D130460DF1070104F085FC054658
:2019C0000028EAD14FF006089DF8077007F03F079DF90730002B22DB266300264FF6FF7333
:2019E0004FF4007231461D48A4F84430666304F089FEB7420CBF07230123194AC4E9126668
:201A0000C4F85422174AC4E90867A4F84660A4F8506084F85260C4F85822237515E0304622
:201A20000DF1070104F050FC0028B6D1B8F11B0F0FD09DF8073003F07F0303FA08F31F4364
:201A400008F10708C4E76FF00205284602B0BDE8F0816FF01805F8E7FC880020F38600209F
:201A60004F6300004365000070B5204CC2B0E36A0546802B1A4628BF802201921BB92075E1
:201A8000002042B070BDD4F8583201AA02A904F1300098470028F4D1042D2069019A0FD036
:201AA000019A236A206913442362E36A02A99B1AE362E36898470028E2D06FF00900E0E774
:201AC000236822A998470028F7D1A36A019D02AA2B44A36222AB8542E2D0117813F8016BD0
:201AE0000130314402F8011BF5E700BFA0860020012337B50546254C0193636B2BB1012B13
:201B000029D06FF0040003B030BDD4F85832204801AA0DF1030198470028F4D19DF80330CA
:201B2000C3F3801203F03F03A3630623E363012384F8402063639DF90330002BDDDB00231E
:201B4000636394F8403013B1A36B5B42A363A36B00202B60D7E7D4F858320D4801AA0DF183
:201B6000030198470028CED1E26B192A0ADC9DF80330A16B03F07F0393400B430732A3639C
:201B8000E263D8E76FF01800BDE700BFA0860020D0860020F7B5094C0546D4E9086701A88A
:201BA000FFF7A6FF38B9019B1E44B74232BF6FF008002575E36203B0F0BD00BFA086002006
:201BC00037B5274C237D082B43D8DFE803F00A0F1A1E2224264505006FF0170008232375BE
:201BE00030E0FFF7D1FE0028F8DB2BE001A8FFF77FFF0028F7D1019B002B25DD4FF0FF30C6
:201C0000ECE70320FFF7C6FFEDE70420FFF72CFFE9E70520F6E70620F8E701A8FFF768FF1D
:201C20000028E0D1019D636829462069984768B9A36A2B44A362D4E908239A4204D1072326
:201C40000020237503B030BD0223F9E76FF00900C4E76FF00400C1E76FF00A00BEE700BF3C
:201C6000A08600202DE9F84F06460F46904699460024DDF828A0DFF844B0A24501D80020FF
:201C80000FE0AAEB0405B5F5806F28BF4FF4806530462B46094A04EB080104F0E3FB10B14A
:201CA0000120BDE8F88F2B465A46384604EB090104F0F6FB0028F3D12C44DEE79C0100208C
:201CC000F0B587B0074601A90220FFF74BF8054688BB019E304604F00EFC184B7A79DB6D97
:201CE000012A08BF19463A7918BF590002F1FF3203FB020418BF5D023B682C44013B30468D
:201D000001FB034404F0F0FB0546304604F0FEFB1022014602A804F0F5FC3B7921468DF84B
:201D2000083030462B4602AA04F0BAFB003818BF012007B0F0BD0120FBE700BFA4250020F0
:201D40001FB501460220FFF70DF868B90868102381686A46103904F085FB28B91022684670
:201D6000044904F05CFD08B14FF0FF3005B05DF804FB00BFE27200002DE9F341044604F0FE
:201D8000FCFF0F46C0B26946FEF7ECFF20B10124204602B0BDE8F0812C231B4EDDF80080C1
:201DA00003FB0466F368358940461D44042329460DEB030204F056FB04460028E7D146F67D
:201DC0000813BDF8042076899A421AD1BDF806309E4201D00324DBE7042340460DEB03021A
:201DE000711904F03FFB0028D1D146F60713BDF804209A42EED1BDF8063033442B443B602B
:201E0000C6E7002EF1D0E5E7A42500202DE9F341344E0546374628B10024284603F0BCFDC6
:201E200020B1204604464FF0000823E06846FFF787FF009820B101A904F026FB034630B15B
:201E40000120012C00D1002002B0BDE8F0817A6A0199D2F8048002464244914203F1010316
:201E6000FAD86A79012A1BD15CBB2A6820469A4298BFA04604F081FF6946C0B2FEF772FF73
:201E80000028DDD1202332464146009804F0EAFA0028D5D1CDB9012CD5D001202C36C1E769
:201EA000022ABED12A68012A04D99A42B9D884F00100B8E7B5D134B12B79981E18BF01208F
:201EC000B1E72046AFE72046D4E73268064B9A4204D1012CB7D001242C369EE74FF0FF3083
:201EE000AFE700BFA42500203DB8F3962DE9F84303780746022B23D0052B23D101262C2254
:201F0000114B4FF0000802FB0636DD6D4FF4C0635D43B46A5035013C736A384603EBC402A6
:201F200053F83410D2F804901B684A46C91AC84404F0C8FAA84504F1FF34EDD3BDE8F88307
:201F40000026DCE70120F9E7A42500202DE9F04F82464FF000098DB01D46531E0191039310
:201F6000039B58785C1C252819D100204FF0FF381E46444603460236029031780396392909
:201F800055D81F2914D8002900F0F38101992520D04701993078D04709F10209E0E7002810
:201FA00000F0E7810199D04709F101090394D7E7A1F12002192AE9D801A757F822F000BF3F
:201FC000292000008D1F00008D1F0000292000008D1F0000A92000008D1F00008D1F00004A
:201FE0008D1F00008D1F0000F5200000292000008D1F000009210000B52000008D1F0000D4
:20200000C3200000E3200000E3200000E3200000E3200000E3200000E3200000E3200000C8
:20202000E3200000E320000008460136A5E7582900F0EC80A1F16302D7B2172FA6D8172A27
:20204000A4D801A757F822F0B92200002F2100008D1F00008D1F00008D1F00000F2100009C
:202060002F2100008D1F00008D1F00000F2100008D1F00008D1F00008D1F0000E72100007C
:202080008D1F00008D1F0000872200008D1F00002F2100008D1F00008D1F0000E7210000E3
:2020A0008D1F00000F21000025200199D04709F1010955E7029A4FF0000802F0FE020292A5
:2020C000B3E7002C0DDAB8F1000F0DDA029A002A00F047810A2224EAE47402FB0414303C23
:2020E000A3E7B8F1000FF5DB0A2202FB0812A2F130089AE7B8F1000F55F8042B80F23381E5
:20210000002A80F232815442022202928DE7682903D1682B06D1482387E76C2902D16C2B07
:2021200000F02581002B7FF431AF0B467DE77A2B06D1752955F8046B14D14FF0000B0CE0E5
:202140006C2BF6D04C2BF4D1073525F00703752903F10805D3E9006B06D120283CD1874FC3
:20216000013C09E04FEAE67BBBF1000FF5DA7642834F6BEB4B0B013C0DF12D0305930023B9
:202180000493304659460A220023FEF777F9059BB446303203F8012D5A460593049BBCF136
:2021A0000A0F8B4672F1000203F1FF3106460491E7D2C3F1010B30330DEB0306B8F1000F36
:2021C000A6F104066EDA029BD90700F18180A8EB0B03A4EB0B0413E02B280ABF694F6A4FE8
:2021E00004F1FF34C8E770290FD155F8042B0023FAB94FF0050B6FF00403634F634E053CE4
:20220000029A920773D4A04669E078216C2B03D1002355F8042B08E04C2BF9D1073525F0F6
:2022200007031D465B6855F8082B232825D1880621D5574F023C002601F06001A1F1390BF7
:202240000DF12D0E02F00F01092988BF594430310EF8011D102A4FEA121141EA03714FEA3A
:20226000131C73F1000306F1FF3008D2C6F1010B06F13003A0E7474FDCE7434FDBE706465B
:202280000A466346DEE74FF0000B55F8046B16F80B3073B9B8F1000F02DBC345A8BFC346F8
:2022A0009846394FA8EB0B03002B92DDA4EB0804A6E70BF1010BEAE755F8043B4FF0010BA5
:2022C0008DF81830304F4FF0FF33013C06AE97E7A046E7E7029320200199D047029BB8F152
:2022E0000108F7D524EAE472013C9144A41AB84606E0049202930199D047049A029B904604
:20230000424612F8010B0028F3D11A46013A15D5002BACBFC7EB03077F425B46013B15D5D4
:20232000BBF1000FA8BF5F4426464F44013E14D5002CA8BF3F1907EB080911E604920293A1
:2023400030200199D047049A029BDFE70293019916F8010BD047029BE0E701992020D047C6
:20236000E4E70122D1E690465FE614465DE64C235BE648460DB0BDE8F08F00BFBA7F0000E9
:20238000F2720000F472000029740000FC720000F6720000F97200000FB407B504AB53F81C
:2023A000042B002104480193FFF7D0FD03B05DF804EB04B0704700BF3D0B000005460C4624
:2023C00007B5C9B18B682A480093D1E900234521FFF7E2FF636945210093D4E903232548A0
:2023E000FFF7DAFF4521E2692348FFF7D5FF4521A2692248FFF7D0FF012D2DD1EFF30582F3
:2024000045211F48103AFFF7C7FFEFF31183202383F31288BFF36F8F1A4B53F825301A4A07
:202420004521127C194800922A46FFF7B5FF3CB1E369C3F308031BB145211548FFF7ACFF71
:2024400045211448FFF7A8FFEFF31183202383F31288BFF36F8FFEE7EFF31183202383F390
:202460001288BFF36F8F042DD6D90B4BD7E700BF1073000044730000787300008C7300003B
:20248000BF7300000071000074260020D7730000047400002A7400000273000038B5134CBE
:2024A000D4F89030C3F30723013B984207D9024645210F48FFF770FF6FF0150038BD0D7A60
:2024C0000B6805F01F0223F01F031A43CB686D0923F01F0343EA450343F00103C4F8980003
:2024E000C4F89C20C4F8A030E8E700BF00ED00E03E74000010B5244C45212448FFF74CFF83
:20250000A36A99013ED522484521FFF745FF1E20A36ADA0104D51F484521FFF73DFF1F20BA
:20252000194CA36ADB0204D51B484521FFF734FF0220A36A1C0304D518484521FFF72CFF73
:202540002120114CA36A590304D515484521FFF723FF2220A36A9A0304D512484521FFF745
:202560001BFF2320084CA36ADB0304D50E484521FFF712FF2420A36A6FEA03436FEA134384
:20258000A36210BD1D20C3E700ED00E069740000867400009E740000BD740000EC7400003B
:2025A0000F750000397500005875000070B5284C06460D4627484521FFF7EEFEA36AD90443
:2025C0003BD525484521FFF7E7FE1720A36A1A0504D522484521FFF7DFFE18201C4CA36AB1
:2025E0009B0511D51E484521FFF7D6FEA26BA36A180408D545211B48FFF7CEFE1EB1A36A45
:2026000023F40043A3621920114CA36A590504D515484521FFF7C0FE1A20A36ADA050ED501
:2026200012484521FFF7B8FE1B20094A936A43F47F43936200232B7070BD1620C6E7A36ADA
:202640009B04F2D50A484521FFF7A6FE1C20ECE700ED00E088750000A3750000B9750000A3
:20266000D1750000EF75000009760000297600004676000070B5294C06460D4628484521C7
:20268000FFF78AFEA36AD80646D526484521FFF783FE1120A36A190704D523484521FFF76D
:2026A0007BFE12201D4CA36A9A0711D545211F48FFF772FE626BA36A1B0608D545211C489D
:2026C000FFF76AFE1EB1A36A23F08003A3621320124CA36ADE0704D516484521FFF75CFEB5
:2026E0001420A36A9C0604D513484521FFF754FE15200A4B9A6AD10658BF9A6A9A6A9206F9
:2027000042BF5A6A22F400525A629A6A42F0FF029A6200232B7070BD1020BBE700ED00E013
:202720007A76000095760000B9750000CD760000EA76000005770000467600004FF0A5337E
:2027400030B5ADF50B5D8BB00DF500540434D0F8E052036001464FF43972204603F0E6FEF2
:202760004FF40052264901A803F0E0FE01AB03F50850EAB223493D3003F0D8FE2249234DC6
:202780000B7D04F12C0084F83C32CB694FF4047263600B6A4431A36051F81C3CE36051F8DC
:2027A000183C2361D1F82032A361D1F81C32636111F8043C84F8283051F8083C636251F88F
:2027C000103CE36151F80C3C2362114C03F0AEFE4FF440522968206803F0D5FD42F2E42369
:2027E0002968206801AA03F0C8FD20B10948FFF7D3FD6FF01E000DF50B5D0BB030BD00BF27
:20280000198A002019AA0020A0860020088900200C890020297700004FF0A53370B5044640
:202820000D460A4E03604FF48052306803F0ABFD4FF4397322462946306803F09EFD20B185
:202840000348FFF7A9FD6FF01E0070BD0C8900203B77000038B5244D0446D0F8D0124FF4EB
:202860000052286803F08FFDC0BBD4F8D012286801F50053C4F8D8321C4A4FF4005303F040
:202880007CFD054630B11A48FFF786FD6FF01E05284638BDD4F8D032D4F8D42203F50053F8
:2028A0009342C4F8D0321CDAD4F8E0221149A2F50052C4F8E022A1F5005003F037FED4F8E6
:2028C000E0220C4904F23D2003F030FE0A4B2046196801F54051FFF79FFFD9E76FF0220590
:2028E000D6E76FF01B05D3E70C890020198A00204D77000019AA00200889002070B5374E68
:20290000ADF50B5D364D8AB0044642F2E4233168286801AA03F02BFD48B13248FFF73CFDDA
:202920006FF01E0528460DF50B5D0AB070BD316828684FF43973224601F5405103F017FD48
:2029400005460028E9D1D4F8C032013318D0BAAB03F5E853D3F8E412D4F8C8221C3391423F
:2029600005D1D3F8DC22D4F8DC329A422ED0BAAB03F5E853D3F8EC22D4F8D0329A4225D1F3
:20298000BAAB03F5E8514FF439721C31204603F0CDFD4FF4005201A9134803F0C7FD802250
:2029A0000DF509511148013103F0C0FD6369002BB8D0A2699342B5D8D4F8C03203F500736B
:2029C000C4F8C0320023C4E90533ABE7D4F8E022802AEBD8044804F23D21E5E70889002057
:2029E0000C8900205F770000198A002019AA00200FB407B504AB53F8042B022104480193FB
:202A0000FFF7A4FA03B05DF804EB04B0704700BF450E000038B515460446002847D0B2F536
:202A2000805F05D92348FFF7E3FF6FF01E0038BDD0F8E0322048184403F078FDD4F8E03240
:202A40001D44B5F5005FC4F8E0522ED32046FFF775FE1A494FF404720B7D04F12C0084F80D
:202A60003C32CB694431636051F8243CA36051F81C3CE36051F8183C2361D1F82032A361AC
:202A8000D1F81C32636111F8043C84F8283051F8083C636251F8103CE36151F80C3C2362FD
:202AA00003F044FD2046FFF7D5FE0020BFE76FF02000BCE770770000198A0020A0860020DB
:202AC0002DE9F7430F4615460446002855D0002A50D0DFF8AC80D8F80060002E4DD1D0F8CE
:202AE000C812D4F8D832DFF89C909942D9F8000039DA06236A46D4F8DC1203F038FC88B969
:202B0000D4F8DC12BDF800300631AB42C4F8DC1205D1DDF80220D4F8C8329A420CD01A489B
:202B2000FFF766FF6FF01D03C8F800306FF01D06304603B0BDE8F0832B463A46D9F8000046
:202B400003F015FC0028EDD1D4F8DC322B44C4F8DC32D4F8C8321D44D4F8CC32C4F8C852B1
:202B60009D42E5DBE2E713463A4603F000FC0028EFD0DBE76FF02106DAE76FF02006D7E7F2
:202B8000942600200C8900207C77000000232DE9F04F7B4DA7B0C5E99833FFF711F800287C
:202BA000FBD02C69002C00F0E780D4F8DC32002B40F0A8800A221E46DFF8C8917248B9F8AA
:202BC000001003929AB2914264D8DFF8C08132466F48FFF7E1FBD8F800306E4A03F5804369
:202BE000334493425CD8360B06F1010A01266A4FD4F8C4124FF48052A1EB063101363868E1
:202C0000B6B203F0C0FB5645F2D9D4F8C432013EA3EB06339A460026DFF87CB10093B9F822
:202C20000020B3B29A4241D85C4B5D4A1B78D8F800100C331B03C4F8C83203F57F23C4F8F0
:202C4000CC324FF44043C4E9B432C4F8D832554A504B01F54051C4E9B0230023C4F8E03225
:202C6000A9F80030009B2046C4F8DC32FFF7D4FD4FF44052D8F80010386803F084FB042303
:202C80004949386803AA03F078FB002864D06FF0240425E030F8022F01330632164491E770
:202CA0004248FFF779FB6FF01E0419E04048B2B202F5005330F81330991D019150F8221043
:202CC000DBF800000DF11602ADF81030CDF8121003F04DFB40B13748FFF75EFB6FF01D04C5
:202CE000204627B0BDE8F08F5146019BDBF8000004AA03F042FB013608B12F48D1E7019BD4
:202D00009A448CE70223244E04934FF40052D4F8D012306803F037FBD8B9D4F8D012D4F829
:202D2000E032264A306803F028FB014618B12448FFF732FBB7E7D4F8E022D4F8D032C4F8CE
:202D4000E0021344C4F8D03217490423306804AA99E76FF02204C3E7D5F854326E6A2BB9F1
:202D6000344621461748FFF743FEB9E71648984704460028F5D1F3E76FF02004B0E700BF14
:202D8000A08600209886002096660020088900209777000000B017000C89002050010020E7
:202DA00000B0100028C8100000C81000BC77000098260020E5770000F5770000198A0020DF
:202DC000067800001D780000D08600202DE9F043804691460D46ADF5017D29B12A4BDA697F
:202DE000D3F86012521ADA610024A8450AD8002C3FD0FFF7CBFE3FE0002C26DBFEF7E0FEE3
:202E000004461BE0002CF4D1A8EB0507B7F5007F28BF4FF4007769463A464846FDF776FEEC
:202E200078BB194EF369C6F85CD23B44F361D6E998239A4208BFC6E998740024D6E9982367
:202E40009A42D9D1012C08BF0024D9F8C0323D443B44C9F8C0320D4B1B78022BC5D1642329
:202E60006B434246B3FBF8F329460948FFF7C0FDBBE7FFF78BFE044620460DF5017DBDE81A
:202E8000F0836FF00904B4E7A0860020168A00203A7800002DE9F04F80460221C62085B0A7
:202EA000FDF7B0FFC620FDF78DFFD8F8042053691068C0F82435917E537ED48B0B43918B27
:202EC000127E214389B20B431343C0F86C35D8F804100B68D3F8002242F48022C3F80022CD
:202EE0000822C3F800250A6A0121C3F83C270022C3F840271965D3F830110029FBD0C3F897
:202F00000025D8F80430DA685368117A03EBC101994216D80821D8F804201368C3F800151F
:202F2000117A51B9526AC3F804270122C3F80827C3F84C11D3F84C119A62002005B0BDE897
:202F4000F08F5879002800F0B6800833E0E7C4F804164B1C3DD0012603A80391FEF7E2F852
:202F6000039B06FA03F3436004E0C4F80C164A1C2FD0002633463A68039102F400400028C0
:202F800018BF002303A818BF012601920093FEF7C9F80399019A00EB8100D0F88010009B1C
:202FA000C2F341222D0221F4433145EA820521F443712B4321F003010B4343EA4603C0F8C3
:202FC000803006E0C4F81016C3E74E1CC4F800166FD104374F459DD03B68C3F3C322082AA7
:202FE000C3F3080196D81B0E594508BF4FF0FF311AF80250192B8DD801A252F823F000BFDB
:203000004F2F00006B2F0000C52F000087300000CB2F00006930000087300000152F00005F
:20302000152F0000152F0000152F0000152F0000152F0000152F0000152F0000152F000070
:20304000152F0000152F0000152F0000152F0000152F0000152F00008D300000A13000004A
:20306000A7300000AD300000481CC4F80416B0D0012603A80391FEF755F80123039A03FA7C
:2030800002F2826077E7C4F8081670E7C4F860154A1C3B689DD0C3F30043002BE8D05AE707
:2030A000C4F86415F4E7C4F86815F1E7C4F86C15EEE70026DDE71F6893F8049040F2FF1B01
:2030C0001468DFF808A007EB890983E7B38200002DE9F04F8246ADF5457D89461746002104
:2030E0007022A4A89846A04CDDF838B303F00AFB9E4B9F4DCDE9A44300249E4B9E4ECDE94F
:20310000A6539E4BCDE9A8639D4BAA9303F17453A3F52303A3F69243AB93BAF80830BAF826
:203120000A20DAF80C6013441E44A64236D8A4A910A803F01DFBBBF1000F04D020225846F9
:2031400010A903F0F3F9B9F1000F1FD0DAF80C30BAF8084048461C4421460423A4AA03F06A
:2031600081F9069090B946F60813BDF89022BAF80A109A4225D1BDF89232994206D1042348
:203180004846A4AA214403F06DF9E0B14FF0FF33029302980DF5457DBDE8F08F351B4545A2
:2031A00028BF45463A462B462146484603F05AF90028EBD12A463946A4A803F064F82C4493
:2031C000B3E70029E2D146F60713BDF890229A42DCD14846BAF80A60BDF8925203F08BF979
:2031E000D9F808300746984210D2D9F80430D9F80C001F448368A4AA1B6988A99847002388
:203200001846A49A511EA491002A7AD145215D48FFF7C2F8002332190592AA189A42079202
:20322000B4D8231D4FF0FF3403930294079B039A934240F2B082BAF80A3023B1059B934277
:2032400004BF0433039304234846039988AA03F009F900289AD1039ABDF82032111D059A62
:20326000BDF822B28A4208D84FF6FF75464830F8022BAA428AD09A42F9D1102B58D0222BE1
:2032800000F08680012B69D1BBF1200F3FF67EAF5B464846A4AA03F0E5F8044600287FF463
:2032A00075AF0146702288A803F02CFA2E4A2F4B2F49CDE988232F4B2F48CDE98A132F4B3F
:2032C0003249CDE98C032E4B5B228E9303F17453A3F52303A3F6924388A88F9302F0D3FF1A
:2032E00088A978A803F044FABBF1000F36D05A46A4A978A803F093FA041E18BF012464423A
:203300002CE08899D1F804E077B94242D1F800C0624528BF6246944502FB0E33104400F203
:203320003F82083188916CE7FA1AB2FBFEF2EDE7BBF1200F7FF42AAF5B464846A4AA03F00B
:2033400091F800287FF422AF5A46A4A910A803F066FA00287FF41AAF01230693039A0BF1C6
:2033600004031A44039261E767E6096A85AE67BB72F36E3C3AF54FA57F520E518C68059B00
:20338000ABD9831F77780000C472000022820000631CE3D0BBF1800F3FF6F8AE5B464846C7
:2033A000A4AA03F05FF800287FF4F0AEB74BB8490B9360AA30230BA802F047FB002840F0FF
:2033C000A081609B0B9E68AA1E44314630230BA802F03BFB002840F094810B9FF31B002BBF
:2033E00040F38F813B7879AA7893689B0BA81F443946062302F029FB002840F082810B9DCF
:20340000799C7A952B199F420B9340F06881A14B0C2200211B6888A89847072C40F071818A
:20342000224628469C4903F0FAF9002840F06981899A082A40F0658198498A9803F0EFF960
:20344000002840F05E810323314660AA0BA802F0FCFA002840F05581609B002B00F05181DD
:203460000B9D5A1E29786092002940F04A812B44691C9E420B9140F04481412A40F04181B3
:20348000A4AB03EB0B060DF5F078789331463023404688AA02F0D9FA002840F03281789B04
:2034A000889A13449E42C0F02C813246414668A803F031F9002840F024813246414670A816
:2034C00003F029F90290002840F01B816B78042B40F01781202237905F906790A91C40463D
:2034E00002F0B3FE202205F1220180A802F0ADFE202268A958A802F0A8FE70A960A82022BB
:2035000002F0A3FE082158A802F0BEFA002840F0F88060A802F0B8FA0646002840F0F180B4
:203520000A465F4858A902F0F3FA012840F0E98008225B4860A902F0EBFA0128089040F054
:20354000E0800823564A28A802F097FC18A8082188AD1F9602F08DFA202210A902F075FE3F
:203560000823014628AA284602F029FB29464C4A18A802F0B7FB0823284628AA58A902F0BC
:203580001EFB2946464A20A802F0ACFB0822454F4146284602F0B0FA80A990A802F0ACFA6A
:2035A000394640A802F0A8FA07F1200148A802F0A3FA2946A7F140030492009228A840AA4C
:2035C00002F07EFBA7F14402009290AB2A4648A940A802F0D1FD28A90846A7F14002049B34
:2035E00002F04BFCA7F1440328AA284690A902F0A5FD049918A8CDE90E85CDE90C6702F0E5
:203600005BFA0499054620A802F056FA8542B8BF0546ADB2691E09B218A8099102F043FAB0
:203620000999804620A802F03EFA003818BF0120B8F1000818BF4FF001080CAB48EA4008FF
:2036400053F82810049A30A802F056FA203138A802F052FA114628A802F00BFA089B023DC0
:2036600028932DB2403F002D51DA28A9084608230D4A30AD02F001FC28460C4B28AA38A9F4
:2036800002F05CFD0822294612E000BF228200007D82000000000020868200007D820000CB
:2036A000387200005872000018720000147200003D4802F02DFA012804D0082328463A4ACE
:2036C00002F03BFA58A955F8243051F82420013C83EA020346EA0306F5D2AEB111E02A5D0E
:2036E00001338892394689AA0BA80B9302F061F938B90B9B899A8A9313449F420B933FF44D
:203700008CAE4FF0FF3302934FF0FF3426E6274B28AA38A930A802F034FC294618A802F0AB
:20372000C2F92946804620A802F0BDF9003818BF0120B8F1000818BF4FF001080CAB48EA40
:20374000400853F8281019B3082240A802F0D4F948A8203102F0D0F90146144B28AA40A8A5
:2037600002F0ECFC082340AA009330A93B4650A802F0A6FA0D4B30AA009348A938AB40A862
:2037800002F0FAFC28A90846084B50AA02F045FB013D2DB267E7069B002B7FF4FAACF5E47A
:2037A000D9F804209B1A36E538720000147200002DE9F04F4FF0000BDFF82882ADF23C5DBC
:2037C00004460D4688484921FEF7E6FDD8F824305B6806935B46069A5E4613449D420BF1A3
:2037E000010BF8D8FDF7B6FD5A46009049217F48069BFEF7D1FD204602F0CEF820B34FF44D
:20380000C062D8F85C30D8F82850534300225033013D06990A449A4201D2013DF9E75D450D
:2038200012D857217248FEF7B7FD0699069BB21C6B434A436F485721FEF7AEFD0123E37133
:203840000DF23C5DBDE8F08F00260BA90220FDF789FA0CA90520FDF785FA31461C220EA881
:20386000654F0D9602F04EFF0B9D644B31463B602846202315AA0DF1340902F0F3FD95AE79
:20388000402332462946CDF8009015A8FFF720FC282332465A49386802F069FD002840F004
:2038A00098803368574A934240F085802022494697A802F0B4FF00286CD10A22524B50492E
:2038C0001A700E233868159315AA042302F055FD00287ED14D48FFF78BF871684C4B01F5D0
:2038E000861202F628020B44C2F30B029A1ADFF82491494BB1F5005FC9F800101A606BD29C
:2039000001234648037000923F4A45481278FFF76FF80C9B434A0793636803F0FF23934270
:2039200029D12368012B26D131460798FDF746FD3278012A53D03C4B3C49032A08BF0B4649
:20394000F27849210292B2783948019272780092384AFEF721FD3378032B0CD10798FEF766
:20396000C5FA079803F0D2F8A168079803F0BFF80798FDF77DFDFDF7EDFC492102462E48C8
:20398000FEF70AFD6379012B40F0A6805F46DFF8ACA09BE02A48FEF7FFFC6FF02501294832
:2039A000FFF726F800210C9882680DF23C5DBDE8F04F02F087BD0E2B134A02D10A23137079
:2039C0008BE70A2B01D10223F9E7022B08BF107083E76FF02401E2E7C1F3473391E71A4B33
:2039E000AEE700BFA4250020C1780000EA78000021790000507900000C890020AC6E0000BD
:203A000000C810004E455750168A00208179000028D810009C0500200889002050010020E7
:203A2000277A000000010004BD780000B7780000827A0000727A0000C37A0000A005002092
:203A4000B8790000EB790000B27800002168C1F101035B44BB4238D3B84AD8F82430127811
:203A600018683A44013A53F8322003EBC70353F8083C121A1B1A0129089209930CD1E36840
:203A8000022B06D02846FEF731FA2146284603F01CF90798FEF72AFA069A0899284602F05F
:203AA00011FD069B294600932846DDE90832FEF7D9F82046FEF704F923680133236020B1B6
:203AC000DAF800300133CAF80030013F002FBDD10123236003236371DFF864824FF4397275
:203AE0000021304602F00EFE98F800300A2B48D14FF440410027914BDFF848E21A78DFF8F2
:203B000048C20C32120302F57F23C6F8CC328F4B8F48C6E9B4138F4BC6E9B00C1F808E4B0F
:203B2000C6F8C822C3F800E0DFF830E2DF61C3F804E0D9F800E09F62C3F808E0DFF820E24C
:203B40001E61C3F80CE01F75C3F854724FF4E023C6F8D812CDE90013CDE903C74FF480131D
:203B60004FF4006102907F48FEF742FF32463946D9F80000FFF72AF9B84275DD022388F840
:203B80000030FDF7E7FB492102467748FEF704FC6B4B1B78022B40F08A800DF515784046F4
:203BA000FEF7ACFE00285FDB6B4E704ADFF8C0913260D9F80030694AC6F81080C6E9012302
:203BC00000236C4AF361F260B362D8F8C0223375C6F85432684B9A425EDD68480DF1540ADD
:203BE0004FF4007352465A49006802F0C0FB00283AD14FF400733769C6E99830C6F85CA203
:203C0000FDF7C2FE97F83C32824633757B684FF40472F361BB6807F12C013362FB6806F15C
:203C20004400B3623B69F362FB6973637B6AF3633B6AB36397F8283086F8403002F076FCC9
:203C40007B69C6F86032BB69C6F86432D7F8E032B3F5005F03D33846FEF7FCFD8246BAF11B
:203C6000000F19DA08233375042363716379042B7FF4E6ADDFF8C490414899F80010FEF719
:203C8000B7FE0126DFF8FC80DFF8FCA05E4516D9012323606371D3E5D8F8C0124246A1F5FD
:203CA0008611D9F80000A1F62801FFF78FF8FDF751FB492102463548FEF76EFBD6E721684C
:203CC000B14238D899F80020D8F824303244013A186853F8322003EBC60353F8087C121A8C
:203CE00001290892A7EB00070CD1E368022B06D02846FEF7FBF82146284602F0E6FF07989B
:203D0000FEF7F4F83946069A284602F0DBFB069B2946089A009328463B46FDF7A3FF20463D
:203D2000FDF7CEFF23680133236020B1DAF800300133CAF800300136A8E700BF5001002091
:203D4000168A0020A10A000000B0170000B0100028C8100098860020A0860020C9630000C1
:203D600095630000F07A0000827B0000C12A00009C050020152A000027C810000C89002045
:203D8000CC7B0000A4250020A0050020A77B00007FB500220446CDE9022201F0FDFD28B3CC
:203DA000184E194D3368AB4203D1104603A9FDF7E3FFF36AAB4203D1012002A9FDF7DCFF4A
:203DC000DDE90232934288BF0393039BA36020460399FFF7EDFC0D4B1A68002A03DD572159
:203DE0000B48FEF7D9FA002004B070BD01A8FDF7A7FF019804F1080102F046FBA3680393F9
:203E0000E5E700BFA42500203DB8F396A00500202B7C0000F0B585B0044602F0AEFFC6B209
:203E2000304602A9FCF79EFF00284DD12C25284F304603A905FB0475FCF794FF60B12C2342
:203E40006343F9180A69D00612D514B10298FEF74DF8012005B0F0BD039802F057FB6B1EF7
:203E6000EA1C13F8011F8142E9D19A42F9D1ECE7F858184B029E984206D0F4B9164A4521A5
:203E80001648FEF789FAE4E7C8680B891B18F4D24989C918F1D2B3689942EED240F60C63F3
:203EA0001A40EAD14FF480730092314628460C4AFFF70EF90028CDD0DFE7B26800213046B1
:203EC00002F000FB074ADAE74FF0FF30C2E700BFA42500203DB8F3965A7C00006C7C0000E8
:203EE00016890020627C000001262DE98048B04B8FB003201E70FDF7B3FC0420FDF7B0FCCE
:203F00004921AC48FEF748FAAB4C60220021204602F0F8FBA94B0020636203F580532365FB
:203F200002F02BFF04F120010546C0B2FCF71AFFC0B9304602F021FF04F14C010546C0B286
:203F4000FCF710FF78B94FF400750220626A0AA90A9502F06CFE78B12A4657219848FEF7F4
:203F60001BFA62E10026CDE9006000232A4645219448FEF711FAFEE70A9B0520226D0AA9E7
:203F8000A3620A9502F053FE70B12A4657218C48FEF702FA84F858600020FDF737FF50B1ED
:203FA000002257218848DAE70A9B206A636502F09BFAE065F0E701230A9303F10123CDE9AD
:203FC0000B300D9006A9022002F053FD9DF81820012A00F0AC807D4B7D49032A08BF0B460F
:203FE0009DF81B20492102929DF81A20794801929DF819200092784AFEF7CEF9052008A91C
:2040000002F037FD9DF82020012A00F092806F4B6F49032A08BF0B469DF8232049210292EB
:204020009DF822206B4801929DF8212000926B4AFEF7B2F99DF81830012B7CD19DF81A3071
:20404000032B78D19DF82030012B74D049216448FEF7A2F9022008A90D90FCF783FE0746BD
:20406000002840F0D780089E3378022B02D0052B40F0D0803046E56D02F03DFA40F2FF531C
:204080005FFA85FA03FB0A084FF0FF3501234FF4C0699B4641460123304606AACDF810901E
:2040A00002F0E0F9031E09F1FF390593C0F2B2800122304606A902F0AFFC059B002871D078
:2040C0009B4500D00137A8EB0A08B9F1000FE0D1012F03DD45214348FEF75EF96B1C09D03C
:2040E000B5F5007F80F2888040F2011301350A95ADF82C30B1680123203921F00F013046D4
:2041000006AA203902F0AEF9002840F083800122304606A902F080FC10B101238DF818303A
:204120009DF8183003F00F038DF82F3009E02E4B56E72D4B70E749212C48FEF72DF900232F
:204140000D939DF82F309DF82D2000930A999DF82C302748FEF74CFC0AA801F01DFC002832
:2041600072D10AA8FFF714FE9DF82F3084F85830033B012B05D802F0E8FD10B1FF2384F8CD
:2041800058309DF82F30023B022B47D802F0C6FD002843D0FF2384F8583045211548FEF74C
:2041A000FBF8FEE7049AB5F1FF3F08BF15468AE7178A0020B77C0000A4250020A40500206C
:2041C0001D7D0000D07C00005F7D0000BD780000B7780000827A00008B7D0000727A0000C9
:2041E000997D0000CF7D0000B2780000B87D00001C7E00005B7E00000223A5F500758DF8D2
:204200002D306B1005F00105013301350A938DF82C506FE7002257217448A0E694F858307D
:20422000FF2BBAD00AA8FDF7F1FD012384F858308DF82F3094F85830FF2B40F0B680452120
:204240006B48FEF7A9F8FEE79DF82F30012B40F09980022006A902F00CFC054600286AD14E
:20426000052008A902F005FC012862D12A4649216048FEF791F8604B8DF8245008930022B8
:204280009DF818109DF820005C4D2B78042B06D0052B57D14B1E18BF0123002B5ED06B7863
:2042A000042B06D0052B51D1431E18BF0123002B54D0AB78042B03D09DF81B609E424DD1C9
:2042C000EB78042B03D09DF823609E4246D12B79042B03D09DF81A609E423FD16A79022AB6
:2042E00038D0032A38D0464B4649042A08BF0B46002249214448FEF74FF86D79AB1E022BEB
:2043000019D801200AA9FFF785FD80BB84F858508DF82F500AA8FFF73BFD94F85830023BCC
:20432000022B87D802F011FD40B902F0F7FC28B980E70028A3D0FF238DF82F30FF2384F88C
:20434000583077E75F1A7B427B41A6E71E1A73427341ACE72D4BCBE72D4BC9E70132032A12
:2043600005F1060591D1002249212A48F7E501283FF45BAF052384F858308DF82F3002F098
:20438000E4FCD4E701200AA9FFF744FD0028F1D19DF82F30042B84F8583003D8012BB9D8CE
:2043A000CCD147E7052BEAD0C8E70020012B08900ED100210846FFF72DFD054660B9089B40
:2043C00001330893DDF820A0BAF1010F26D0FEE7FDF71CFD0028ECD0102200210AA802F0FB
:2043E00091F945210C48FDF7D7FFFEE7F27D00005B7E0000677E0000030103038E82000083
:20440000A57C00009E7C0000B27E0000947C0000997C0000D67E0000FC7E0000236A01466A
:2044200010220AA85E6802F06DF94FF0FF39324649213648FDF7B0FF49213548FDF7ACFF7A
:204440002789344CC620C4F80893FCF7C9FCC4F82CA0C4F85051D4F85031C4F84C51D4F8E0
:204460004C31C4F82451D4F82431C4F8005504F578344FF48270C4F80893FCF7B1FCC4F8CF
:204480002CA0C4F85051D4F85031C4F84C51D4F84C31C4F82451D4F824311F4BC4F8005537
:2044A00007EB0608C3F80893BFF36F8F72B61B4B05F120020135102D43F82290F8D1002304
:2044C0004FF0FF30154A03F160010133102B42F82100F8D10024124BC3F80444FCF760FC54
:2044E00084F30B8884F30A88BB5983F3088884F31488BFF36F8FBFF36F8FD8F80430984739
:2045000045210848FDF748FFFEE700BF1F7F00004E7F000000600C5000E0105000E100E0DE
:20452000002008E0737F00002DE9F84F14461D46FCF7E8FEA042A941C0F095807C4ED6E974
:204540000012641A24F01F0365EB02055B1842EB0502C6E90032EFF31182202383F31288EE
:20456000BFF36F8F734FDFF8D09138686409B84208BF002044EAC564704DC9F800409046B8
:20458000D5E90021D9F80030A8B3D0E9044C4FEAE37EA3427EEB0C0A05DAE41A6CEB0E0C8B
:2045A000C0E9044C27E0A21841EBE4710023C5E900210022C0E90423D0E9003213605A60C4
:2045C0000023C0E9003388F31188BFF36F8F83689847EFF31188202383F31288BFF36F8FD0
:2045E000D9F8003038681B1BB8424246C9F80030C5D1D5E900219A1841EBE373C5E90023F7
:20460000D6E900450023C9F80030D7F80090B9452BD1FCF777FE6FF00046FCF773FE202375
:20462000001B61EB0501C6FB0301402871F1000228BF20F01F034FF00100414E38BF00217C
:2046400096F808C000FA0CFE1EF0670F07D03D4F7A68D24302F0670212EA0E0F64D188F3FE
:204660001188BFF36F8FBDE8F88FFCF74BFE001B61EB0501400940EAC160B9F1000FCAD035
:20468000D9E90463361A63EBE073B6F1004F73F10002C0DA002BB8BF0026BEE75A4600FA03
:2046A00009F92AEA090A9AFAAAF9B9FA89F9CC4502F1010BF2D11B1941EB05010025224C99
:2046C000D2B204EB0C10C0F82C550C2000FB0272306882F814C0D06070681061BA6842EACA
:2046E0000E02BA60EFF31187202282F31288BFF36F8F307A154A800015501258327AC1F35D
:204700001301120102F1A04202F56222C2F82035C2F8241587F31188BFF36F8F0123327A8D
:204720009340C4F824339AE700224FF0670ABAE760010020040000201089002068010020B8
:20474000600000200C00002000200E5000210E502DE9F04F0D46D0F8141387B0C9B241F432
:204760000031AA6D009002F0E6F9810306462ED50023696E03A8CDE903330593FDF744F864
:20478000DFF868A1DFF868B10DF10C091AF8013B05EBD30292F8642003F0070322FA03F306
:2047A000DA076AD4534B09F1040953450BF1010BECD14FF40031AA6D009802F0BCF9696E37
:2047C00003A8FDF721F80028DAD126F400360124002E73D107B0BDE8F08F91FAA1F1B1FAC4
:2047E00081F19BF8004041EA44142046FCF784FF083035F81080C8084FEA980301930123C4
:2048000019F8002001F0070103FA01F122EA010209F8002002A80294FCF784FC029A019B64
:20482000203250F82220C8F382075B07B846C2F3014227D52846D7B22146424602F0D8F95B
:2048400002A80294FCF76EFC029B203350F82330C3F301439F4207D10021204602F092F979
:204860003946204602F08EF902A80294FCF75AFC0122029B02FA03F30362D9F80010002930
:20488000ABD18FE7022A0DD10321204602F07AF907F00503012BE7D142462146284602F0FB
:2048A000A7F9E1E702212046019202F06BF9032FF2D0019A032AD7D1022FECE796FAA6F38D
:2048C000B3FA83F304FA03F226EA0206009A284602EB8303D3F81015D3F81025C1F3081172
:2048E000C2F3014202F084F972E700BFA0820000A0820000A382000001490248FFF728BF5F
:204900006C00002000A00D5001490248FFF720BFD800002000C01050F7B5254A0020536897
:204920009268DB4303F0670313401C46012607460CBB01271F4B1E4DD3F820630640287DDC
:2049400007FA00F333420FD0E96869B10201D5F810C002F1A04202F56222D2F82435D2F8C7
:204960002025CDF800C088470134052C05F10C05E5D103B0F0BD94FAA4F5B5FA85F5AA0021
:2049800002F58071920806FA02F213420BD001F1A04101F56221D1F800C0BCF1000F02D00E
:2049A0000F600968104306FA05F524EA0504BFE70C00002000200E5030B50468ACB1B4FA07
:2049C00084F30122C3F11F03DBB29A4024EA0202D0E8EF5FA54204D1C0E8EC2FBCF1000FAD
:2049E000F6D1EAD102480B7030BD0248FCE700BF0000AD0B0200AD0B2DE9F341AC4D0221BF
:204A0000E420FCF7FFF92A78002A40F02681A94BD3F8101521F00201C3F81015D3F810153C
:204A200041F00101C3F810150521C3F8A4160421C3F8AC160723672101F001000244013B00
:204A4000D2B24FEA5101F7D1052A40F006811A4601279748002467265FFA82FE96FAA6F181
:204A60005FFA84FCE645B1FA81F100F2F0800132052A017500F10C00ECD1012000248E4905
:204A80009A0800FA02F212F0670F1CBF5C505A580433302BF4D1E420FCF794F9854B002703
:204AA000D3F8182703F5C07322F4403242F48032C3F89825D3F8902322F00202C3F89023D7
:204AC00040F6FF72C3F8A8217C4A1F60A3F58071043393420F60F8D14FF00108754C784ECA
:204AE000C4F860803068774BB0FBF3F05D235843754B43EA080398476B68744903EA0803B8
:204B000001A8019385F80080FFF756FF704B984240F0AA806F4B1F726B6823F001036B6021
:204B2000AB6843F00103AB60D4F810359B0700F19480D4F8103543F00203C4F81035D4F852
:204B4000482712F0010202BFD4F8483743F00103C4F84837574BD3F84017D3F844174F002A
:204B6000F9D42AB9D3F8482722F00102C3F84827544A3368B3FBF2F34E4A03EB4313002B39
:204B80006BD0D2F84017D2F844174D006AD401225149D1E8EF3FC1E8E02F0028F9D13BBBC5
:204BA0004E498A608A684B6002F00302012ACB601ED1CB608A68032A1AD8EFF311852022A5
:204BC00082F31288BFF36F8F4FF6FF764448848E04F00702C48EB4425FD0022A4AD10134CE
:204BE000C48685F31188BFF36F8F1C3001F0FFFBEFF305821AB93B4B1B78002B52D1EFF3EE
:204C00001182202383F31288BFF36F8F0120002501242027344B354ED3F84CC4D3F84C1444
:204C20001CF4803F68D001F00301012964D1002800F0858082F31188BFF36F8F1D4A0020B7
:204C4000D2F8183723F44033C2F8183707E007FA01F126EA0106013400E74FF0FF3002B07B
:204C6000BDE8F081013B8AE7214B9842F5D16FF00B00F4E75124D440E4070ED50B60036AF1
:204C800043B9C0E9071142B92A4602211948FBF75BFFADE719600162F5E785F31188BFF30D
:204CA0006F8FA5E70421104B1046C3F80813AEE70C00002000200E5000210E50B0210E50D1
:204CC0004401002040420F00206F0000200000200000AD0B60000020142600200426002033
:204CE00020260020178A002000E0105000E100E00200AD0B3C26002072B685F31188BFF365
:204D00006F8FBFF34F8F20BF82F31188BFF36F8F62B6D3F8401411F0FF017FF47DAFD3F8C6
:204D200008C1BCF1000F3FF477AFC3F80811D3F80811C3F84044C6F8A0711C616CE70422D9
:204D4000C3F804237AE700BF2DE9F743174604460846FCF7D1FC3E688846054696B32046DE
:204D6000FCF7E6FC38B12046FCF7D0FC18B16D4803B0BDE8F08301A8CDF80480FCF7D2F957
:204D8000019B327800EB8300D0F8803023F00F0343EA8203C0F8803036202379624A00FB0F
:204DA0000353083332F8131021F0020122F81310237900FB0353083332F8131041F001011C
:204DC00022F813107B68FBB14146204693F800905E68FCF7ADFCE0B1002EC8D13620237953
:204DE000514A00FB0353083332F8131021F01C0122F81310237900FB0353083332F813105F
:204E000041EA890122F81310BB68002B4CD14748AEE736202379444900FB0353083331F8DD
:204E2000132022F4604222F0200221F81320002ED4D0B9F1030F9AD87B6826685B6893F848
:204E400000C006EB8C06B9F1000F04D1C6F81095C6F81095C2E7D6F8102522F00302C6F83A
:204E60001025226802EB8C03D3F8102522F4473222F47C72C3F8102541F6F072D3F810659B
:204E800002EA081242EA09423243C3F81025237900FB0353083331F8132042EA4C3242F0D0
:204EA000200221F8132099E74146D3E900972046FCF762FCB9F1000FA9D06C2320791A4EB1
:204EC0004343F218F358994504D153689F4201D100210CE06C2303FB006001A96030FFF7AC
:204EE0006BFD124B98427FF443AF9DF804106C222379534303EBC10346F803902379534390
:204F0000362203EBC10333445F60237902FB0353083336F8132042EA412242F4807226F8F1
:204F2000132074E70400AD0B6C0000200000AD0B2DE9F04F144640F20635E20648BF4FF099
:204F40000308476804EA05053B7B58BFC4F3401889B001F01F06B5F5837F4FF0000A46EA4F
:204F600043168DF80B8042D00FD8062D41D007D8B5B1022D14D06FF0150009B0BDE8F08FE2
:204F8000B5F5807FF7D101250AE040F202239D4231D0B5F5407F30D0B5F5007FEBD10425E2
:204FA000012303FA01F1230329D57B6859603B6953BB05A80596FCF7B5F8059B84F48031BB
:204FC00000EB8300D0F88020C1F30041C4F3404343EA410322F4706243EA880322F00F0298
:204FE00043EA05231343C0F880300020C5E70925D6E70825D4E70625D2E70525D0E76003D7
:2050000044BF7B689960D2E707F1100831464046FCF77CFB002870D03046FCF76DFB3622F0
:205020003B7DDFF8B4B102FB03006C4B083033F810A04FEA5A3A14F4403961D13046FCF7C9
:205040005BFB36223B7D654D02FB0303083335F813300446DA0730D53146404601F0A5FDCA
:2050600031464046FCF752FB60B13B6940460193FCF770FB019B00B203EB8003C3F81095A7
:20508000C3F8109540463146FCF776FB36223B7D05A802FB03440023083425F814300596F3
:2050A000FCF740F8059B00EB8300D0F880204C4B134043F00203C0F88030474B9B4594D1EE
:2050C0006C24464B387D04FB0031CA6D22FA0AF2D3078AD40B4601225C3302FA0AF2C86D13
:2050E00040EA0204D3E8EF5F854203D1C3E8E64F002EF7D13FF479AFF1E7DFF8E8B09AE7E3
:20510000002303AACDE906233146404605AACDE903330593FFF718FE2F4B814698427FF416
:205120002AAF14F4003349D09DF80B3030460193FCF7E2FA31468146404604F48034FCF736
:20514000F7FA28B94046FCF7E1FA00287FF413AF36223B7D214902FB0393083331F8133018
:2051600013F01C0F02D0002C3FF405AF05A80596FBF7D8FFB4FA84F4059B019A00EB83003C
:20518000D0F88030640923F4706323F00F0343EA8203362243EA440343EA052343F0010311
:2051A000C0F880303B7D02FB039909F1080931F8193043F0030321F819307EE7CDE90633CA
:2051C00031460DF10B03404605AA0593FFF7BCFD48453FF472AFCEE60000AD0B6C000020F7
:2051E000F0F0FCFF0400AD0B2DE9F041456801F01F04287B88B044EA40142869002800F00A
:20520000B480B2F5001F05F1100607D12146304601F0CBFC002008B0BDE8F0810027B2F55F
:20522000800F03A80397476031D1B3F1007F14BF052304238DF80C300023CDE90603059371
:20524000AB68CB40D8073AD4B2F1A07F37D102A80294FBF767FF029B203350F82330D90776
:205260002DD421463046FCF751FADFF80C812F7D0DF10701B0B96C2303FB07805C30FFF7FD
:205280009BFB3E4B984219D06FF00B00C3E7B3F1C06F05D0B3F1007F14BF01230223C9E781
:2052A0000323C7E72046FCF727FA362303FB0700083038F810305B0B8DF80730049121467C
:2052C000304605AAFFF740FD2C4B984250D12B692146D3F81423304692035CBF4FF400326C
:2052E000C3F81423FCF712FAE0B13046FCF720FA0746B8B93046FCF72DFA02B22969920083
:2053000002F58073CF50CB582B691344D3F8102542F00102C3F8102501232A698340C2F81D
:20532000143377E72046FCF7E7F936222B7D02FB0300114B083033F81030C3F38203042B26
:205340000FD0052B0FD002A80294FBF7EBFE029BC168D94001F001010231204601F012FCDA
:2053600058E70321F9E70221F7E76FF0850052E76FF015004FE700BF6C0000200000AD0B1F
:205380002DE9F0415C4B05465F6800268AB0C7F3080486F31188BFF36F8F02F07F43B3F1CD
:2053A0007F4F07D102F00C03082B14D145215348FCF7F2FF002635464FF00008E31E8DF8DB
:2053C0000780092B00F28380DFE803F00A767A7281818181817E10074CBF0D460126EBE786
:2053E00045214748444CFCF7D7FF8DF80780E36A9A0705D545214348FCF7CEFF002432E0A4
:20540000E36A002B02DA45213F48F5E7E36A5B00F4D545213D48FCF7BFFF6369AA6943F44C
:2054200080736361BFF34F8FBFF36F8F636932F8022C23F480736361BFF34F8FBFF36F8F43
:205440004DF602739A4208D0A36ADBB213B301200DF10701FDF70EF92CE045212A682C48E6
:20546000FCF79AFF2C689DF80730002B41D12022294602A801F05AF8099BAEB3C3F30802A0
:2054800022B96FEA53236FEA43230993204602A9FCF794FFA36A13F47F4F05D001200DF19A
:2054A0000701FDF783F805E0A36AB3F5803FA5D3FDF720F80446D6E700200DF10701C9E7BB
:2054C00000200DF10701ECE74521124894E7124917F4F87F114A124808BF0A46A4F1100347
:2054E0004521FCF759FF89E723F4FF7323F00103CBE70AB0BDE8F08100ED00E0BC7F000061
:20550000EC7F0000088000002E8000004180000065800000868000008E7F0000A37F00000F
:20552000AF80000010B572B6002484F31388FBF737FC23464FF0FF300C4A03F1200101337E
:20554000102B42F82100F8D100234FF0FF30074A03F160010133102B42F82100F8D162B60A
:20556000BFF34F8FBFF36F8F10BD00BF00E100E08FB59C4A9C4B22F07F029A60BFF34F8F70
:20558000BFF36F8FD3F88820984822F47002C3F88820974A0021121A01F0B4F89548964A95
:2055A0009649121A00F0C2FF954A9649964800F0BDFF40F20F14002210B201210132FBF767
:2055C00021FCA242F8D10020FCF74AF98F4B03F5006282F3088883F30A880021E022824B7A
:2055E000DFF82C8283F82220D9771976597699765A6A42F4E0225A6283F823105A6942F051
:2056000010025A615A6942F480625A615A6922F008025A6110221A614FF0FF329A62DA6238
:20562000D3F89020120A12F0FE0F2AD0BFF35F8F784AC3F89410C3F8C02002227648C3F8D1
:205640009810C3F89C20C3F8A0000120C3F8980000F10050C3F89C0000F57F3000F2E2301C
:20566000C3F8A00088F80020D3F89000C0F30720824217DB0522C3F89420BFF34F8FBFF36C
:205680006F8F664998F800404E68002E00F085801F2E22D8002245216148FCF77DFE6FF06F
:2056A00015047AE0C3F89820C3F8A0100132DBE72046C3F89850D3F89C2026F01F0602F0E7
:2056C0001F021643C3F89C6001F065FB61E04F45EED1E8B201F05FFB5FE0F206DAD10A687B
:2056E000D306D7D1104600F018FF164406F1FF390546484600F011FF85426CD115F1160F3B
:205700006BD0A54269DA384BC3F89850D3F89C00C3F89850D3F8A07020F01F00824247F0EF
:205720001F07D4D0013AC3F8985022F01F00D3F8A0204F4502F01F0242EA0002C3F8A020B5
:205740002046C1D001F027FB10F1160FA7D0264B013FC3F89850D3F89C109DF808200130E9
:2057600061F304028DF80820D3F8A030009626F01F0637445B08D2B2A7EB090763F3471203
:2057800027F01F076946C0B28DF808200397FCF785FE10F1160F82D0441C012088F8004035
:2057A000FCF75EF80220FCF75BF8002383F30B881C4C1D4DA4F5A04686F30B8884F30988A7
:2057C0004FF000001A498847184619461A46A84718488047FEE76FF015052A464521134896
:2057E0005BE700BF0000000000ED00E0600100209CAA0020000000205D010020388B000093
:2058000000000000388B000000000020A0FA0020188A0020AAFF4400E1CF1700F470000011
:20582000C7800000A0FA0020E93E0000EF800000D96D0000E76D0000012208B5284B294873
:20584000C3F80028FBF734FE0830FBF731FE0830FBF72EFE0830FBF72BFE00F5F470FBF7F4
:2058600027FE214AD2F88C3043F44063C2F88C300022D30003F57F0303F54043D3F80014F9
:2058800001310AD0D3F8001439B1D3F800140132D3F80434402A0B60EBD1114BD3F8402402
:2058A000CAB1124BD3F840231C2A08D1D3F834230F4B9A429EBF0A4B0E4AC3F840260A4AEC
:2058C000D2F88C3043F44063C2F88C3000220A4BC3F8A02508BDC822C3F84024E1E700BFA6
:2058E0000000125000C50D5000ED00E000C0FF00001D0A1840E0A91E00B0045030BFFFF789
:20590000FDBF00BFEFF30880EFF3098101B57246FFF736FD01BD00BF002080F31488BFF341
:205920006F8F002080F30A8880F30B88FFF784FF00200E490860BFF34F8F0D4880F30888FE
:20594000FFF7F0FD202080F311880A484FF40061401880F30988EFF314800221084380F36F
:205960001488BFF36F8FFFF703FE000094ED00E0A0FA0020A0FA00201EF0040F0CBFEFF341
:205980000880EFF30980816911F8021C0229FFD001B501F01AFA01BD4379012B07D1036865
:2059A000012B04D10079431E5842584170470020704770B50368CD1A002D02DC6FF05F000B
:2059C00070BD93F900601C78002E0ADB5C1C04601B7813600368C91A13688B42EED80020A9
:2059E000EEE704F07F04013C032C2BD8DFE804F0020A1421012DE1D05B781360036802332B
:205A00000360E7E7022DD9DDB3F801305BBA9BB2136003680333F3E7032DCFDD9C785D787F
:205A20002402DB7844EA05442343136003680433E6E7042DC2DDD3F801301BBA13600368AF
:205A40000533DDE76FF06300BAE770B404680E1B002E07DD26789E4208D10134046070BC00
:205A6000FFF7A7BF6FF05F0070BC70476FF06100FAE7002310B51C465AB2914200DC10BDB6
:205A800040F823400133F7E700231A4610B55CB2A14203DCB2FA82F0400910BD50F8234062
:205AA00001332243F3E701234A1150F8220001F01F018B40184070474B1E10B55BB2041D43
:205AC0001A0603D45A1E54F8221071B101335BB283B103F18042013A50F82210002231B9CB
:205AE000013B02EB431210B210BD1346E8E749080132F4E71846F7E7002310B55CB2A242FC
:205B000000DC10BD51F8234040F823400133F5E710B5013A52B2130601D5002010BD50F85D
:205B2000224051F822309C4205D802F1FF32F2D24FF0FF30F2E70120F0E7F0B50024064671
:205B40009C46204665B2654500DBF0BD51F8247052F824303D1AED1AAF4200F0010018BF22
:205B6000002046F8245038BF40F001000134E9E7F0B500240646204665B2AB4200DCF0BD1E
:205B800051F8247052F824503D440544AF4200F0010018BF002046F8245088BF40F001009D
:205BA0000134E9E7002300EB8101884200D3704751F8042D43EA52030B60D307F5E74FF0A0
:205BC000000C2DE9F74F644665464FFA8CF94B4516DC4FF0FF364FF0000806EB430601962C
:205BE000019F53FA88FE4FFA8EFEBE455FFA88F628DB00EBC30040F8044C03B0BDE8F08F73
:205C00004FF0000EF04602EB8C0A51F82E705AF804694FF0000BA6FB076736196F4128BF99
:205C20004FF0010B0EF1010E34464FFA8EF64E453D46D844E9DD40F82C4045463C460CF11E
:205C4000010CC2E7A9460025013676B202EB8E0A77B2BB4205DC40F82E4008F101084C4655
:205C6000BEE76FF00307774351F826C05AF807704FF0000BA7FB0C7C3F195CEB090C28BF55
:205C80004FF0010BE1463C465D440136E0E770B59DF910601D4633460446FFF769FF30B9D9
:205CA000324621462846FFF733FF012807D033462A4621462046BDE87040FFF73EBF70BD44
:205CC00070B59DF910601D4633460446FFF735FF38B133462A4621462046BDE87040FFF75F
:205CE00047BF70BD2DE9F04F1D46A5B004ABCDE902310190294610461746FFF7DDFEC0EB9D
:205D0000851424B22146002CB8BF04F11F01634203F01F0341F3471104F01F0614A858BFC3
:205D20005E42FFF7A6FE002E4FEA81002DDD002214AB18441346C6F1200E9D421AD80126C4
:205D400014AB03EB850300936F1E24AB4FEA45084FEA850903EB8707002C53DA24AB03EB40
:205D600086062A4656F8881C0198FFF7C5FE25B0BDE8F08F57F823C001330CFA06F10A433A
:205D800040F8042B2CFA0EF2D7E714AB2A4639461844FFF7B1FED2E75AF8883C0CF1010C30
:205DA00053F8202024AB03EB800353F8403C0B44D31A34BF4FF0010B4FF0000B9A4218BFDA
:205DC00059465EF8882C42F820304FFA8CF04045E2DB731A5E42294614A85E41FFF7E2FEBC
:205DE00009F190036B4453F8402C57F8403C294643EAC2730098013C47F8403C24B2FFF7B8
:205E0000D1FEA9E74FF0000C24ABC6F1010E614603EB860A03EB8E0ED7E730B505461C4644
:205E200091B0684693F90030FFF7C9FE69462846D4F8AC30984711B030BD70B503680546CD
:205E4000DB07144604D4BDE870401146FFF7AABE13460A460146FFF78BFE06462146284694
:205E6000FFF7A0FE46B104F18044013C55F8243043F0004345F8243070BDF0B50F46064686
:205E8000A1B01946384615461C46FFF7FDFD28B1304621B0BDE8F040FFF7EBBD22463946AD
:205EA0006846FFF729FE294608A8FFF725FE10A82146FFF7DEFD012318A81093FFF7D9FD9C
:205EC0002246684608A9FFF723FE30B92246304610A9FFF711FE21B0F0BD009BDA0709D488
:205EE00021466846FFF75EFE2246294610A8FFF7A4FFE5E7089BDB0707D4214608A8FFF7DA
:205F000051FE2246294618A8F1E7002823461CDD08AA69466846FFF710FE21466846FFF71B
:205F200041FE224618A910A8FFF7F2FD002805DA10A923462A460846FFF71AFE10A9234645
:205F4000084618AAFFF7F9FDCEE76A4608A8FFF7F4FD214608A8FFF725FE224610A918A838
:205F6000FFF7D6FD002805DA18A923462A460846FFF7FEFD18A92346084610AAFFF7DDFD76
:205F8000BFE72DE9F04793F900600446894692B03146104615461F46FFF776FD002840F079
:205FA00095803B464A4649460AA8FFF736FF3B4621460AAA02A8FFF730FF0AAA1146104683
:205FC0003B46FFF72AFF3B462A4649464846FFF724FF07F104083B462A4629462846FFF732
:205FE0001CFF43462A46214620460096FFF74FFE43462A46294628460096FFF748FE4346B6
:206000002A46214628460096FFF75AFE3B462A4621462046FFF701FF4346224621462846DD
:206020000096FFF734FE43462A46214620460096FFF72DFE2368DB074BD533464246214630
:206040002046FFF795FD824631462046FFF7AAFD06F18043013B54F8232042EACA7244F8E7
:2060600023203B46224621462846FFF7D6FE43462946284602AA0096FFF722FE434629469F
:20608000284602AA0096FFF71BFE02A9084643462A460096FFF714FE3B462146204602AAB7
:2060A000FFF7BBFE0AAA4346104621460096FFF707FE324629462046FFF71EFD494628464B
:2060C000FFF71AFD48460AA9FFF716FD12B0BDE8F08731462046FFF765FDC2E72DE9F04166
:2060E0008AB0044615460E461C22002103A800F009FB032395F90080324631462046029351
:206100002F1D2B46FFF789FE3B462146204602AACDF80080FFF7D4FD2B4632462146204689
:20612000FFF77BFE3B4621462046CDF8008005F18402FFF7ACFD0AB0BDE8F081F0B51C466B
:20614000074615460E4689B011466846FFF765FE23466A4639463846FFF75FFE23462A466A
:2061600069466846FFF759FE23466A4631463046FFF753FE09B0F0BD2DE9F0478AB0DDF866
:2061800048A01446564680461D46894616F9047B02463346214602A80097FFF791FD02AA02
:2061A000534611461046FFF738FE53464146404602AAFFF732FE53462146204602AAFFF7ED
:2061C0002CFE33464A46294628460097FFF778FD53462A46294602A8FFF71FFE02A9334654
:2061E000424608460097FFF76BFD02A93346224608460097FFF764FD33464246214620463E
:206200000097FFF75DFD5346224649464846FFF704FE33464146204602AA0097FFF750FD95
:206220005346224629462846FFF7F7FD33464A46294628460097FFF743FD3A46204602A952
:20624000FFF75AFC0AB0BDE8F087F8B50E46D11C48BF911D144641F38701FFF70AFC002542
:20626000671E6AB2A24205F1010500DBF8BDBB1A23F00301B25C03F00303DB009A404358CA
:2062800013434350EDE7F8B50D46DAB100278C1800F12806836E5A1C826615F8011B03440D
:2062A0003F2A83F828100BD93146FAF711FBD0E9083213F5007342F10002C0E908328766F7
:2062C000A542E7D10120F8BDD0E901239A421FBF0268D25C013383601ABF00200A7001206F
:2062E00070470F290346F0B502D94FF6FF70F0BD008820B3002210464FF0800C8A42F6DA4B
:206300001E7B7EB91F88002FEFD05D886C1CA4B25C801D446D7BA742DD7204BF5E801E80B9
:2063200083F80CC01C7BDD7A40002C4280B24FEA540418BF40F001001C730132DEE7012205
:206340001C7B4D1EAA409442CFDB0246D4E790F820302BB1013B042B02D96FF008007047B6
:20636000C38A002B14BF6FF008000020704710B484682468A44610BC604710B4846864687F
:20638000A44610BC604783689B6803B118476FF057007047A8B1D0F8E0321A44B2F5005F9B
:2063A000C0F8E0220BD3D0F8D032A2F5005203F50053C0F8D832C0F8D032C0F8E0220020F1
:2063C00070476FF02000704760B1D0F8C8321944D0F8CC32C0F8C8129942ACBF6FF01F0084
:2063E000002070476FF0200070470020704770B48D68002605F00305032DCB6002D08E6062
:2064000070BC70474D688E60002DF9D0AC4670BC6047038B13F0070305D10368002B0CBF69
:20642000002003207047022B05D1408BB0FA80F0400980007047012B05D10368002B0CBF97
:206440000020052070470020704710B4EFF31182202484F31288BFF36F8F416110BC01219B
:20646000FAF772BB002930B41C4609DB85680C44AC4205D84468C068214430BCFFF777BF52
:206480006FF0150030BC704710B484680A46203C24F00F04A4F13001042310BCFFF7E2BF12
:2064A000002930B41C4609DB85680C44AC4205D84468C068214430BCFFF75FBF6FF01500D4
:2064C00030BC70470029134610B409DB84680B44A34205D8436810BCC0681944FFF753BFEE
:2064E0006FF0150010BC704708B5C0688368DB689847006808BD10B50446FFF7F5FF4FF44A
:20650000C062A368503B02FB103010BD08B5C0688368DB689847407908BD40E800F313F427
:20652000803FD8B208BF6FF01500704710B5431E0A44914200D110BD11F8014B03F8014F9B
:20654000F7E72DE9F74F90F914300446013388469146176811D004F1160A04F2231BB8F1BF
:20656000000F25D0002594F82060062E20D8DFE806F0224F6A762F86940000680DF10701F5
:20658000FFF7A2FE18B1012003B0BDE8F08F9DF807301A0903F00F030333043222756375D5
:2065A000B4F91430B3F5E16FD5D06FF01A00EBE76FF01400E8E701215046FFF792FE4FF63D
:2065C000FF73984222D008B90321A08384F8201094F82030B342C6D17E1B00F08E80206842
:2065E0000DF10701FFF770FE00287DD1E08AB0F5807F00F08480233001222044FFF796FF54
:20660000E38A37460133A844E382A8E73146DDE7AF4207D908215046FFF763FE4FF6FF73A3
:20662000984201D133460BE0E38BC0B25A1C54FA83F3E28383F82301002308F805000135CE
:2066400084F82030C4E700215046FFF74AFE4FF6FF739842E6D000020323A083F0E708213C
:206660005046FFF73EFE4FF6FF739842DAD0A38B1843002301306383A0830523E0E707211A
:206680005046FFF72EFE4FF6FF739842CAD0638B1843013006236083D2E77B1BC2D0628BC3
:2066A00008EB05019A4228BF1A46B4F81CC08818814209D1638B15449B1A9BB2002B63839F
:2066C00014BF33460023BBE7E38BA3EB0C03DBB21BF8033001F8013B94F81EE00BF80E30CB
:2066E000E38B0133E383E3E7D9F80030B3423FF44AAFDB1B2B44C9F80030002044E76FF0A6
:20670000130041E70346C9B20244934200D1704703F8011BF9E72DE9F3410C4607461146A0
:206720000223204601AAFFF790F90546E8B9019E1F2E0ED9202238462368A6F12001194485
:20674000FFF7F4FE236833442360284602B0BDE8F081C6F12008014642463846FFF7D2FFA3
:206760003246216807EB0800EAE76FF00205ECE7F8B50C468B6E0546D1E90821D8001218EC
:2067800041F10001C4E908218022581C38282344A0664FF0000783F8282004F128060AD9FE
:2067A000C0F1400239463044FFF7ACFF31462046FAF78EF8A766A06E0021C0F13802304463
:2067C000FFF7A0FF236A31461ABA636A62661A0A84F8633084F862201A0C1B0E84F860302B
:2067E000204684F86120FAF773F82B1D211F243551F8042F0433100E03F8080C100C03F802
:20680000070C100A03F8060C03F8052CAB42EFD1702200212046FFF775FF0120F8BD10B547
:20682000431E0139013A13F8014F11F8010F01D08442F7D0201A10BD4FF0FF3070470C2256
:206840000369C9B201FB0233186C00F00700704770B5C9B20369EFF31185202484F3128815
:20686000BFF36F8F0C2606FB0134246C14F0C00408D0A24206D085F31188BFF36F8F4FF016
:20688000FF3070BD012271430B441A6485F31188BFF36F8F43680B445B6898470020F0E7A4
:2068A0008022FFF7D5BFF8B5069F0469C9B2EFF31186202585F31288BFF36F8F0C25694315
:2068C0000C44256C05F0070CBCF1010F0BD1276486F31188BFF36F8FC4E90E2343685B58AD
:2068E00098470020F8BD05F0C005AF4286F31188BFF36F8F0CBF6FF077004FF0FF30F1E790
:2069000013B580240094FFF7CEFF02B010BD6FF08500704710B41C240069CBB203FB0400AE
:20692000002110BC1047084611461A4609B1FAF79BBB6FF01500704708460021FAF794BB33
:20694000436800205B68DB680B607047436802EA01005B6821EA0201586000209960704753
:20696000436800205B6859607047436800205B689960704743685A68136821EA03000B409A
:20698000506000209360704710B503695868F8B1884219D19C680868A142586000D1986057
:2069A000002008602AB15A680A609A68596002B99960002010E0814206D10868206098683F
:2069C0008142EDD19C60EBE7044600680028F2D1002AE8D16FF0150010BD43681B68D3F8AE
:2069E0003031704743681B68D3F88004C3F88004704742681368D3F84C0150B10020526AF2
:206A000012780A70C3F84C01D3F84C2101229A6270474FF0FF30704738B50C461546FFF7A7
:206A200075FD2146254411F8013B834203D1A942F9D1012038BD0020FCE738B50C46012305
:206A4000114622460546FFF70DFD00280FDB012221462846FFF7E0FF38B92378012B14BFC2
:206A6000022301230020237038BD0323FAE70120FAE713B50C46C0B201A9FAF773F930B9A0
:206A80002146019802B0BDE81040FAF797BC012002B010BD2DE9F0431D4685B006460F46E9
:206AA0009046FFF721FD6C1E044440420440102C1AD83046FFF72AFD81462A464146684627
:206AC000FFF734FD4946621B0DEB0500FFF71AFE23466A4639463046FFF7E2FC003818BF87
:206AE000012005B0BDE8F0834FF0FF30F9E7042307B5019181680DEB0302203921F00F0185
:206B00003039FFF7C7FF03B05DF804FB012307B5816801AA203921F00F018DF80430FFF7AC
:206B2000B9FF03B05DF804FB00470020FAF7DABC0020FAF749BDF0B504460020012705460F
:206B4000844695420AD1D4F8443133B10023C4F84431D4F8443140F40030F0BDEBB29B00B6
:206B600003F580769B0807FA03F3194208D054F806E0BEF1000F03D044F806C0A65918433B
:206B80000135DEE707B5019001A8FAF7CBFA019B00EB8300D0F8803023F4403343EA0141D3
:206BA000C0F8801003B05DF804FB38B504460D46FAF7ACFDB0B12046FAF7BAFD90B9204644
:206BC000FAF7C8FD012322688340C2F81833236800B203EB8003D3F8102522F00302C3F809
:206BE000102538BD2846BDE838400021FFF7CABF70B5044608461646FAF77EFD083034F857
:206C000010300D46DA0509D5C3F3432304EBC3023146284654F8333052689847A3682BB140
:206C200031462846E268BDE87040184770BD2DE9F04F85B00D46C0B201A91646FAF792F874
:206C400000283CDB019B002B39D0D3E90178D868D5F80090B0B3836802A91B6903AA98474A
:206C6000DDE9020A00231C4619460430B844514502D100202B6012E04FF0000CD0F800E035
:206C800050F8042C944502D301310830EFE7A74211D8A045EDD9994504D86FF00B0005B038
:206CA000BDE8F08F06EBC302A4EB070B46F833B0C2F804E0013374440CF1010CE0E76FF07E
:206CC0001500ECE76FF01200E9E730B50D4685B0044602A90520FFF7CCFEEB79012B0CD0D8
