:20000000C8F000203D6F0000D7790000296F0000296F0000296F0000296F0000296F000014
:200020000000000000000000000000009D6F0000296F000000000000296F0000296F0000EC
:200040009D0A00009D0A00009D0A00009D0A00009D0A00009D0A00009D0A00009D0A000068
:200060009D0A00009D0A00009D0A00009D0A00009D0A00009D0A00009D0A00009D0A000048
:200080009D0A00009D0A00009D0A00009D0A00009D0A00009D0A00009D0A00009D0A000028
:2000A0009D0A00009D0A00009D0A00009D0A00009D0A00009D0A00009D0A00009D0A000008
:200460009D0A00009D0A00009D0A00009D0A00009D0A00009D0A00009D0A000053B94AB9DC
:20048000002908BF00281CBF4FF0FF314FF0FF3000F00CB8ADF1080C6DE904CE00F008F80E
:2004A000DDF804E0DDE9022304B07047704700BF2DE9F04786468C460846089E15467446C3
:2004C0001946002B40F0C1808542B2FA82F245D94AB1C2F1200300FA02FC954094402EFA82
:2004E00003F343EA0C0C4FEA154EA8B2230CBCFBFEF80EFB18CC08FB00F943EA0C439945AC
:2005000028D9EB1808F1FF3704D2994502D9A8F102072B44A3EB0903A4B2B3FBFEFC0EFB67
:200520001C330CFB00F044EA0344A04214D92C190CF1FF3304D2A04202D9ACF102032C4418
:20054000241A43EA07401EB1D440002334607360BDE8F0874746DDE76346F1E792BB431BE3
:2005600001214FEA154EAFB2200CB3FBFEFC0EFB1C330CFB07F840EA0343984561D9EB18A0
:200580000CF1FF3004D2984502D9ACF102002B44A3EB0803A4B2B3FBFEFC0EFB1C330CFB9D
:2005A00007F744EA0344A7424DD92C190CF1FF3304D2A74202D9ACF102032C44E41B43EA6D
:2005C0000040C0E7C2F120039540944020FA03F12EFA03F34FEA154E9040AFB20343B1FBCA
:2005E000FEFC0EFB1C10190C0CFB07F841EA0041884522D969180CF1FF3004D2884502D942
:20060000ACF102002944A1EB08019BB2B1FBFEFC0EFB1C110CFB07F743EA01439F420ED9D2
:20062000EB180CF1FF3104D29F4202D9ACF102012B44DB1B41EA004193E76046E3E76146F6
:20064000F7E76046A4E76346B8E7834206D916B9002108467CE7C6E900E0F9E7B3FA83F768
:200660008FB9834201D3724508D8BEEB020460EB030301209C461EB9002169E73846FAE758
:20068000C6E9004CF8E7C7F1200CBB400EFA07F522FA0CF42EFA0CF1BA401C4320FA0CF3EA
:2006A000B8404FEA144901431FFA84FEB3FBF9F809FB18300B0C08FB0EFA43EA00439A4571
:2006C00040D9E31808F1FF3004D29A4502D9A8F102002344A3EB0A0389B2B3FBF9F809FBD3
:2006E000183308FB0EFE41EA03418E452CD9611808F1FF3304D28E4502D9A8F1020321442E
:2007000043EA0040A1EB0E01A0FB02984145CE46434602D306D14D4504D20138B9EB020E78
:2007200068EB0403002EA7D0B5EB0E0261EB030101FA0CFC22FA07F3F9404CEA0303C6E97D
:20074000003199E74046C5E74346D9E70146F0B550B332B3164E306830BBD1F8C842D1F816
:20076000D8329C4213DA134D05F5C0473B8803F5005C45F8234001339BB2B3F5805F25F867
:200780001C203B8003D96FF01E003060F0BDD1F8CC3222449A42A8BF6FF01D00C1F8C8223D
:2007A000F4E76FF02100F1E76FF02000EEE700BFC4710020C011002008B5134660B172B163
:2007C0000A46D0F8C0120748006806F07AFC002818BF6FF01C0008BD6FF02000FBE76FF00D
:2007E0002100F8E734740020014B1B68184700BF000100202DE9F047058B044628079046F7
:2008000012D4022905F0070540F0CD80204606F0AAFC80B10138218B042800F29F80DFE82D
:2008200000F0C29D657D8D0001290CBF45F0100545F02005258388F31188BFF36F8FBDE850
:20084000F08701F007035A1F012A1CD8002221F00701062B276889B2C4E9002209D13B462E
:2008600003E0628B013262831B68002BF9D141F002012046218306F076FC002800F0A18039
:2008800041F020019CE0042B0AD121F0070189B22046218306F067FC10B141F02001218312
:2008A000218B01F0070AAA4575D00027B946A368002B00F08E8041F00801218388F311880A
:2008C000BFF36F8FA168002900F08C800D68002900F08880334652462046D1F80480C047D9
:2008E000002D48D02B6829461D46F0E7236921F0070141F00601062DD3F80090218335D162
:20090000B9F1000F47D041F00801218388F31188BFF36F8F20463D49C84731E021F0070140
:20092000236941F0040189B2042DD3F804902183E6D000274FF0040A3E46B8E721F0070120
:20094000236941F0050189B2052DD3F808902183D6D000274FF0050A3E46A8E701F0070A30
:20096000AA4518D00027B9463E46A0E700274FF0060A3E469BE72B46B5E7B9F1000FC9D193
:20098000EFF31188202383F31288BFF36F8F238B23F008032383258BEA062ED525F010039C
:2009A000238305F007056669218B002EBFF649AF00232768C4E9003321F0070141F001015C
:2009C0002183218B4FF0000901F0070AAA457FF46EAF002F94D041F00801218388F3118879
:2009E000BFF36F8F002FC8D03D68394633465246204606F0A6FB2F46F4E7AB067FF51BAF0F
:200A000025F02003238305F00705FFE69F710000002318460649D1F89020C2F30722934206
:200A200000DB7047C1F89830C1F8A0000133F6E700ED00E0002807DB01234109034A00F0B7
:200A40001F00834042F82130704700BF00E100E000280CDB01220649430900F01F00824054
:200A6000203341F82320BFF34F8FBFF36F8F704700E100E00028ACBF00F16040064B4FEA41
:200A80004111C9B2ABBF00F5614000F00F0080F800131954704700BF14ED00E0EFF30583D1
:200AA000034A103B02EBC301496852F833000847E0A80000244B254A4FF47A611A6001224F
:200AC000234B2448C3F80424D0F82436C3F30802C3F309434B4382F480721F49883201FB61
:200AE00002334FF4FA215B00B3FBF1F201FB12331A49B3F57A3F28BF0132C1F80429D0F8AA
:200B000020364FF47A60C3F30802C3F30943434342F21C5082F4807202F2172200FB0233B5
:200B20004FF47A701B0AB3FBF0F200FB1233B3F5FA7F4FF0010328BF0132C1F81C270020F9
:200B4000C1F80036704700BFFC0000200020A107002008E000C0FF00F82A00800000125081
:200B6000084B70B5C31A0D4607499B10044659434022064806F033FB2B4601462046BDE855
:200B80007040184748110020B76DDBB658800000402373B50B4C0093041B0B460D460A49B5
:200BA000A41061430646094A094806F043FB011E05DA30462B4602B0BDE87040184702B0BC
:200BC00070BD00BF48110020B76DDBB6A372000058800000F8B50221054640F20510FFF7B6
:200BE00049FF174B1A7922BB164A1A6001221A71154B1B6A9B0603D440F20510FFF71AFFA0
:200C00000024124BC3F840442B69ABB11C222146184607F0E3F901261C220D4F06640761BB
:200C20002D692146A81807F0D9F92046EF62EE64F8BD6FF00400FBE76FF01500F8E700BF19
:200C400040110020E574000000E100E000E010500C9700000A2810B5044603D10D21044897
:200C600000F02EF90248E1B200F02AF9204610BDD88000000048704704970000024B0B6090
:200C800001231360704700BFFC960000024B034A0020C3F80C25704700B004508000008054
:200CA000036803F01F025F2B02604FEA53129ABF024B53F822000020704700BFF0960000FC
:200CC0004209022A034670B503D0012A18D0CAB170BD0E4E326951680029F9D0012503F0E6
:200CE0001F030C689D400029F2D08A682A4002D030464B6898473CB1236821461C46F2E746
:200D0000034EE7E7034EE5E72346F6E79880000078800000B88000002DE9F04F4368027A8D
:200D200085B003EBC2029A4204D86FF0010005B0BDE8F08F5C798C4200F0B1800833F2E703
:200D4000DAF80030C3F3C322082AC3F3080100F2A380414508BF4FF0FF31B3F1D05FBC5C49
:200D60004FEA136210D2192A10D8DFE802F0121C47614A51610F0F0F0F0F0F0F0F0F0F0F88
:200D80000F0F0F0F64787B7E382A71D06FF08500CDE7C9F804164A1C57D10AF1040A5545FB
:200DA000CED10020C3E7C9F80C16481CF5D04FF0000B5A46DAF80030039103F400400028DF
:200DC00018BF002203A818BF4FF0010B01930092FFF766FF0399019B00EB8100D0F88010D0
:200DE000C3F3412C009A230243EA8C03134331400B4343EA4B03C0F88030CEE7C9F81016C1
:200E0000C9E74B1CC9F80016C7D04FF0000B05E0481CC9F80416C0D04FF0010B03A80391C5
:200E2000FFF73EFF0122039B02FA03F38360C1E7C9F80816B9E7C9F860154A1CDAF8003024
:200E4000ABD0C3F30043002BE6D003A80391FFF727FF0122039B02FA03F3436019E0C9F8D2
:200E60006415EAE7C9F86815E7E7C9F86C15E4E703A80391FFF714FF039B00EB8300D0F8F3
:200E8000803023F0E04343F08043C0F880304B1C83D04FF0010B8CE76FF0150047E7D3F829
:200EA00000A01D7940F2FF18D0F80090024F034E0AEB850573E700BF9CA50000F0F0FCFF05
:200EC0002DE9F84304460D46D0F80480EFF30583B3B92A4B1B789BB1294E46F0010664276F
:200EE000DFF8A09063681B68D3F8303193BB264BD9F80000B0FBF3F0B047013FF2D1EEE784
:200F00002021EFF311831A4681F31288BFF36F8F60680068D0F8300120B983F31188BFF339
:200F20006F8FEEE7D8F8243000201D706368D8F824101B68C3F83C170121C3F84017C3F8BE
:200F40003001D3F83001196582F31188BFF36F8FBDE8F883EFF3118320211A4681F31288E3
:200F6000BFF36F8F61680968D1F830110029D9D183F31188BFF36F8FB1E700BF3F800020B5
:200F800000820000FC00002040420F0038B505460221C620FFF76EFDC620FFF74BFD6C6888
:200FA0000121E068FFF7B8FE6B6819686369C1F82435E28BA38BA07E1343228C1343628CE8
:200FC0001343627E9BB20243207E02431343C1F86C3569680B68D3F8002242F48022C3F8F2
:200FE00000220822C3F800254A6A0121C3F83C270022C3F840271965D3F830110029FBD00F
:20100000C3F800252846BDE83840014906F059B96134000070B5EFF31181202383F3128892
:20102000BFF36F8F4FF0FF346FF04040074DD5E90023944270EB0306F9D381F31188BFF3B5
:201040006F8F1046C3F3130170BD00BF40270E5038B5EFF31185202383F31288BFF36F8F59
:20106000124B1B6803BBFFF7D5FF114AD2E90032C01A61EB0201400940EAC1630D4AD2E9EE
:201080000004181844EBE37485F31188BFF36F8F4FF47A71A0FB010547F61222002301FB76
:2010A0000451FFF7EBF938BD0023E7E7387400207801002080010020064BD3F840231C2A50
:2010C00005D1D3F84403431E5842584170470020704700BF00C0FF00054BD3F840031C28E6
:2010E00004D0A0F12F035842584170470120704700C0FF0003689A070CD50368DB070DD5BC
:201100000922074BC3F80C250F22C3F8042501221A60FEE7034B0360EF3B0360704700BF1B
:2011200000801050F000FA5010B50368CB40DB0710D401238B40026843EA0201D0E8EF4F15
:20114000944204D1C0E8EC1FBCF1000FF6D1F2D1014810BD0148FCE70000AD0B0400AD0B35
:2011600001282DE9F341054615BF0420712014220422304918BF4FF48473C1F808034FF03F
:20118000010008BF4FF4807302F1A04202F587121060002203F1A04303F587131A601B68F4
:2011A000FFF79AFF044628B1012D21D1CD600DF1070401E0012DFAD0002342F210768DF8EC
:2011C00007301D4B1B4F43F00108012D20D0D7F84C3403F480336CB93BB1184B1868184B5C
:2011E000B0FBF3F0C047013EEFD102B0BDE8F0811446E1E7D7F84C2402F003022270002B7E
:20120000F3D09DF80730002BE7D0012DEDD106E0D7F80C3403F480332CB9002BDDD10022F2
:20122000084B5A71E1E7002B0CBF012300232370E7D1F4E700E0105000820000FC00002087
:2012400040420F004011002010B5EFF31184202383F31288BFF36F8F074A136823F002016B
:20126000DB07116002D40120FFF77AFF84F31188BFF36F8F10BD00BF98110020012838B58A
:20128000304A0546304C40D0D2F84C14D2F84C34C80322D503F00303012B04D013B10020EA
:2012A000FFF75EFF2B46274A0420C2F8403410224FF48473002103F1A04303F58713196038
:2012C0001D68012502F1A04202F58712156022688AB31C4BC3F804030CE0D2F84834D90787
:2012E000E0D5D2F850349B07D9D423681BB10423C2F8043338BDD2F80831002BFBD000231C
:20130000C2F80831D2F80831F4E70023C2F81031D2F81011C2F81831D2F81811C2F81431FE
:20132000D2F81431FFF7D8FE00B1956000224FF480737120BEE71A68002AFCD019601B682A
:20134000D8E700BF00E0105040110020034A4309D35C00F01F001844C0B270478CA50000D1
:2013600010B504460846FFF7F1FF3C22237902FB0300034B083033F81000C0F3401010BD9F
:201380005010002010B504460846FFF7DFFF3C22237902FB0300034B083033F81000C0F32E
:2013A000400010BD5010002010B504460846FFF7CDFF3C22237902FB0300034B083033F8D6
:2013C0001000400B10BD00BF5010002070B505460846FFF7BBFF3C212A79184B01FB0202D5
:2013E000083233F81200C10526D578240026C0F3432120F4F85023F812002A7904FB02347B
:201400000E3434F8020F10F4807F03D0C0F34320814211D00136232EF3D10020C2EB021290
:201420000A4443F8320078202A79BDE8704000FB02306030FFF778BE70BD00BF501000200C
:2014400070B505461446FFF78BFF70B10846FFF77DFF3C222B7902FB0300054B083033F8AC
:20146000103004485B0B237070BD0348FCE700BF501000200000AD0B0400AD0BF0B50646E8
:20148000002487B0114F019117F8012B06AB03EBD20313F8143C02F00702D34013F00103E0
:2014A00006D10134032CEFD10023184607B0F0BD074A03AD07CA85E8070055F824100A6A11
:2014C00046F824200A62002AEBD0EEE789A50000E0810000124B70B553F82050013053F81C
:2014E0002060AE4200D870BD6C68B4B1237FDB0711D4636953B12046984738B10028B8BF38
:201500004042FF28A8BFFF20E3681870E268537843F0010353700835E3E72B689847FAE760
:20152000C896000001680E4A0346914215D1C169A2F11022A2F1EF1291420ED18268012A40
:201540000BD8C26812B101698A4206D0586928B19B691B1A5842584170470120704700BF5B
:2015600055AA00FF70B50D4B9E68A6B13046FFF7D9FF044678B9F3686BB935690DB920468B
:2015800070BD2846FFF7CEFF28B9EB68B34202D12E462D69F2E70124F1E700BF28100020FA
:2015A0000022074BC3F81021C3F80C21C3F80021C3F80421C3F80821C3F81421704700BFDD
:2015C00000500450C36870B57BB9C36900F128021A60C369454A9A604368C269DB6843F41D
:2015E0008063D360C3691033C361836A9B052FD40368C268DD6800F1EC04302D34BF082679
:2016000010261D6901366B1E1340EB1AB34238BF5B191C44D50004F8015C03F1EB045209CA
:20162000044400F1ED05A5425CD1802280F8EC20426AC469C4322260C26993604468C269FF
:20164000E468D460C2691032C26102691A4402610269C469D31C23F003039B1A54F8042C7D
:2016600042EA032244F8042CC26952F8084C234443F0005342F8083C026A0368DB681160EE
:201680000168026AC96803339160026A23F0030302F1100101620168C96899420BD00021C0
:2016A00011610168026AC9685B1A43F080439360036A10330362836A13F4806311D102681C
:2016C0005169D26891420CD0026A13600268016A5369D2689B1A43F080438B60036A103377
:2016E000036270BD04F8012D120A9CE7040000201B4BD3F80021C2B1BFF35F8F4FF0A341E3
:201700008A6ABFF35F8FBFF35F8F4FF0FF300863BFF35F8F0021C3F80011D3F80031114BD7
:20172000196819680A431A607047D3F80831002BFAD002220C490B689A60096909688903DB
:2017400044BF03F58053DA610022054BC3F80821D3F80831054B1A681A6842F00102E2E7D4
:20176000008004508C010020C801002088010020244B0340B3F5806F2FD017DC402B2ED0B2
:2017800008DC102B2DD0202B2DD0181E18BF012040007047B3F5807F27D0B3F5007F26D005
:2017A000802B08BF0B2018BF02207047B3F5804F1FD00ADCB3F5805F1DD0B3F5005F1CD029
:2017C000B3F5006F08BF0620EDE7B3F5004F16D0B3F5803F08BF0320E5E7112070470A2025
:2017E00070470C2070470920704708207047072070471420704705207047042070470F20E1
:20180000704700BFF0FF01000C22104B014602FB0033002030B4D3E90E529863EFF31180D4
:20182000202484F31288BFF36F8F1C6C04F0C00444F002041C6480F31188BFF36F8F1DB11F
:201840002B4630BC0248184730BC7047481100205880000010B4EFF31182202383F3128802
:20186000BFF36F8F1648016841F002040460C80707D482F31188BFF36F8F012010BCFFF70B
:20188000FDBC1049D1F80C14C903F2D5EFF3118083F31288BFF36F8F0B490B6C03F0C00306
:2018A00043F002030B6480F31188BFF36F8F82F31188BFF36F8F002010BCFFF7A5BF00BF02
:2018C0009811002000E010504811002070B5204CC2B0E36A0546802B1A4628BF80220192C4
:2018E0001BB92075002042B070BDD4F8583201AA02A904F1300098470028F4D1042D2069E9
:20190000019A0FD0019A236A206913442362E36A02A99B1AE362E36898470028E2D06FF06B
:201920000900E0E7236822A998470028F7D1A36A019D02AA2B44A36222AB8542E2D0117818
:2019400013F8016B0130314402F8011BF5E700BFC8710020012337B50546254C0193636B32
:201960002BB1012B29D06FF0040003B030BDD4F85832204801AA0DF1030198470028F4D12C
:201980009DF80330C3F3801203F03F03A3630623E363012384F8402063639DF90330002BD3
:2019A000DDDB0023636394F8403013B1A36B5B42A363A36B00202B60D7E7D4F858320D48F3
:2019C00001AA0DF1030198470028CED1E26B192A0ADC9DF80330A16B03F07F0393400B43D4
:2019E0000732A363E263D8E76FF01800BDE700BFC8710020F8710020F7B5094C0546D4E9DF
:201A0000086701A8FFF7A6FF38B9019B1E44B74232BF6FF008002575E36203B0F0BD00BFD5
:201A2000C87100202DE9F041466807463369002B3AD0782096F81480234D00FB085393F82F
:201A400074408CBB184646222146103006F0C6FA317D1E4A336952F831C021468C4529D149
:201A60000024C3F84441D3F84421C3F30833581CFEF7E0FF7823012203FB085888F8742069
:201A8000C8F86020327D124903FB02529160327D022103FB0255DB20EC60FEF7EBFF022149
:201AA00040F20D10FEF7E6FF3846BDE8F041094905F007BCCAB2920002F58070442A04BF79
:201AC0001C501A580131C9E750100020E0960000C10C00007D73000038B5142200211448F3
:201AE00006F07CFA134B144A144C1A60144B154A00211A6014F003030FBF4FF4006503F216
:201B0000FC75C3F10403E4182A46204606F066FA074B0D4AC3E900452260A2F11022203D33
:201B2000A2F1EF129C606560E261DC60002038BD28100020DC000020292200003F78002046
:201B4000D80000201523000055AA00FF2DE9F34132480DF1060105F061FA304E10B16FF0A0
:201B6000110554E09DF80630A6F5177403F00F0213F0700FA26148D130460DF1070105F017
:201B80004DFA05460028EAD14FF006089DF8077007F03F079DF90730002B22DB2663002696
:201BA0004FF6FF734FF4007231461D48A4F84430666306F013FAB7420CBF07230123194A8C
:201BC000C4E91266C4F85422174AC4E90867A4F84660A4F8506084F85260C4F858222375A7
:201BE00015E030460DF1070105F018FA0028B6D1B8F11B0F0FD09DF8073003F07F0303FACE
:201C000008F31F4308F10708C4E76FF00205284602B0BDE8F0816FF01805F8E72474002005
:201C20001B720020A3700000F974000037B5274C237D082B43D8DFE803F00A0F1A1E2224D9
:201C4000264505006FF017000823237530E0FFF77DFF0028F8DB2BE001A8FFF77BFE002813
:201C6000F7D1019B002B25DD4FF0FF30ECE70320FFF7C2FEEDE70420FFF728FEE9E70520B0
:201C8000F6E70620F8E701A8FFF764FE0028E0D1019D636829462069984768B9A36A2B44AB
:201CA000A362D4E908239A4204D107230020237503B030BD0223F9E76FF00900C4E76FF08D
:201CC0000400C1E76FF00A00BEE700BFC8710020B0F5FA2F70B5144624D2C0F5FA239A4241
:201CE00020D8CAB142F20103104DC5F80035A9B106F069F9BFF35F8FD5F81834DB0706D4C3
:201D0000C4F308041CB10123AB60BFF35F8F4FF40052064BC3F80025002070BDFF2106F03B
:201D20005DF9E7E76FF01500F7E700BF00B004502DE9F7430F4615460446002855D0002AA9
:201D400050D0DFF8AC80D8F80060002E4DD1D0F8C812D4F8D832DFF89C909942D9F80000BD
:201D600039DA06236A46D4F8DC1205F0AAF988B9D4F8DC12BDF800300631AB42C4F8DC1277
:201D800005D1DDF80220D4F8C8329A420CD01A4805F030F96FF01D03C8F800306FF01D0687
:201DA000304603B0BDE8F0832B463A46D9F8000005F087F90028EDD1D4F8DC322B44C4F8C0
:201DC000DC32D4F8C8321D44D4F8CC32C4F8C8529D42E5DBE2E713463A4605F072F9002865
:201DE000EFD0DBE76FF02106DAE76FF02006D7E7BC11002034740020DC97000038B5084B70
:201E00005A78D20709D51C783CB9064D284605F0DFF82046044B1D6038BD6FF01200FBE7A9
:201E200032010020550C0000000100202DE9F84F14461D46FFF7EEF8A042A941C0F0E580F6
:201E4000744ED6E90012641A24F01F0365EB02055B1842EB0502C6E90032EFF311822023A4
:201E600083F31288BFF36F8F6B4FDFF8B08138686409B84208BF002044EAC564684DC8F826
:201E800000409146D5E90021D8F80030A8B3D0E9044C4FEAE37EA3427EEB0C0A05DAE41A0D
:201EA0006CEB0E0CC0E9044C27E0A21841EBE4710023C5E900210022C0E90423D0E90032A7
:201EC00013605A600023C0E9003389F31188BFF36F8F83689847EFF31189202383F3128878
:201EE000BFF36F8FD8F8003038681B1BB8424A46C8F80030C5D1D5E900219A1841EBE37339
:201F0000C5E900230023C8F800303B68BB427ED0002B7CD0D3E90443B4F1004F73F100021B
:201F200075DA002BB8BF0024FFF774F8D6E9002720230125801A61EB0701C4FB03014028C2
:201F400071F10004374C38BF184694F808E038BF002105FA0EFC28BF20F01F001CF0670F16
:201F60004FD0314B5E68F64306F0670616EA0C0F47D04FF000082D4E101847EB010103EB26
:201F80000E0206EB0E1792F85420C7F82C850C2707FB0232276882F814E0D76067681761C9
:201FA0009A6842EA0C029A60EFF31187202282F31288BFF36F8F94F808C01D4A4FEA8C0CE4
:201FC00042F80C80227AC1F31301120102F1A04202F56222C2F82005C2F8241587F311888F
:201FE000BFF36F8F227A883305FA02F2D3E8EF0F1043C3E8E10F0029F8D1237A9D40C6F816
:20200000245389F31188BFF36F8FBDE8F88F6FF0004489E778010020E000002038740020E0
:2020200080010020E80000204000002000200E5000210E5078232DE9F04F6F4C0E460C1B74
:20204000B4FBF3F4D0F81413DFF8B0B1C9B28BB041F400315BF83420009005F0BBF9810343
:20206000054638D50023E7000BEBC404CDE907330993636807A819460193FFF7FFF93B1D01
:2020800003934FF0000A5E4B0DF11C090293029A12F8013B0292039A02EBD3021BF80220F6
:2020A00003F0070322FA03F3DA071AD40AF1010ABAF1030F09F10409E9D14FF40031002228
:2020C000009805F087F9019907A8FFF7D7F90028D7D125F400350124002D76D10BB0BDE8CD
:2020E000F08F484B53440493D9F800100029DDD091FAA1F1B1FA81F1049B1C7841EA4414F9
:202100002046FFF723F9083036F81080C8084FEA98030593012319F8002001F0070103FACA
:2021200001F122EA010209F8002006A80694FEF7B7FD069A059B203250F82220C8F382072C
:202140005B07B846C2F3014223D53046D7B22146424605F09CF906A80694FEF7A1FD069B3B
:20216000203350F82330C3F301439F4207D10021204605F056F93946204605F052F906A820
:202180000694FEF78DFD0122069B02FA03F30362AAE7022A0DD10321204605F042F907F0BF
:2021A0000503012BEBD142462146304605F06FF9E5E702212046059205F033F9032FF2D06C
:2021C000059A032ADBD1022FECE795FAA5F3B3FA83F3009904FA03F225EA020503F5A2728B
:2021E00051F8222006EB43033046B3F86410C2F3014205F04CF96FE750100020E09600000A
:2022000089A5000089A5000001490248FFF712BF5010002000A00D5001490248FFF70ABF37
:20222000C810002000C01050F8B5384E3468F368D4B1B468C4B1002860D000295ED001FB9B
:2022400000F5B5FBF0F0884258D1291D56D8AA070CD025F0030204321C4603E061689142D4
:202260004ED2A469002CF9D12046F8BD2A46F3E7891A232904F120071CD80123A360D4E9F3
:202280000523AAB19361A3690BB162695A610023C4E905333369DB0703D5FFF763F90028A1
:2022A00031D12A46002138463C4605F097FEDBE7F360E8E702F1200C04EB0C032039C3E9FB
:2022C0000110DC6021691248196144F80C00A0F11020A0F1EF10D86101B1CB606169596120
:2022E000A069986141B18B61996901B14B6101212361C4E90121CAE7F360F5E70024B3E78B
:20230000A0680028B4D0012004F05AFE2810002055AA00FF70B50546002840D03B4E33687A
:20232000002B3CD0B268002A39D0834203D872681344984202D3012004F042FEA0F120048F
:202340002046FFF7EFF80028F5D155F8183C012BF1D155F8143C45F8180C0BB39A68FAB94C
:2023600055F81C2C02F120015A680A445A6055E905321A6155F8145C2B6903B1DD60202276
:202380000021204605F02AFE286908B183684BB333699B0703D5FFF7E5F80028CBD170BD8C
:2023A00055F8100C00282AD0836843BB4268636813442033636003692361D4E905239AB99F
:2023C000CBB9436963618269A261B3B19C61A36903B15C61236903B1DC602022002105F069
:2023E000FDFDD5E72C46E1E79361A369002BE8D062695A61E5E7F360F7E7F460E7E7F3680A
:2024000045F8083C03B15C61F460C1E72810002030B50468ACB1B4FA84F30122C3F11F03AA
:20242000DBB29A4024EA0202D0E8EF5FA54204D1C0E8EC2FBCF1000FF6D1EAD102480B709B
:2024400030BD0248FCE700BF0000AD0B0200AD0B2DE9F3410221E420FEF70CFBA94BAA4CDA
:20246000D3F8182722F44032C3F818272278002A40F01D81D3F8101521F00201C3F810155A
:20248000D3F8101541F00101C3F810150521C3F8A4160421C3F8AC160723672101F0010058
:2024A0000244013BD2B24FEA5101F7D1052A40F0FE8019464FF0010C934E00256720CFB22D
:2024C00004E00CFA02F220EA0200013590FAA0F25FFA85FEBE45B2FA82F2F2D30131327523
:2024E0000529224482F8547006F10C06E5D10121002586489A0801FA02F212F0670F18BF56
:202500001D500433302BF5D1E420FEF793FA7D4B0027D3F8102503F5C07322F00202C3F885
:20252000902340F6FF72C3F8A821794A1F60A3F58071043393420F60F8D14FF00108714DA8
:20254000744EC5F860803068734BB0FBF3F05D235843724B43EA080398476368704903EAD8
:20256000080301A8019384F80080FFF751FF6D4B984240F0A3806C4B1F72636823F00103C2
:202580006360A36843F00103A360D5F810359B0700F18D80D5F8103543F00203C5F8103535
:2025A000D5F8482712F0010202BFD5F8483743F00103C5F84837534BD3F84017D3F8441774
:2025C0004F00F9D42AB9D3F8482722F00102C3F84827514A3368B3FBF2F34A4A03EB4313E2
:2025E000002B64D0D2F84017D2F844174D0063D4FEF710FD01224D4B20F01F00C3E9000119
:202600004B49D1E8EF3FC1E8E02F0028F9D13BBB48498A608A684B6002F00302012ACB603A
:202620001ED1CB608A68032A1AD8EFF31185202282F31288BFF36F8F4FF6FF763E48848EA4
:2026400004F00702C48EB44251D0022A3CD10134C48685F31188BFF36F8F1C3004F071FDED
:20266000EFF305821AB9354B1B78002B44D1EFF31182202383F31288BFF36F8F012000250D
:20268000012420272E4B2F4ED3F84CC4D3F84C141CF4803F5CD001F00301012958D1002867
:2026A00077D082F31188BFF36F8F002001E04FF0FF3002B0BDE8F081013B91E7224B9842E3
:2026C000F5D16FF00B00F4E75124D440E4070ED50B60036A43B9C0E9071142B92A46022175
:2026E0001A48FEF787F8BBE719600162F5E785F31188BFF36F8FB3E70421114B1046C3F8BD
:202700000813BCE700200E504000002000210E50B0210E50FC00002040420F00F081000051
:20272000540000200000AD0BE8000020780100204C1000203C100020481100203F8000208C
:2027400000E0105000E100E00200AD0B6411002072B685F31188BFF36F8FBFF34F8F20BFD1
:2027600082F31188BFF36F8F62B6D3F8401411F0FF0189D1D3F808C1BCF1000F84D0C3F8AA
:202780000811D3F80811C3F84044C6F8A0711C617AE70422C3F8042387E700BF2DE9F74FBF
:2027A000904604460846FEF7D1FDD8F800900D4607462679B9F1000F29D02046FEF7E2FD5D
:2027C00038B12046FEF7CCFD18B1684803B0BDE8F08F01A80195FEF763FA019B99F80020BE
:2027E00000EB8300D0F88030614923F00F0343EA8203C0F880303C2303FB0673083331F8D0
:20280000132022F0020242F0010221F81320D8F80430C3B12946204693F80090D3F804A017
:20282000FEF7B0FDA8B1BAF1000FCED13C2303FB06764F4A083632F8163023F01C0343EAC5
:20284000890322F81630D8F80830002B50D14948BCE73C227243DFF818E102EB070C0CF124
:20286000080C3EF81C3023F02003DB04DB0C2EF81C30BAF1000FD9D0B9F1030FA5D8D8F8E8
:2028800004102068496891F800A000EB8A00B9F1000F04D1C0F81095C0F81095C6E7D0F890
:2028A00010B552442BF0030BC0F810B5206843EA4A3300EB8A01D1F810050EEB420220F440
:2028C000473020F47C70C1F8100541F6F070D1F810B500EA051040EA094040EA0B0043F0B4
:2028E0002003C1F81005A2F864502EF81C309DE72946D3E900862046FEF768FDB8F1000F7A
:20290000A5D0782320791A4D4343EA18EB58984504D153689E4201D100220CE0782303FB16
:20292000005001A96030FFF773FD124B98427FF44DAF9DF804203C212379C3EB0313134434
:2029400045F833802379C3EB0313134405EBC3035E60237901FB0373083335F8131041EA98
:20296000422242F4807225F8132070E70400AD0B501000200000AD0B2DE9F04FD50640F2CE
:20298000063548BF4FF00308476802EA05053B7B58BFC2F3401887B001F01F06B5F5837F33
:2029A000144646EA43168DF8028041D00DD8062D40D005D8A5B1022D12D06FF0150034E028
:2029C000B5F5807FF9D101250AE040F202239D4232D0B5F5407F31D0B5F5007FEDD10425C2
:2029E00020032DD501237A688B4053603B6973BB03A80396FEF754F9039B84F4803100EB24
:202A00008300D0F88020C1F30041C4F3404343EA410322F4706243EA880322F00F0243EA3B
:202A200005231343C0F88030002007B0BDE8F08F0925D5E70825D3E70625D1E70525CFE721
:202A4000620341BF01237A688B409360CEE707F11008314640460DF10302FEF7F1FC14F49E
:202A60004039824648D13046FEF770FC3C223B7D554D02FB0303083335F813300446DB0793
:202A80002ED5404604F0E0FC31464046FEF768FC58B14046FEF788FCD7F810B000B20BEB48
:202AA0008003C3F81095C3F8109540463146FEF78DFC3C223B7D03A802FB034400230834F4
:202AC00025F814300396FEF7EBF8039B00EB8300D0F880203D4B134043F00203C0F8803035
:202AE0003B4B9A45A0D1387D3A4B9DF8031003EB8000FEF719FB97E7002301AACDE904237E
:202B0000404603AACDE901330393FFF747FE304B814698427FF451AF14F4003347D0304670
:202B2000FEF714FC3146814640469DF802B004F48034FEF727FC28B94046FEF711FC002830
:202B40007FF43BAF3C223B7D1F4902FB0393083331F8133013F01C0F02D0002C3FF42DAF25
:202B600003A80396FEF79CF8B4FA84F43C22039B640900EB8300D0F8803023F4706323F016
:202B80000F0343EA8B0343EA440343EA052343F00103C0F880303B7D02FB039909F10809A4
:202BA00031F8193043F0030321F8193098E7CDE9043331460DF10203404603AA0393FFF763
:202BC000EDFD48458CD0F8E650100020F0F0FCFF0000AD0BF40000202DE9F041456801F038
:202BE0001F04287B88B044EA40142869002800F0BD80B2F5001F05F1100607D121463046E8
:202C000004F022FC002008B0BDE8F0810027B2F5800F03A80397476054D1B3F1007F14BF50
:202C2000052304238DF80C300023CDE906030593AB680DF10707CB4013F0010F5AD1B2F1FF
:202C4000A07F57D102A80294FEF72AF8029B203350F82330DA074DD43A4621463046FEF7F7
:202C6000EFFB454B984238D004972146304605AAFFF794FD414B98427BD121463046FEF7C6
:202C80006FFB2F69002846D03046FEF77BFB8046002840D13046FEF787FB02B2920002F5EA
:202CA000807347F80380FB582B691344D3F8102542F00102C3F8102501232A698340C2F8C8
:202CC00014339FE7B3F1C06F05D0B3F1007F14BF01230223A6E70323A4E7294B287D39466A
:202CE00003EB8000FFF794FB244B9842BCD06FF00B0088E73A4621463046FEF7A1FB1F4BDB
:202D00009842B2D1287D1E4B9DF8071003EB8000FEF70AFAA9E7D7F8143320469B035CBF70
:202D20004FF40033C7F81433FEF710FB3C222B7D02FB0300134B083033F81030C3F38203D5
:202D4000042B0FD0052B0FD002A80294FDF7A8FF029BC168D94001F001010231204604F01C
:202D600060FB4FE70321F9E70221F7E76FF0850049E76FF0150046E70400AD0B0000AD0B94
:202D8000F40000205010002070B500251E4C1F4ED4F80C3303B970BDB3FA83F3C3F11F0391
:202DA0009A0002F5807292B202F1A04202F58712156012680122D8B202FA03F3DBB2102B91
:202DC000C4F8083311D0402B1BD0042B16D1D4F84C14D4F84C14890710D1C4F84024C4F80A
:202DE00004332261D4F80C33D4E702237371C4F81451D4F814312023C4F804333368984768
:202E0000F0E77571FAE700BF00E0105040110020F7B5284B284CD3F82C6304F188070EB96C
:202E200003B0F0BD96FAA6F00123B0FA80F08340DA43224926EA0306231893F8545083007D
:202E400019440C2303FB0543DB6873B3D7E8EF3F03EA020CC7E8EECFBEF1000FF6D1C3405B
:202E6000DB0719D5020102F1A04202F56222D2F82435D2F82025D1F800C0BCF1000FCED01A
:202E80004FF0000CC1F800C00C2101FB054529690091E9688847C2E705F10C0304EBC30C4C
:202EA00054F83320DCF80430E5E70A68002AB6D00B60B4E700200E504000002000210E501A
:202EC0002DE9F04F82464FF000098DB01D46531E01910393039B58785C1C252819D1002017
:202EE0004FF0FF381E46444603460236029031780396392955D81F2914D8002900F0EF81CD
:202F000001992520D04701993078D04709F10209E0E7002800F0E3810199D04709F1010965
:202F20000394D7E7A1F12002192AE9D801A757F822F000BF9D2F0000012F0000012F000090
:202F40009D2F0000012F00001D300000012F0000012F0000012F0000012F000069300000CF
:202F60009D2F0000012F00007D30000029300000012F0000373000005730000057300000AA
:202F80005730000057300000573000005730000057300000573000005730000008460136FB
:202FA000A5E7582900F0EB80A1F16302D7B2172FA6D8172AA4D801A757F822F02532000048
:202FC000A3300000012F0000012F0000012F000083300000A3300000012F0000012F0000A8
:202FE00083300000012F0000012F0000012F000059310000012F0000012F0000F93100007A
:20300000012F0000A3300000012F0000012F000059310000012F0000833000002520019901
:20302000D04709F1010955E7029A4FF0000802F0FE020292B3E7002C0DDAB8F1000F0DDA84
:20304000029A002A00F043810A2224EAE47402FB0414303CA3E7B8F1000FF5DB0A2202FBA8
:203060000812A2F130089AE7B8F1000F55F8042B80F22F81002A80F22E81544202220292FB
:203080008DE7682903D1682B06D1482387E76C2902D16C2B00F02181002B7FF431AF0B46B4
:2030A0007DE77A2B06D1752955F8046B14D14FF0000B0CE06C2BF6D04C2BF4D1073525F0D1
:2030C0000703752903F10805D3E9006B06D120283BD1854F013C09E04FEAE67BBBF1000FA6
:2030E000F5DA7642814F6BEB4B0B013C0DF12D03059300230493304659460A220023FDF7B8
:20310000BDF9059BB446303203F8012D5A460593049BBCF10A0F8B4672F1000203F1FF31DD
:2031200006460491E7D2C3F1010B30330DEB0306B8F1000FA6F104066DDA029BD9077DD463
:20314000A8EB0B03A4EB0B0413E02B280ABF684F684F04F1FF34C9E770290FD155F8042BE6
:203160000023FAB96FF004034FF0050B614F624E053C029A920770D4A04666E078216C2B4E
:2031800003D1002355F8042B08E04C2BF9D1073525F007031D465B6855F8082B232825D151
:2031A000880621D5554F023C002601F06001A1F1390B0DF12D0E02F00F01092988BF59440A
:2031C00030310EF8011D102A4FEA121141EA03714FEA131C73F1000306F1FF3008D2C6F1AF
:2031E000010B06F13003A1E7454FDCE7414FDBE706460A466346DEE755F8046B304604F038
:20320000CBFEB8F1000F834602DB4045A8BFC3464FF00008374FA8EB0B03002B92DDA4EBFB
:203220000804A6E755F8043B4FF0010B8DF81830304F4FF0FF33013C06AE9AE7A046EAE738
:20324000029320200199D047029BB8F10108F7D524EAE472013C9144A41AB84606E004931E
:2032600002920199D047029A049B9046424612F8010B0028F3D11A46013A15D5002BACBF53
:20328000C7EB03077F425B46013B15D5BBF1000FA8BF5F4426464F44013E14D5002CA8BF6B
:2032A0003F1907EB080915E60493029230200199D047049B029ADFE70293019916F8010B42
:2032C000D047029BE0E701992020D047E4E70122D5E6904663E6144661E64C235FE64846D7
:2032E0000DB0BDE8F08F00BFAB9D0000F7970000F9970000D0A5000001980000FB97000028
:20330000FE9700000FB41FB5002106AB53F8042B044800910393FFF7D3FD05B05DF804EB03
:2033200004B07047E907000005460C4607B5C9B18B682A480093D1E900234521FFF7E2FF4D
:20334000636945210093D4E903232548FFF7DAFF4521E2692348FFF7D5FF4521A2692248C8
:20336000FFF7D0FF012D2DD1EFF3058245211F48103AFFF7C7FFEFF31183202383F3128857
:20338000BFF36F8F1A4B53F825301A4A4521127C194800922A46FFF7B5FF3CB1E369C3F324
:2033A00008031BB145211548FFF7ACFF45211448FFF7A8FFEFF31183202383F31288BFF3F8
:2033C0006F8FFEE7EFF31183202383F31288BFF36F8F042DD6D90B4BD7E700BF1598000031
:2033E000499800007D98000091980000C4980000249700009C110020DC98000009990000B4
:203400002F9900000798000038B5134CD4F89030C3F30723013B984207D9024645210F4892
:20342000FFF770FF6FF0150038BD0D7A0B6805F01F0223F01F031A43CB686D0923F01F033E
:2034400043EA450343F00103C4F89800C4F89C20C4F8A030E8E700BF00ED00E04399000031
:20346000012938B504462FD143680021D868FDF753FC64680021E0682568FDF74DFC082372
:20348000C5F8003594F82C3053B1E2685368127A03EBC2029A4212D845210D48FFF732FF63
:2034A000227A52B9A36AC5F804370123C5F80837C5F84C21D5F84C21AB62002038BD5979E8
:2034C0000029EDD00833E5E76FF08500F6E700BF6E99000010B5244C45212448FFF712FF6A
:2034E000A36A99013ED522484521FFF70BFF1E20A36ADA0104D51F484521FFF703FF1F203F
:20350000194CA36ADB0204D51B484521FFF7FAFE0220A36A1C0304D518484521FFF7F2FEF9
:203520002120114CA36A590304D515484521FFF7E9FE2220A36A9A0304D512484521FFF790
:20354000E1FE2320084CA36ADB0304D50E484521FFF7D8FE2420A36A6FEA03436FEA13430A
:20356000A36210BD1D20C3E700ED00E08C990000A9990000C1990000E09900000F9A0000E2
:20358000329A00005C9A00007B9A000070B5284C06460D4627484521FFF7B4FEA36AD904B5
:2035A0003BD525484521FFF7ADFE1720A36A1A0504D522484521FFF7A5FE18201C4CA36A35
:2035C0009B0511D51E484521FFF79CFEA26BA36A180408D545211B48FFF794FE1EB1A36AC9
:2035E00023F40043A3621920114CA36A590504D515484521FFF786FE1A20A36ADA050ED54C
:2036000012484521FFF77EFE1B20094A936A43F47F43936200232B7070BD1620C6E7A36A24
:203620009B04F2D50A484521FFF76CFE1C20ECE700ED00E0AB9A0000C69A0000DC9A000015
:20364000F49A0000129B00002C9B00004C9B0000699B000070B5294C06460D46284845216E
:20366000FFF750FEA36AD80646D526484521FFF749FE1120A36A190704D523484521FFF7F1
:2036800041FE12201D4CA36A9A0711D545211F48FFF738FE626BA36A1B0608D545211C4821
:2036A000FFF730FE1EB1A36A23F08003A3621320124CA36ADE0704D516484521FFF722FE39
:2036C0001420A36A9C0604D513484521FFF71AFE15200A4B9A6AD10658BF9A6A9A6A920643
:2036E00042BF5A6A22F400525A629A6A42F0FF029A6200232B7070BD1020BBE700ED00E024
:203700009D9B0000B89B0000DC9A0000F09B00000D9C0000289C0000699B00004FF0A53395
:2037200030B5ADF50B5D8BB00DF500540434D0F8E052036001464FF43972204604F043FCA6
:203740004FF40052264901A804F03DFC01AB03F50850EAB223493D3004F035FC2249234D1E
:203760000B7D04F12C0084F83C32CB694FF4047263600B6A4431A36051F81C3CE36051F8EC
:20378000183C2361D1F82032A361D1F81C32636111F8043C84F8283051F8083C636251F89F
:2037A000103CE36151F80C3C2362114C04F00BFC4FF440522968206803F08FFC42F2E42364
:2037C0002968206801AA03F082FC20B10948FFF799FD6FF01E000DF50B5D0BB030BD00BFB8
:2037E0004180002041A00020C871002030740020347400204C9C00004FF0A53370B5044694
:203800000D460A4E03604FF48052306803F065FC4FF4397322462946306803F058FC20B123
:203820000348FFF76FFD6FF01E0070BD347400205E9C000038B5244D0446D0F8D0124FF4DA
:203840000052286803F049FCC0BBD4F8D012286801F50053C4F8D8321C4A4FF4005303F097
:2038600036FC054630B11A48FFF74CFD6FF01E05284638BDD4F8D032D4F8D42203F5005389
:203880009342C4F8D0321CDAD4F8E0221149A2F50052C4F8E022A1F5005004F094FBD4F89B
:2038A000E0220C4904F23D2004F08DFB0A4B2046196801F54051FFF79FFFD9E76FF0220545
:2038C000D6E76FF01B05D3E73474002041800020709C000041A000203074002038B5154630
:2038E0000446002847D0B2F5805F05D9234803F081FB6FF01E0038BDD0F8E03220481844F1
:2039000004F061FBD4F8E0321D44B5F5005FC4F8E0522ED32046FFF701FF1A494FF40472A8
:203920000B7D04F12C0084F83C32CB694431636051F8243CA36051F81C3CE36051F8183C5B
:203940002361D1F82032A361D1F81C32636111F8043C84F8283051F8083C636251F8103CE5
:20396000E36151F80C3C236204F02DFB2046FFF761FF0020BFE76FF02000BCE7829C00000F
:2039800041800020C871002070B5374EADF50B5D364D8AB0044642F2E4233168286801AA23
:2039A00003F08FFB48B13248FFF7ACFC6FF01E0528460DF50B5D0AB070BD316828684FF4CC
:2039C0003973224601F5405103F07BFB05460028E9D1D4F8C032013318D0BAAB03F5E85344
:2039E000D3F8E412D4F8C8221C33914205D1D3F8DC22D4F8DC329A422ED0BAAB03F5E85343
:203A0000D3F8EC22D4F8D0329A4225D1BAAB03F5E8514FF439721C31204604F0D4FA4FF4F1
:203A2000005201A9134804F0CEFA80220DF509511148013104F0C7FA6369002BB8D0A269AB
:203A40009342B5D8D4F8C03203F50073C4F8C0320023C4E90533ABE7D4F8E022802AEBD858
:203A6000044804F23D21E5E730740020347400208E9C00004180002041A0002000232DE909
:203A8000F04F7D4DA7B0C5E99833FEF7CFF80028FBD02C69002C00F0EB80D4F8DC32002B7D
:203AA00040F0AB800A221E46DFF8D0917448B9F8001003929AB2914267D8DFF8C8813246DB
:203AC0007148FFF71FFCD8F8003003F580433344B3F5DA2F5FD8360B06F1010A01266B4FDE
:203AE000D4F8C4124FF48052A1EB063101363868B6B203F0F2FA5645F2D9D4F8C432013EC7
:203B0000A3EB06339A460026DFF880B10093B9F80020B3B29A4244D85D4B4FF4A8221B78C7
:203B2000D8F800100F331B03C4F8C83203F58A23C4F8CC324FF47043C4E9B432C4F8D832E1
:203B40004FF4DA23534A01F54051C4E9B0230023C4F8E032A9F80030009B2046C4F8DC32F4
:203B6000FFF74AFE4FF44052D8F80010386803F0B4FA04234FF4AB21386803AA03F0A7FAFA
:203B8000002865D06FF0240425E030F8022F0133063216448EE74048FFF7B4FB6FF01E04FA
:203BA00019E03E48B2B202F5005330F81330991D019150F82210DBF800000DF11602ADF81D
:203BC0001030CDF8121003F07CFA40B13448FFF799FB6FF01D04204627B0BDE8F08F5146E6
:203BE000019BDBF8000004AA03F071FA013608B12C48D1E7019B9A4489E70223234E049317
:203C00004FF40052D4F8D012306803F066FAE0B9D4F8D012D4F8E032234A306803F057FA08
:203C2000014618B12148FFF76DFBB7E7D4F8E022D4F8D032C4F8E0021344C4F8D0324FF47D
:203C4000AB210423306804AA98E76FF02204C2E7D5F854326E6A2BB934462146144803F03F
:203C6000C9F9B8E71348984704460028F5D1F3E76FF02004AFE700BFC8710020C071002015
:203C8000BE510020307400209F9C0000347400200801002028580500C49C0000C01100202F
:203CA000ED9C0000FD9C0000418000200E9D0000259D0000F87100202DE9F0438046914625
:203CC0000D46ADF5017D29B12A4BDA69D3F86012521ADA610024A8450AD8002C3FD0FFF7D7
:203CE000CDFE3FE0002C26DBFDF7A0FF04461BE0002CF4D1A8EB0507B7F5007F28BF4FF4F0
:203D0000007769463A464846FCF756FD78BB194EF369C6F85CD23B44F361D6E998239A421E
:203D200008BFC6E998740024D6E998239A42D9D1012C08BF0024D9F8C0323D443B44C9F841
:203D4000C0320D4B1B78022BC5D164236B434246B3FBF8F32946094803F04CF9BBE7FFF7DD
:203D60008DFE044620460DF5017DBDE8F0836FF00904B4E7C87100203E780020429D00005B
:203D8000002210B50C4B1C7884420FD001320B2A03F11003F7D16FF0010010BDD268507846
:203DA000C00706D5107820B90B60F6E7DA68002AF4D16FF01200F0E7D08200002C232DE988
:203DC000F3411E4D0F4603FB0055EB682E89D5F820801E440423314640460DEB030203F0AF
:203DE00000FD044620B10124204602B0BDE8F08146F60813BDF804206D899A421AD1BDF8B6
:203E000006309D4201D00324EEE7042340460DEB0302A91903F0E5FC0028E4D146F607134D
:203E2000BDF804209A42EED1BDF806302B4433443B60D9E7002DF1D0E5E700BFC40F002076
:203E40002DE9F0415C4B05465F6800268AB0C7F3080486F31188BFF36F8F02F07F43B3F122
:203E60007F4F07D102F00C03082B14D145215348FFF748FA002635464FF00008E31E8DF8DC
:203E80000780092B00F28380DFE803F00A767A7281818181817E10074CBF0D460126EBE7DB
:203EA00045214748444CFFF72DFA8DF80780E36A9A0705D545214348FFF724FA002432E051
:203EC000E36A002B02DA45213F48F5E7E36A5B00F4D545213D48FFF715FA6369AA6943F44E
:203EE00080736361BFF34F8FBFF36F8F636932F8022C23F480736361BFF34F8FBFF36F8F99
:203F00004DF602739A4208D0A36ADBB213B301200DF10701FFF79EFB2CE045212A682C48A7
:203F2000FFF7F0F92C689DF80730002B41D12022294602A804F047F8099BAEB3C3F30802B2
:203F400022B96FEA53236FEA43230993204602A9FFF7EAF9A36A13F47F4F05D001200DF19C
:203F60000701FFF713FB05E0A36AB3F5803FA5D3FFF7B0FA0446D6E700200DF10701C9E7E7
:203F800000200DF10701ECE74521124894E7124917F4F87F114A124808BF0A46A4F110039C
:203FA0004521FFF7AFF989E723F4FF7323F00103CBE70AB0BDE8F08100ED00E0AD9D000054
:203FC000DD9D0000F99D00001F9E0000329E0000569E0000779E00007F9D0000949D0000EE
:203FE000A09E000010B572B6002484F31388FCF70FFD23464FF0FF300C4A03F120010133EB
:20400000102B42F82100F8D100234FF0FF30074A03F160010133102B42F82100F8D162B65F
:20402000BFF34F8FBFF36F8F10BD00BF00E100E08FB59D4A9D4B22F07F029A60BFF34F8FC3
:20404000BFF36F8FD3F88820994822F47002C3F88820984A0021121A03F0C0FF9648974AD1
:204060009749121A03F0AFFF9648974A9749121A03F0A9FF40F20F14002210B2012101329F
:20408000FCF7F8FCA242F8D10020FDF723FA904B03F5006282F3088883F30A88E022834B49
:2040A000DFF8308283F822200022DA771A765A769A7683F82020596A41F4E021596283F8ED
:2040C0002320596941F010015961596941F480615961596921F008015961102119614FF0CD
:2040E000FF319962D962D3F89010090A11F0FE0F2AD0BFF35F8F7849C3F89420C3F8C01079
:2041000002217648C3F89820C3F89C10C3F8A0000120C3F8980000F10050C3F89C0000F588
:20412000BF3000F5F170C3F8A00088F80010D3F89000C0F30720814217DB0522C3F89420CF
:20414000BFF34F8FBFF36F8F654998F800404E68002E00F085801F2E22D800224521614850
:20416000FFF7D0F86FF015047AE0C3F89810C3F8A0200131DBE72046C3F89850D3F89C204D
:2041800026F01F0602F01F021643C3F89C6003F0C4FA61E04F45EED1E8B203F0BEFA5FE0F8
:2041A000F206DAD10A68D306D7D1104603F005F8164406F1FF390546484602F0FEFF85420B
:2041C0006BD115F1160F6AD0A54268DA374BC3F89850D3F89C00C3F89850D3F8A07020F0FB
:2041E0001F00824247F01F07D4D0013AC3F8985022F01F00D3F8A0204F4502F01F0242EA6E
:204200000002C3F8A0202046C1D003F086FA10F1160FA7D0254B013FC3F89850D3F89C1050
:204220009DF80820013061F304028DF80820D3F8A030009626F01F0637445B08D2B2A7EB29
:20424000090763F3471227F01F076946C0B28DF808200397FFF7D8F810F1160F82D0441C5C
:20426000012088F80040FDF735F90220FDF732F9002383F30B881C4C1C4DA4F5A04686F305
:204280000B8884F3098800201A498847184619461A46A84718488047FEE76FF015052A4630
:2042A000452113485CE700BF0000000000ED00E038010020C4A000204000002038010020D8
:2042C00058B10000400000204000002058B10000C8F0002040800020AAFF4400E1CF0700B0
:2042E00018970000B89E0000C8F00020E5490000E09E0000DB790000E979000030B50D4647
:20430000816887B0102302AA1039044603F069FA002802DA012007B030BD1022204602A9A9
:2043200003F027FB00283FD11022204902A803F03AFE00280CBF012302232B70A1680123BC
:20434000203921F00F0120460DF10702203903F048FA0028DEDB9DF80730204603F00F02D1
:204360001B096A702B7101220DF1070103F001FB10B96B78042B03D901236B7000232B7116
:20438000A2682046203A22F00F02103AA91C03F001FB0028BED1A2682046203A22F00F028E
:2043A000E91C03F0F7FAB6E70323C6E7AC97000030B5816885B0103921F00F04054603F0B3
:2043C00093FA10220146684603F008FE10226846064903F0F8FD10236A462146284603F06E
:2043E00069FA003818BF012005B030BDAC9700002DE9F04F0025DFF8F481ADF2145D044625
:204400000E467B484921FEF77DFFD8F824305B6807932B46079A2F4613449E4205F101056F
:20442000F8D8FCF715FE2A46009049217148079BFEF768FF204603F05EF920B34FF4C0728D
:20444000D8F85C30D8F82860534300225033013E07990A449A4201D2013EF9E7AE4212D898
:2044600057216548FEF74EFF0799079BBA1C73434A4362485721FEF745FF0123E3710DF2A8
:20448000145DBDE8F08FD8F820B05D4F5D4B8BAE3B603246202300215846D8F84C9003F0A6
:2044A000A0F900205A46314602F07CF9282332464FF4AB21386802F004FE00287CD133684F
:2044C000514ADFF848A1934267D10A238AF800300E234FF4AB210B93386804230BAA02F049
:2044E000F6FD002868D14A4802F084FD7168494B01F5AB221960283201F5AD232833C2F38A
:204500000B029A1A444BB1F5005F1A6068D201234248037000929AF80020414802F06AFD4B
:204520006368404A03F0FF23934229D12368012B26D131464846FFF7E1FE3278012A52D0C3
:20454000394B3A49032A08BF0B46F27849210292B2783748019272780092364AFEF7D2FEAA
:204560003378032B0CD1484601F054FE484603F090FA4846A16803F07DFA4846FFF718FF0D
:20458000FCF766FD492102462B48FEF7BBFE6379012B40F097802F468EE00E2B03D10A2386
:2045A0008AF80030A2E70A2B01D10223F8E7022B08BF8AF8000099E76FF024011F4802F0E2
:2045C00019FDD9F80820002A3FF459AFD9F80410D9F80C000DF2145DBDE8F04F02F07DBD25
:2045E000C1F3473394E7164BAFE700BFC40F0020179F0000409F0000779F0000A69F000079
:2046000034740020F88000004E4557503E780020D79F0000BC01002030740020080100200A
:204620004AA0000000010004139F00000D9F0000A5A0000095A00000E6A000000EA000007F
:20464000089F00002168C1F101032B44BB4232D3B14AD8F82430127818683A44013A53F8D6
:20466000322003EBC70353F8083C121A1B1A0129099208930CD1E368022B06D0584601F026
:20468000C9FD2146584601F02DFD484601F0C2FD079B594600935846DDE9082301F04EFD57
:2046A000204601F079FD23680133236018B19B4A136801331360013F002FC3D10123236071
:2046C000032363714FF439720021304603F086FC9AF800300A2B4BD18F4B4FF470411A7873
:2046E00000270F32120302F58A23C6F8CC324FF4A823C6E9B4138A4BDFF828E21F808A4B2F
:20470000DFF82882C3F800E0DFF824E2DF61C3F804E0D8F800E09F62C3F808E0DFF814E2A0
:204720001E61C3F80CE01F75C3F854724FF4DA2C4FF4C8338048C6F8C822C6E9B00CC6F81E
:20474000D812CDE90013CDE903C74FF48C234FF400610290794802F04DFC32463946D8F83B
:204760000000FFF7A9FAB84273DD02238AF80030FCF76EFC492102467148FEF7C3FD714B46
:204780001B78022B40F085800DF50B784046FFF7FBF800285DDB644E6B4A644B32601B68A5
:2047A000634AC6F81080C6E901230023674AF361F260B362D8F8C0223375C6F85432644B4F
:2047C0009A425CDD63480DF12C0A4FF4007352465949006802F075FC00283AD14FF4007341
:2047E0003769C6E99830C6F85CA2FDF7AFF997F83C32824633757B684FF40472F361BB68CA
:2048000007F12C013362FB6806F14400B3623B69F362FB6973637B6AF3633B6AB36397F873
:20482000283086F8403003F0CEFB7B69C6F86032BB69C6F86432D7F8E032B3F5005F03D30C
:204840003846FEF7F7FF8246BAF1000F17DA08233375042363716379042B7FF410AEDFF89B
:20486000B8803D4898F8001002F0C4FB0126DFF8ACA0AE4215D9012323606371FFE5D8F8D3
:20488000C0122A4BA1F5AB21424618682839FFF713FAFCF7DDFB492102463048FEF732FDEA
:2048A000D9E72168B14234D82D4B98F800205B6A3244013A186853F8327003EBC60353F8A3
:2048C000083C0129A3EB0003A7EB000708930CD1E368022B06D0584601F09CFC214658464E
:2048E00001F000FC484601F095FC079B3A46594600935846089B01F021FC204601F04CFC79
:2049000023680133236020B1DAF800300133CAF800300136ADE700BF08010020C0010020C8
:20492000C07100204D070000C8710020BC0100201D710000E97000002858050013A100007C
:20494000A5A100003E780020311D0000DD3800002758050034740020EFA10000CAA1000091
:20496000C40F0020002273B50446CDE9002202F0C2FE28B3174E184D3368AB4203D11046CF
:2049800001A9FFF71BFAF36AAB4203D169460120FFF714FADDE90032934288BF0193019B2C
:2049A000A36020460199FFF723FD0C4B1A68002A03DD57210A48FEF7A5FC002002B070BD9C
:2049C00001F0D6FD04F1080102F068FFA3680193E7E700BFC40F00203DB8F396C00100203E
:2049E0004EA2000001252DE98048B54B8FB003201D70FCF76FFD0420FCF76CFD4921B14892
:204A0000FEF780FCB04C60220021204603F0E6FAAE4B0220636204F1200103F580632365F4
:204A2000FFF7AEF908BB052004F14C01FFF7A8F928BB80260220626A0AA90A9602F087FED7
:204A4000F8B132465721A248FEF75CFC012384F858308DF82F3094F85830FF2B40F0BB81D0
:204A600045219C48FEF74EFCFEE700250222CDE90050002345219848FEF744FCFEE70522CF
:204A8000F5E70A9B0520226D0AA9A3620A9602F05EFE78B1324657218D48FEF733FC84F8AD
:204AA0005850002001F086FD804650B1002257218A48C9E70A9B206A636502F00EFFE0659C
:204AC000EFE701230A9303F10123CDE90B300D9006A9206AFFF712FC9DF81820012A00F074
:204AE000A6807F4B7F49032A08BF0B469DF81B20492102929DF81A207B4801929DF81920F8
:204B000000927A4AFEF7FEFBE06C08A9FFF7F6FB9DF82020012A00F08C80714B7149032ACE
:204B200008BF0B469DF82320492102929DF822206D4801929DF8212000926D4AFEF7E2FB77
:204B40009DF81830012B76D19DF81A30032B72D19DF82030012B6ED049216648FEF7D2FB8C
:204B60000223276A0D933B78022B40F09B803846E56D02F0B2FE40F27F134FF4C079BE68DC
:204B80005FFA85FA503E03FB0A664FF0FF35012309FB10669B4631460123384608AACDF8BF
:204BA000109002F01EFE031E09F1FF3905937CDB0122384608A902F0DCFE059B002878D0D7
:204BC0005B4501D008F10108A6EB0A06B9F1000FE0D1B8F1010F03DD45214748FEF792FB47
:204BE0006A1C08D07F2D00F3918040F2011301350A95ADF82C30B9680123203921F00F01CC
:204C0000384608AA203902F0ECFD00284DD10122384608A902F0ADFE10B101238DF8203041
:204C20009DF8203003F00F038DF82F3009E0334B5CE7324B76E749213148FEF763FB0023C9
:204C40000D939DF82F309DF82D2000930A999DF82C302C4802F0CEF90AA802F04CFD002875
:204C600069D10AA8FFF77EFE9DF82F3084F85830033B012B05D803F076F910B1FF2384F8D6
:204C800058309DF82F30023B022B4CD803F054F9002848D0FF2384F8583045210D48FEF7B4
:204CA00031FBFEE7052B3FF462AF002257211648CAE6049AB5F1FF3F08BF154684E700BFF9
:204CC0003F8000207DA20000C40F0020C4070020E3A2000021A4000096A2000025A30000AE
:204CE000139F00000D9F0000A5A0000051A3000095A000005FA3000095A30000089F000007
:204D00007EA30000E2A30000B8A300000223803D8DF82D306B1005F00105013301350A9351
:204D20008DF82C5067E794F85830FF2BB5D00AA801F040FC8AE69DF82F60012E30D101F0CD
:204D4000A5FC831E022B054611D830460AA902F07FF8B0B9E8B284F858008DF82F0001286A
:204D600027D83FF478AEFF2384F8583073E6C0B2042884F858008DF82F00F0D9052807D069
:204D8000F1E7012807D0052384F858308DF82F3003F0E9F81CE084F858008DF82F005AE693
:204DA00001200AA902F054F80028ECD19DF82F00DEE70AA8FFF7D6FD94F85830023B022B7A
:204DC0003FF649AE03F0CFF80028CCD103F0B4F80028C8D13FE60020012B08900CD10021C1
:204DE000084602F035F8054650B9089B01330893089F012F0ED0FEE701F0DCFB0028EED038
:204E0000102200210AA803F0E9F845216948FEF779FAFEE7236A014610220AA8D3F804804E
:204E200003F0DCF8492142466348FEF76BFAE38A49210093637D227D6048FEF763FA492167
:204E40005F48FEF75FFA228967234244DFF87481AA46D8F804405C4EE443DFF87091326097
:204E600004F06704C9F82833002C40F082804FF001094FF0FF37E420FBF7EAFD534B544D7F
:204E8000D3F84827C62022F00102C3F84827D3F8102522F00102C3F81025D3F8102522F09C
:204EA0000202C3F81025C3F86490C3F8689088F80040C5F80873FBF7CBFDC5F82C90C5F8B4
:204EC0005041D5F85031C5F84C41D5F84C31C5F82441D5F82431C5F8004505F578354FF42F
:204EE0008270C5F80873FBF7B3FDC5F82C90C5F85041D5F85031C5F84C41D5F84C31C5F880
:204F00002441D5F82431334BC5F80045C3F80873BFF36F8F72B623462F4A03F12001013351
:204F2000102B42F82170F8D14FF0FF3104F160030134102C42F82310F8D10024274BC3F8E3
:204F40000444FBF765FD84F30B8884F30A8833681B6883F3088884F31488BFF36F8FBFF309
:204F60006F8F33685B68984745211D48FEF7CAF9FEE7D8F80830E9B207FA01F202EA030008
:204F800010F0670F13D023EA0203C8F80830D8F80430DB4303F06703134208D009EB0113FA
:204FA000C3F82CA5E30702D50E48FCF7BDF86408013559E72DA4000050A400007FA40000DC
:204FC0009DA40000400000202410002000200E5000600C5000E0105000E100E0002008E099
:204FE000C2A4000044000020012208B5444BC3F80028FCF771F810B1424BC3F80C24424876
:20500000FCF778F80830FCF775F80830FCF772F80830FCF76FF800F5F470FCF76BF83B4A3A
:20502000D2F88C3043F44063C2F88C300022D30003F57F0303F54043D3F8001401310AD0C5
:20504000D3F8001439B1D3F800140132D3F80434402A0B60EBD12A4BD3F840242AB3FCF76D
:205060002BF848B12A4BD3F834232A4B9A429EBF234B294AC3F84026FCF71EF818B1274B89
:20508000274AC3F8AC27224BD3E9D0231C2A10D1012B10D134221A4BC3F82426D3F83C26D4
:2050A00022F40022C3F83C2605E0C822C3F84024D5E72F2AECD0FCF70FF840B1194BD3F8C2
:2050C0000026D20744BF6FF00102C3F8002603236FF0F801144AC2F81835144BC3F8081571
:2050E0006FF0FF01C3F80C150849D1F88C3043F44063C1F88C300023C2F8A03508BD00BF1A
:20510000000012500030055000C50D5000ED00E000C0FF00001D0A1840E0A91E00A00850DC
:2051200078000A0400E0105000B0045000F00C5010B50A46044620B119B1054B00211B686B
:205140009847044B2046BDE810401B68184700BFD4000020D80000202DE9F043044600277F
:2051600093B00DF11F05DFF8748025F01F05102201231B4911F8010D013A03440B704FEABF
:205180001323F7D1E81901F003F9A946064600BBD8E90C321037013342F10002302FC8E96E
:2051A0000C32E4D154B104F1300299F8003014F8011B4B40A24209F8013BF6D120222946C3
:2051C000064802F000FF1022064805F1200102F0FAFE304613B0BDE8F08300BF38010020A6
:2051E0006801002058010020074A1368591C11604BB9064A4820D2F8003443F00703C2F84A
:205200000034FBF717BC7047C40100200080045010B5124B1C68013C1C60ECB94820FBF7C7
:2052200017FC07220E4BC3F80823D3F8002422F00702C3F80024C3F80041D3F80021C3F867
:205240000441D3F804214FF48072C3F80841D3F80831044BC3F8882110BD00BFC4010020B8
:205260000080045000E100E010B51E4C4368B4EB132F4FEA132215D142691B4B9A420CD0C1
:2052800003F5FF437D331344012B03D80388B3F5105F1DD06FF0860019E047F21213028871
:2052A0009A42F6E7114B9A42F4D1028802F44F43B3F5824F0ED1438844F2121007338242AD
:2052C0004FEAD30301D15B00013300200B6010BD0223FAE7B2F5885FFAD143880733DB08BF
:2052E000F3E700BF004E800001C0FF7F4B4E800008B5FCF755F901230360104B0A6832B9B2
:20530000D3F80C211AB9D3F80821002AF6D00B687BB90B4B99420ED0A3F58473D3F8083195
:20532000002B0CBF4FF0FF306FF00200FCF738F908BD0020FAE74FF0FF30F7E700500450CE
:205340000851045010B50446012001F007F9064B0649C3F800450648FFF7CAFF0446002068
:2053600001F0FCF8204610BD00500450085104500850045038B5064D0C46C5F80005054976
:205380000548FFF7B5FF10B9D5F80835236038BD00500450105104500C50045040292DE943
:2053A000F04104460E462FD80378033303F00303012B21D86FF0210002F0CBFB054640B9CC
:2053C00013493246204602F0FEFD4021104802F01EFC2846BDE8F081637838462B44C8F8D5
:2053E0000035FFF785FF68B901352378C3F382039D42F1D30020DFE70025DFF81880064965
:20540000064FF2E70220D7E76FF08905E1E700BF00000020005004500451045004500450F5
:205420002DE9F7438846DDE90A791E46A84953681446B1EB132F05464FEA132203D0A54B41
:205440009A4240F04281A44BEB1868F10002032B72F1000249D2A14BEB1868F10002022B0B
:2054600072F100029E4B1ED39E4A01A8C4E900239D4BE3604FF47053019302F03BFB019B03
:205480000146A3602046FFF7EFFE48B9019B9F4202D26FF0890003E0C9F80030002070706B
:2054A00003B0BDE8F083914A01A8C4E900234FF00823E3604FF44043019302F01BFB019B22
:2054C0000146A3602046FFF7CFFE0028E8D1019B9F42DED3C9F80030854B804508BF9D421E
:2054E00014BF012302233370D8E76946284602F0BEFB0028D4D1B5F1F80348F1FF38022B5B
:2055000078F10008C0F0D28002F08DFB0028C7D19DF8001011F00F0240F0CB80BDF80230C5
:20552000C3F3C113013BDBB2022B00F2C580714801F03001C05C704B102943EA00036360D6
:205540002CD16E4B2360204601A9FFF78DFE0028A6D1019B9F429CD344F212122188914220
:2055600004BF042206F8012BC9F800309DF800303278C3F3011363F3010232709DF802203C
:2055800008BF07F1FF37C2F30212042A009B68D8012A6AD870D06FF0980081E71346904609
:2055A0009DF803105648490899B901A8CDF8048002F0A0FA9DF80220019902F00F03033BF1
:2055C000A160072B7ED8DFE803F0307D0F7D7D1D2226CA0705D5062B71D850F8232048EA8B
:2055E000020849080133DFE74FF410534549C2F30212013A2380E160032A1CD8DFE802F060
:20560000192A2C2E4FF410534FF00821EFE74FF410533D49EBE711F4A05F47F2421144F245
:20562000421318BF0B463949E1E74FF410533849DDE7802262809DF8002012F0300F82D1EB
:20564000B3F5105F03D118F0030F3FF47CAF6FF0960025E7C022EDE7FF22EBE74FF4807208
:20566000E8E7052A97D1032206E044F2121122888A4214BF0222042203F03003202B00D18B
:2056800002323378757062F384033370238803F44F42B2F5824F04D139463046FFF77EFEE0
:2056A000FEE6B3F5885F7FF4FBAEF5E76FF08600F6E66FF08800F3E66FF09100F0E66FF0D9
:2056C0008300EDE66FF09200EAE66FF08B00E7E6004E80004B4E8000FF3F0080FE3F00809A
:2056E00003004E8012710001090600060024000103C0FF7F86A50000004B4E800110800104
:2057000090830000004440040002C0030008000600025005BFF35F8F4FF0A3430022DA61A2
:20572000BFF35F8FBFF35F8F4FF0FF321A63BFF35F8FBFF35F8F3422DA61BFF35F8F0122A8
:20574000014BC3F80423704700800450EF2938B5044624D903681D6815F0400522D1FFF721
:2057600043FD01212176FFF7D5FF104B2846636023680F4A1B68C4E90355A36204F12C0345
:20578000236204F128036362E3671323C4E9212304F18C03E361074BA160636138BD6FF0FB
:2057A0002200FBE76FF00200F8E700BF8083000004000020C5150000014610B5164C0B6903
:2057C0001B68980302D4204601F082FE0B691A680B6812F4003216D003F58050406A10F401
:2057E000A02F14BF012000200028E8D132B103F58052526AD1070AD492070AD4BDE810405A
:20580000D868FBF7B5BFD868C0F30040ECE7082010BD0220FCE700BF8801002010B5154B55
:20582000186D28BB1A684FF0010C91690824C1F30B02482A5A6528BF482211F4003F9A6586
:2058400008BF0022DA65CA0358BFC3E9150001F47002B2F5700F08BF986D0029B8BF002260
:20586000C3E919C4B8BFC3E91922012298651A65014810BDC8010020180200202DE9F04F14
:20588000874DA1B06A780DF17709022A2B7829F01F0901D1072B63D013F001044AD1DFF842
:2058A00004A2DFF804B2DAF800205A453FD0FFF79BFC7E4B01211C607D4B48201C607D4AAE
:2058C000FBF7D8F87C4B7D4952F8040B43F8040B8B42F9D100237A4CE3667A4B236003F5CD
:2058E000C0436360FFF79AFFA8B1636DF820B3F5007FCCBF4FF480634FF400730AA9A360CE
:20590000FFF738FD88BBF9200AA9FFF733FD60BBFFF77EFC08E00E2002F01BF90446FFF740
:2059200077FC002C40F022812B78CAF800B043F001032B702B789E0706D40121624A43F0EB
:20594000020382F880152B706A782B781AB9DC0744BF02226A7058075CBF43F004032B700D
:205960000024204621B0BDE8F08F584ED6E90C3213432BD0D6E90C32023342F10002B2F5A6
:20598000803F4CD220270DF12808102F39464FF0100228BF102101234D4810F8014D013A44
:2059A000234403704FEA1323F7D14846019100F0EFFC044670BB0199002F48D1D6E90C3287
:2059C000013342F10002C6E90C32DEE7B26B414B9A42D7D000231A46F2540133402BFBD14C
:2059E0000AA800F033FC80B90AA8FFF7B5FBA0B9034602460AA9CA540133302BFAD100230D
:205A00000122C6E90C23334BB36302F0A2F804460028AFD0FFF7FCFBA8E00E20F5E70AA843
:205A200000F014FC80B90AA8FFF796FB04460028F0D103460AAA13550134302CFAD10022DE
:205A40000023C6E90C239DE76FF09204E2E74A4608EB010312F8010B08F8010B4345F9D108
:205A60009846D6E90C32013342F100027F1AC6E90C328AD13846FFF76FFB04460028C9D117
:205A80004FF4807303A8039302F034F8039E02F0CAF8044600B320210AA802F0B8F8B9E7EA
:205AA000BC070020D0000020117365008C01002088010020AC83000000C080511CD3805154
:205AC000C801002000208051380200203801002068010020B4A5B4A50422394602A802F0BD
:205AE0007DFA9DF8083016F0030223F03F038DF8083040F0F48039464FF0010C9DF80B3006
:205B00007B485B0850F8044B264206D00CFA07F10B43012103F07F0322430137072FF1D112
:205B200029B19DF80B1063F347018DF80B1036EA020440F0D780BDF80A30F82023F4F87367
:205B400043F0C00303A9ADF80A30FFF713FC28B1F92003A9FFF70EFC002839D120210AA8FC
:205B600002F055F86FF08A04FFF752FB2B785F0700F1BB8043F0010399072B7019D55D4E76
:205B80000027B0464FF0010A4FF003093046C6F820A086F81C90013701F089FF202F06F13E
:205BA0002C06F3D1002388F880352B7823F002032B700021504B04221B6869704F4898478D
:205BC0004F4B2B78DA0744BF23F001032B70C8E618222146012703A802F000FA4FF602039A
:205BE0004FF0FA08DFF81C9138460993079700F0B5FC03ABC9F8008548464349C9F804357F
:205C0000FFF776FB0646204600F0A8FC46B120210AA801F0FCFF6FF09204FFF7F9FAA5E797
:205C20001C22314603A802F0D9F9384B042202A909A8089302F0C7F9BDF80A301022C3F317
:205C4000C1130AA903A8079302F0BDF9384600F085FCF823C9F8003503AB48462A49C9F860
:205C60000435FFF745FB0446304600F077FC2CBB1C2103A801F0CBFF4FF0FF33DFF890C070
:205C80001022CDE908C3BDF80A300EA9C3F3C11303A8079302F097F9384600F05FFCF92375
:205CA000C9F8003503AB48461749C9F80435FFF71FFB0646204600F051FC16B101F0B3FFEF
:205CC000A5E703A81C2101F0A2FF4046FFF73AFB00289CD120210AA801F099FF18E66FF09F
:205CE0008604D8E66FF08504D5E623F0040341E79083000038020020D4000020C00700202F
:205D0000BC0700200050045000510450400081515000815138B50E4D0446C5E90415FFF7D4
:205D200063FA04220B4B0C49C3F804232B68DA68D20309D403F580535B6A13F4A02303D19E
:205D4000C4E90053204638BD084601F0C1FBEDE7C801002000800450880100200422054B3D
:205D600010B5C3F808230446FFF752FA00232361A36410BD0080045037B56C46054600684C
:205D8000FFF7ECFF20460D49FFF7C4FF94E8030085E80300002100F04DFB0446686050B94A
:205DA000286801F0DDFF2868FFF706FD044610B92868FFF7D3FF204603B030BD0882000002
:205DC00008B5244B1B789BBBBFF35F8F4FF0A343986ABFF35F8FBFF35F8F4FF0A343DA6B3D
:205DE000BFF35F8F10F0240F02F0230226D0BFF35F8FDA69BFF35F8FBFF35F8F10215963B3
:205E0000BFF35F8FBFF35F8F00215963BFF35F8FBFF35F8FD96BBFF35F8F4906F8D422B153
:205E2000BFF35F8FDA61BFF35F8F6FF01F0008BD094801F04DFB0028CDD1C5E74FF0FF303A
:205E4000002AF4D1BFF35F8F1863BFF35F8F1046EDE700BF3F8000208C010020BFF35F8F83
:205E6000094A1368BFF35F8F43F48071BFF35F8F1160BFF35F8F23F48073BFF35F8F1360BE
:205E8000BFF35F8F704700BF0010805102480B1A58425841704700BF000800062DE9F0419E
:205EA0001E465A4B0F460360F02104469046FFF74DFC054688B9237E57F8252058F825007B
:205EC000002B00F0A08048B3A368062B08D904F1180001F0E7FE6FF044052846BDE8F08160
:205EE000B0F1807F06D304F1180001F0DBFE6FF03F05F2E7E3691A60E36998606268E369B6
:205F0000D268DA60E3691033E361236903442361E3680344E360A3680133A3600135AE42A6
:205F2000C9D1237E002B6ED0D4E903239A4204D02268A36A52685340A36263690699204670
:205F40009847E36904F17C02A3F11001914252D8012243F80C2C53F8042C42F0200243F861
:205F6000042C53F8082C42F0005243F8082C236A04F12C02A3F11001914240D8012243F8E1
:205F80000C2C53F8042C42F0200243F8042C53F8082C42F0005243F8082C636A03F1540206
:205FA000BFF35F8F4FF0A3431A60BFF35F8F626A0432BFF35F8F1A61BFF35F8FBFF35F8FA5
:205FC00003225A63BFF35F8FBFF35F8F9A63BFF35F8F4FF0FF3504F118066B1C7FF47DAF56
:205FE000237E83B1FFF7ECFE421C0546F8D0304601F058FEF1E7103242F80C2CA6E7103263
:2060000042F80C2CB8E76FF0200566E7749700002DE9F0431D46314BD9B0CDE90601CDE96F
:206020000435222120230DF13008CDE90813CDE90A3207460323CDF8008009AA05A91CA8CB
:20604000FFF72CFF0446002843D1FE7FEB7FF609DB0923494FEA467602A818BF46F08046F1
:20606000FFF758FEDDE902949CBB314648461CAA01F0D8FE044660BB202241461C9801F0BC
:206080001FFE20221D9814A901F01AFE1E9C20222046394601F014FE2022FB7FA91803F0D2
:2060A0007F03E3771F9801F00BFE209C20222946204601F005FEEB7F484603F07F03E377C5
:2060C00001F04EFE4846FFF777FB04464846FFF745FE204659B0BDE8F08300BF090100200C
:2060E0003897000030B50D46134B85B0044602A9D86CFEF703F9EB79012B0CD08DF80730B4
:20610000A3682046203B23F00F010DF107020123203901F082FC9DF80B30012B02D1204668
:2061200001F0B7FCA968204601F0A4FC2046FEF73FF9002005B030BDC40F00202DE9F84F0E
:2061400006460F46904699460024DDF828A0DFF844B0A24501D800200FE0AAEB0405B5F546
:20616000806F28BF4FF4806530462B46094A04EB080101F036FB10B10120BDE8F88F2B464E
:206180005A46384604EB090101F094FB0028F3D12C44DEE73C740020F0B51D4F05463E6A73
:2061A00085B0304601F099FB4FF4C0736A795843012AFB6D04BF00271946B4682A79A4F18B
:2061C000500402F1FF3203FB02441CBF5900DF012B68241A013B30463C4401FB034401F0B8
:2061E0007CFB0746304601F07FFB10220146684601F0F4FE2B796A468DF8003021463B46FF
:20620000304601F057FB003818BF012005B0F0BDC40F002038B50C4B0546DC6D01F05DFB1F
:20622000844203D2284601F058FB04464FF4C0726243A96864425032224001232846891ADD
:2062400001F059FBC00F38BDC40F0020F8B505464B4C4C4EFEF7C8FFFFF700FEBFF35F8FC9
:20626000E368BFF35F8F9B08013BBFF35F8FA360BFF35F8FBFF35F8F00232364BFF35F8F27
:20628000BFF35F8FF1226264BFF35F8FBFF35F8F4FF400726263BFF35F8FBFF35F8F266005
:2062A000BFF35F8FBFF35F8F226BBFF35F8F5108C2F34202052A5AD011F0060FF2D02BBB08
:2062C000BFF35F8F6268BFF35F8F032AEAD92E4B2B4F2E4ABFF35F8FD7F88010BFF35F8FBA
:2062E000BFF35F8F43F8041BBFF35F8F9342F1D1FFF7B4FDBFF35F8F3B68BFF35F8F43F0B0
:206300000103BFF35F8F3B60BFF35F8FBFF35F8FA368BFF35F8F01331B012F2B2AD9BFF3F4
:206320005F8F6368BFF35F8F9B002F2B25D9BFF35F8FD4F88030BFF35F8F3024104A291D61
:2063400005F8013B8D424FEA132304F1FF3405D0002CF5D1FEF75CFF2046F8BD002CF9D077
:20636000BFF35F8FD2F88030BFF35F8FE7E7FEF74FFF6FE76FF03F04ECE7012392E700BF2B
:20638000001080510100040010108051201080514FF4807310B592B0019301AB06931123DB
:2063A000204A2149CDE908230AAB079340F611021E4BCDE90C120A9320330E9321230EAAC6
:2063C0000B921B4A0290CDE910230123CDE903320F9320230593FEF707FFFFF79BF9BFF37D
:2063E0005F8F4FF0A34306AA1A60BFF35F8FBFF35F8F02AA1A61BFF35F8FBFF35F8F032294
:206400005A63BFF35F8FBFF35F8F9A63BFF35F8FFFF7D6FC431C0446FAD0FEF7F9FE204655
:2064200012B010BD040000202000002038010020100000202DE9F843036904469D681B6851
:206440004668B3F5003F0BD10023E364FFF7E6F90369002B48D12046FFF780FC122041E0B1
:20646000C76C002FF2D1DFF8DC90D9F84034012B1CD0B723DFF8D08034493548C8F8003567
:20648000FEF736FF50BBB82330493148C8F80035FEF72EFF10BBB9232C492D48C8F800355D
:2064A000FEF726FFD0B90123C9F840340121294A136803F580539962002199625968C8065F
:2064C000FCD488060AD4D96A012199601960596801F02300490727D40028F8D02046FFF73D
:2064E0003DFC0120BDE8F8834168E36023691A68236822F0FE02920503F58053920D1A620E
:2065000023691B68D80048BFE368284644BFCB1AF61800230028E5D0C20742BF9A00166004
:2065200001330E444010F5E7DB6AC3F38123032B01D00949CF561766022223689A6001234A
:2065400083E700BF00800450005004500451045004500450C8010020C4A80000034BC3F8EB
:206560000005D3F80024D207FBD5704700B004501FB50D4B6A461C6A1023A1682046103976
:2065800001F02FF9034640B1227845210748FCF7B9FE0024204604B010BD10226846044977
:2065A00001F001FDF6E700BFC40F0020A5A50000AC9700002DE9F341DFF8C880064647468E
:2065C00040B10024304601F096F828B123461C46002122E00346FAE7FFF7CAFF20B101A986
:2065E00001F05CF9054630B10120012C00D1002002B0BDE8F0817B6A019A596803460B4449
:206600009A4205F10105FAD87379012B16D134BB32682346AA4298BF21462C2202FB037572
:2066200020234246286A01F0DCF80028DCD1D6B9012CDCD0012308F12C08C8E7022BC5D138
:206640003368012B04D9AB42C0D884F00103BFE7BCD134B13379023B18BF0123B8E7234695
:20666000B6E72346D9E7D8F80020074B9A4205D1012CBCD0012408F12C08A3E74FF0FF305D
:20668000B3E700BFC40F00203DB8F39630B585B06946022001F0B0F9044610B1FF2005B0CC
:2066A00030BD052002A901F0A7F9012840D1224649213348FCF726FE324B8DF80C4002930B
:2066C00000229DF800109DF808002F4C2378042B06D0052B2FD14B1E18BF0123002B39D073
:2066E0006378042B05D0052B2CD1431E18BF012383B3A378042B03D09DF803509D4229D11E
:20670000E378042B03D09DF80B509D4222D12379042B1BD16279022A28D11C4B1C480022B6
:206720004921FCF7EFFD6079831E022BB7D9B5E70028C5D0B2E7A3EB010CDCF1000343EB4E
:206740000C03CBE71D1A6B426B41D1E79DF802509D42DFD00132032A04F10604B6D10D4880
:2067600000224921FCF7CEFD012098E7032A05D0094B0A49042A08BF0B46CFE7084BCDE783
:20678000F4A5000003010303C7A80000D1A500003FA6000063A60000E2A50000DBA500007C
:2067A000D6A500002DE9F04FF9B002AF2523044607F1E800C7E9082101F0E9FA0346A0B9EE
:2067C00007F1680207F1A80107F1E80001F01CF858B9B7F86830012B07D1D7F8A810386A4C
:2067E00007F1500200F0FDFF38B14FF0FF35284607F5EE77BD46BDE8F08F97F85030012BD6
:20680000F3D1D7E908214FF6FF7307F1500001F0BEFA0028E9D1636AE16D5A684FF4C073EE
:2068200003FB012153424F311940A36A606D013B534342435B1A521A934228BF13467A6EBB
:206840009A42D2D84FF0FF3507F1360307F1340207F1380107F1500000F0D6FF0028C4DBDB
:2068600040F0ED823A6DB96BFB8E6AB17A6D5AB1FA6D914208D34FF6FF74934830F8022B1B
:20688000A242B2D09A42F9D1242BDDD1BB8E402BABD1386A07F1680200F0A3FF0028A4D18C
:2068A0003B6A5B687B617B6A1B893B617B6ADB68FB607B6A5B89BB60FEF7E0FF05460028C1
:2068C00000F08C82024645218048FCF71BFD4FF0FF35B9E72C2303FB0494204601F017F9DA
:2068E0008046002800F0C38010F18C0F06D199F88035002B40F089826FF08808424645217B
:206900007348FCF7FFFC013DE3E7204601F0FFF8204601F0CCF880460028EFD1267F002EDC
:206920004CD101236B4A31462377626163601C2207F1E80001F052FBE220C7E90F6607F14F
:20694000A80101F094F98046002864D1B7F8AA30C3F3C113013BDBB2022B23D85E4A002120
:20696000D25C5E4B1343C7F8EC30DBB2002B626908BF00220346C7F8FC20CDE9000007F1D1
:20698000E802E220FEF74CFD10F18A0F804611D1D7F8EC3052491A0AB1EB132F11D0514B86
:2069A0009A420ED0204601F082F86FF08608A5E73446B3E778BB204601F079F86FF09608C7
:2069C0009CE707F13C0107F1E800FEF74DFC804608BB636AD7F83C8033BB434B41461B687A
:2069E000012098470346606220B307F14006C4F82880E220CDE90086002107F1E802FEF7E1
:206A00000FFD8046C8B1606A10B1A16AFEF790FB0023C4E90933204601F049F818F18C0FCD
:206A200008BF6FF0870869E76FF08A08204601F03EF863E76FF08C08F8E7A446336807F13A
:206A4000E806A3620FCEACE80F0096E807008CE8070004F1080001F04DF8237F012B1AD0D8
:206A6000204601F054F8804600287FF447AFA3682688190509D53046E168FFF707FA68B990
:206A800030462169FFF702FA40B9204601F04CF86FF0840832E702232377E1E763681048C2
:206AA0004FEA132CB0EB132FD4E909121ED00D4B9C451BD0BCF1000F18D0204601F034F870
:206AC0006FF085081AE700BFBC97000089A60000A8A60000E230FF7F86A50000004B4E8066
:206AE000004E80004B4E8000DC00002006F44F43B3F5824FE1D126F0FF00B0F5824FC7F8B2
:206B00001CD002D0B0F5E24FD7D1F6B2422E638846D1EE4603F10806F6080736F608AEEB17
:206B2000C606B546FF2B02AE40F09380A54BBB61A54B9C4540F0AE80022A4ED14FF48079AF
:206B40000B7807F1280A7B6007F1E80850469F49FFF7E0F89AE8030088E80300D7F8EC3096
:206B6000002B3CD1D7F8E8B079685846FFF762FC0346C7F8EC0090BB584601F0F1F858464E
:206B8000FEF71AFE10F1020F834668D14046FFF7F3F8034618BBB9F10109D7D15B461EE056
:206BA000412E0DD1DE1DF6082FD0EE460736F608AEEBC606B546FF2B02AE4AD1844BB6E760
:206BC000302E25D1B3F5A07F46D035D823F02002C02A41D0B3F5807F3ED06FF0860318464C
:206BE00000F0B7FF10F1860F0646D7F81CD03FF464AF204600F098FF8046002E40F0DF809C
:206C000000287FF47BAE01257DE6D7F81CD054E7E3D8123EF6B2192EDFD801226D49B240B5
:206C20001140C9B9D207D8D5B3F5807F14D009D823F02003C02BCFE7B3F5C07F0CD0B3F54D
:206C4000007FC9E7B3F5C07F06D040F209229342C2E7B3F5E07FBFE76FF08503BFE700280B
:206C600099D1D7F8E8A0504601F062F8DAF80CA0016881465246304601F0A5F95246D9F8BE
:206C80000410B01801F09FF94046FFF775F8034630B1A4E7B0F5824F0ED1304601F093F9A9
:206CA000BB695B68202B7ED02046D7F81CD000F03BFF6FF0940821E64FF0200B07F1E80AB3
:206CC00007F1A80839640123C7F844B05046CDF8008007F1440207F14001FFF7DFF8034630
