:020000040000FA
:10000000C80801206D6F0000D7790000596F00000B
:10001000596F0000596F0000596F0000596F0000C0
:10002000000000000000000000000000CD6F000094
:10003000596F000000000000596F0000596F000068
:100040009D0A00009D0A00009D0A00009D0A000014
:100050009D0A00009D0A00009D0A00009D0A000004
:100060009D0A00009D0A00009D0A00009D0A0000F4
:100070009D0A00009D0A00009D0A00009D0A0000E4
:100470009D0A00009D0A00009D0A000053B94AB978
:10048000002908BF00281CBF4FF0FF314FF0FF309C
:1004900000F00CB8ADF1080C6DE904CE00F008F8DE
:1004A000DDF804E0DDE9022304B07047704700BFC7
:1004B0002DE9F04786468C460846089E1546744648
:1004C0001946002B40F0C1808542B2FA82F245D92C
:1004D0004AB1C2F1200300FA02FC954094402EFA82
:1004E00003F343EA0C0C4FEA154EA8B2230CBCFBF5
:1004F000FEF80EFB18CC08FB00F943EA0C439945C3
:1005000028D9EB1808F1FF3704D2994502D9A8F190
:1005100002072B44A3EB0903A4B2B3FBFEFC0EFBC2
:100520001C330CFB00F044EA0344A04214D92C19FC
:100530000CF1FF3304D2A04202D9ACF102032C44E7
:10054000241A43EA07401EB1D4400023346073608C
:10055000BDE8F0874746DDE76346F1E792BB431B02
:1005600001214FEA154EAFB2200CB3FBFEFC0EFB8F
:100570001C330CFB07F840EA0343984561D9EB189C
:100580000CF1FF3004D2984502D9ACF102002B44A3
:10059000A3EB0803A4B2B3FBFEFC0EFB1C330CFB65
:1005A00007F744EA0344A7424DD92C190CF1FF3355
:1005B00004D2A74202D9ACF102032C44E41B43EA63
:1005C0000040C0E7C2F120039540944020FA03F1B7
:1005D0002EFA03F34FEA154E9040AFB20343B1FB3E
:1005E000FEFC0EFB1C10190C0CFB07F841EA004145
:1005F000884522D969180CF1FF3004D2884502D908
:10060000ACF102002944A1EB08019BB2B1FBFEFC56
:100610000EFB1C110CFB07F743EA01439F420ED966
:10062000EB180CF1FF3104D29F4202D9ACF1020168
:100630002B44DB1B41EA004193E76046E3E7614658
:10064000F7E76046A4E76346B8E7834206D916B9E0
:10065000002108467CE7C6E900E0F9E7B3FA83F732
:100660008FB9834201D3724508D8BEEB020460EB18
:10067000030301209C461EB9002169E73846FAE7CA
:10068000C6E9004CF8E7C7F1200CBB400EFA07F5AD
:1006900022FA0CF42EFA0CF1BA401C4320FA0CF3A7
:1006A000B8404FEA144901431FFA84FEB3FBF9F83E
:1006B00009FB18300B0C08FB0EFA43EA00439A457D
:1006C00040D9E31808F1FF3004D29A4502D9A8F1C5
:1006D00002002344A3EB0A0389B2B3FBF9F809FB38
:1006E000183308FB0EFE41EA03418E452CD96118F0
:1006F00008F1FF3304D28E4502D9A8F10203214448
:1007000043EA0040A1EB0E01A0FB02984145CE4612
:10071000434602D306D14D4504D20138B9EB020E4F
:1007200068EB0403002EA7D0B5EB0E0261EB0301CA
:1007300001FA0CFC22FA07F3F9404CEA0303C6E97C
:10074000003199E74046C5E74346D9E70146F0B591
:1007500050B332B3164E306830BBD1F8C842D1F82E
:10076000D8329C4213DA134D05F5C0473B8803F598
:10077000005C45F8234001339BB2B3F5805F25F858
:100780001C203B8003D96FF01E003060F0BDD1F813
:10079000CC3222449A42A8BF6FF01D00C1F8C82293
:1007A000F4E76FF02100F1E76FF02000EEE700BF03
:1007B000C4890020C029002008B5134660B172B179
:1007C0000A46D0F8C0120748006806F092FC0028DC
:1007D00018BF6FF01C0008BD6FF02000FBE76FF042
:1007E0002100F8E7348C0020014B1B68184700BF3C
:1007F000000100202DE9F047058B044628079046AC
:1008000012D4022905F0070540F0CD80204606F0FD
:10081000C2FC80B10138218B042800F29F80DFE800
:1008200000F0C29D657D8D0001290CBF45F01005CB
:1008300045F02005258388F31188BFF36F8FBDE84D
:10084000F08701F007035A1F012A1CD8002221F06B
:100850000701062B276889B2C4E9002209D13B466B
:1008600003E0628B013262831B68002BF9D141F0F7
:1008700002012046218306F08EFC002800F0A180B2
:1008800041F020019CE0042B0AD121F0070189B23C
:100890002046218306F07FFC10B141F02001218326
:1008A000218B01F0070AAA4575D00027B946A36835
:1008B000002B00F08E8041F00801218388F311881D
:1008C000BFF36F8FA168002900F08C800D680029AC
:1008D00000F08880334652462046D1F80480C04755
:1008E000002D48D02B6829461D46F0E7236921F0EA
:1008F000070141F00601062DD3F80090218335D180
:10090000B9F1000F47D041F00801218388F3118825
:10091000BFF36F8F20463D49C84731E021F0070102
:10092000236941F0040189B2042DD3F80490218396
:10093000E6D000274FF0040A3E46B8E721F0070151
:10094000236941F0050189B2052DD3F80890218370
:10095000D6D000274FF0050A3E46A8E701F0070A67
:10096000AA4518D00027B9463E46A0E700274FF019
:10097000060A3E469BE72B46B5E7B9F1000FC9D101
:10098000EFF31188202383F31288BFF36F8F238B3B
:1009900023F008032383258BEA062ED525F01003C8
:1009A000238305F007056669218B002EBFF649AF4A
:1009B00000232768C4E9003321F0070141F0010159
:1009C0002183218B4FF0000901F0070AAA457FF42B
:1009D0006EAF002F94D041F00801218388F3118875
:1009E000BFF36F8F002FC8D03D683946334652465B
:1009F000204606F0BEFB2F46F4E7AB067FF51BAFA3
:100A000025F02003238305F00705FFE6CF710000E2
:100A1000002318460649D1F89020C2F307229342DA
:100A200000DB7047C1F89830C1F8A0000133F6E749
:100A300000ED00E0002807DB01234109034A00F034
:100A40001F00834042F82130704700BF00E100E002
:100A500000280CDB01220649430900F01F008240F8
:100A6000203341F82320BFF34F8FBFF36F8F7047C0
:100A700000E100E00028ACBF00F16040064B4FEA07
:100A80004111C9B2ABBF00F5614000F00F0080F822
:100A900000131954704700BF14ED00E0EFF3058315
:100AA000034A103B02EBC301496852F83300084780
:100AB000A0A80000244B254A4FF47A611A60012255
:100AC000234B2448C3F80424D0F82436C3F3080287
:100AD000C3F309434B4382F480721F49883201FB00
:100AE00002334FF4FA215B00B3FBF1F201FB123346
:100AF0001A49B3F57A3F28BF0132C1F80429D0F86A
:100B000020364FF47A60C3F30802C3F3094343432A
:100B100042F21C5082F4807202F2172200FB023370
:100B20004FF47A701B0AB3FBF0F200FB1233B3F5FB
:100B3000FA7F4FF0010328BF0132C1F81C270020C3
:100B4000C1F80036704700BFFC0000200020A1075C
:100B5000002008E000C0FF00F82A008000001250CA
:100B6000084B70B5C31A0D4607499B1004465943FC
:100B70004022064806F04BFB2B4601462046BDE8C6
:100B80007040184748290020B76DDBB65880000038
:100B9000402373B50B4C0093041B0B460D460A49CA
:100BA000A41061430646094A094806F05BFB011E92
:100BB00005DA30462B4602B0BDE87040184702B057
:100BC00070BD00BF48290020B76DDBB6D3720000AE
:100BD00058800000F8B50221054640F20510FFF7E5
:100BE00049FF174B1A7922BB164A1A6001221A7163
:100BF000154B1B6A9B0603D440F20510FFF71AFF42
:100C00000024124BC3F840442B69ABB11C2221468F
:100C1000184607F0E3F901261C220D4F0664076110
:100C20002D692146A81807F0D9F92046EF62EE6435
:100C3000F8BD6FF00400FBE76FF01500F8E700BFA8
:100C4000402900200775000000E100E000E010509E
:100C5000CC9600000A2810B5044603D10D210448A3
:100C600000F036F90248E1B200F032F9204610BD3A
:100C7000D88000000023024A0020C1E90023704709
:100C800000D0170000487047C4960000024B0B606C
:100C900001231360704700BFBC960000024B034A5B
:100CA0000020C3F80C25704700B00450800000807D
:100CB000036803F01F025F2B02604FEA53129ABFD2
:100CC000024B53F822000020704700BFB09600008E
:100CD0004209022A034670B503D0012A18D0CAB1CE
:100CE00070BD0E4E326951680029F9D0012503F01C
:100CF0001F030C689D400029F2D08A682A4002D068
:100D000030464B6898473CB1236821461C46F2E7C1
:100D1000034EE7E7034EE5E72346F6E79880000039
:100D200078800000B88000002DE9F04F4368027A17
:100D300085B003EBC2029A4204D86FF0010005B0FF
:100D4000BDE8F08F5C798C4200F0B1800833F2E7A7
:100D5000DAF80030C3F3C322082AC3F3080100F213
:100D6000A380414508BF4FF0FF31B3F1D05FBC5CB9
:100D70004FEA136210D2192A10D8DFE802F0121CD1
:100D800047614A51610F0F0F0F0F0F0F0F0F0F0F1A
:100D90000F0F0F0F64787B7E382A71D06FF08500BB
:100DA000CDE7C9F804164A1C57D10AF1040A554583
:100DB000CED10020C3E7C9F80C16481CF5D04FF07F
:100DC000000B5A46DAF80030039103F40040002883
:100DD00018BF002203A818BF4FF0010B0193009227
:100DE000FFF766FF0399019B00EB8100D0F88010AC
:100DF000C3F3412C009A230243EA8C03134331408E
:100E00000B4343EA4B03C0F88030CEE7C9F8101615
:100E1000C9E74B1CC9F80016C7D04FF0000B05E01E
:100E2000481CC9F80416C0D04FF0010B03A8039169
:100E3000FFF73EFF0122039B02FA03F38360C1E741
:100E4000C9F80816B9E7C9F860154A1CDAF8003085
:100E5000ABD0C3F30043002BE6D003A80391FFF708
:100E600027FF0122039B02FA03F3436019E0C9F84C
:100E70006415EAE7C9F86815E7E7C9F86C15E4E70F
:100E800003A80391FFF714FF039B00EB8300D0F846
:100E9000803023F0E04343F08043C0F880304B1CA7
:100EA00083D04FF0010B8CE76FF0150047E7D3F8C4
:100EB00000A01D7940F2FF18D0F80090024F034EB9
:100EC0000AEB850573E700BF5CA50000F0F0FCFFAE
:100ED0002DE9F84304460D46D0F80480EFF305836E
:100EE000B3B92A4B1B789BB1294E46F00106642703
:100EF000DFF8A09063681B68D3F8303193BB264BB2
:100F0000D9F80000B0FBF3F0B047013FF2D1EEE7B3
:100F10002021EFF311831A4681F31288BFF36F8FFC
:100F200060680068D0F8300120B983F31188BFF3FE
:100F30006F8FEEE7D8F8243000201D706368D8F872
:100F400024101B68C3F83C170121C3F84017C3F8ED
:100F50003001D3F83001196582F31188BFF36F8F28
:100F6000BDE8F883EFF3118320211A4681F312883C
:100F7000BFF36F8F61680968D1F830110029D9D1AA
:100F800083F31188BFF36F8FB1E700BF3F98002054
:100F900000820000FC00002040420F0038B50546EA
:100FA0000221C620FFF766FDC620FFF743FD6C68EF
:100FB0000121E068FFF7B8FE6B6819686369C1F842
:100FC0002435E28BA38BA07E1343228C1343628CC7
:100FD0001343627E9BB20243207E02431343C1F857
:100FE0006C3569680B68D3F8002242F48022C3F89C
:100FF00000220822C3F800254A6A0121C3F83C27D1
:101000000022C3F840271965D3F830110029FBD01E
:10101000C3F800252846BDE83840014906F062B90A
:101020009534000070B5EFF31181202383F312880B
:10103000BFF36F8F4FF0FF346FF04040074DD5E99D
:101040000023944270EB0306F9D381F31188BFF3B8
:101050006F8F1046C3F3130170BD00BF40270E50C1
:1010600038B5EFF31185202383F31288BFF36F8F18
:10107000124B1B6803BBFFF7D5FF114AD2E90032C0
:10108000C01A61EB0201400940EAC1630D4AD2E98E
:101090000004181844EBE37485F31188BFF36F8FD5
:1010A0004FF47A71A0FB010547F61222002301FBE1
:1010B0000451FFF7E3F938BD0023E7E7388C00203F
:1010C0007801002080010020064BD3F840231C2A21
:1010D00005D1D3F84403431E5842584170470020BD
:1010E000704700BF00C0FF0003689A070CD5036873
:1010F000DB070DD50922074BC3F80C250F22C3F8D7
:10110000042501221A60FEE7034B0360EF3B0360F6
:10111000704700BF00801050F000FA5010B503680F
:10112000CB40DB0710D401238B40026843EA020165
:10113000D0E8EF4F944204D1C0E8EC1FBCF1000F9F
:10114000F6D1F2D1014810BD0148FCE70000AD0B1B
:101150000400AD0B01282DE9F341044615BF04201E
:10116000712014220422304918BF4FF48473C1F84F
:1011700008034FF0010008BF4FF4807302F1A04252
:1011800002F587121060002203F1A04303F58713D4
:101190001A601B68254BD3F840331C2B1ED08442A9
:1011A00020D10DF1070542F21076214B1E4F8DF82C
:1011B000072043F00108012C24D0D7F84C3403F465
:1011C00080338DB93BB11B4B18681B4BB0FBF3F060
:1011D000C047013EEFD102B0BDE8F081012C01D142
:1011E000CC60DEE71546DEE7D7F84C2402F00302B8
:1011F0002A70002BEFD09DF80730002BE3D0012C94
:10120000E9D106E0D7F80C3403F480332DB9002B74
:10121000D9D10022094B5A71DDE7002B0CBF012305
:1012200000232B70E7D1F4E700E0105000C0FF006E
:1012300000820000FC00002040420F0040290020F6
:1012400010B5EFF31184202383F31288BFF36F8F5F
:10125000074A136823F00201DB07116002D4012062
:10126000FFF778FF84F31188BFF36F8F10BD00BFC5
:1012700098290020012838B50446314B314D40D023
:10128000D3F84C14D3F84C24C80322D502F003033E
:10129000012B04D013B10020FFF75CFF2346284A3E
:1012A0000420C2F8403410224FF48473002103F16B
:1012B000A04303F5871319601C68012402F1A042C2
:1012C00002F5871214602A689AB31D4BC3F8040311
:1012D0000CE0D3F84824D107E0D5D3F85024920786
:1012E000D9D42A681AB10422C3F8042338BDD3F82C
:1012F0000821002AFBD00022C3F80821D3F80831C6
:10130000F4E70022C3F81021D3F81011C3F8182114
:10131000D3F81811C3F81421D3F814210A4AD2F8CB
:1013200040231C2A08BF986000224FF4807371206C
:10133000BCE71A68002AFCD019601B68D6E700BF1A
:1013400000E010504029002000C0FF00034A43097C
:10135000D35C00F01F001844C0B270474CA50000D9
:1013600010B504460846FFF7F1FF3C22237902FB43
:101370000300034B083033F81000C0F3401010BDD9
:101380005028002010B504460846FFF7DFFF3C2236
:10139000237902FB0300034B083033F81000C0F33D
:1013A000400010BD5028002010B504460846FFF745
:1013B000CDFF3C22237902FB0300034B083033F8B6
:1013C0001000400B10BD00BF5028002070B505462E
:1013D0000846FFF7BBFF3C212A79184B01FB0202AC
:1013E000083233F81200C10526D578240026C0F350
:1013F000432120F4F85023F812002A7904FB023428
:101400000E3434F8020F10F4807F03D0C0F3432071
:10141000814211D00136232EF3D10020C2EB0212FB
:101420000A4443F8320078202A79BDE8704000FB76
:1014300002306030FFF772BE70BD00BF5028002040
:1014400070B505461446FFF78BFF70B10846FFF7ED
:101450007DFF3C222B7902FB0300054B083033F85B
:10146000103004485B0B237070BD0348FCE700BFDD
:10147000502800200000AD0B0400AD0BF0B506466F
:10148000002487B0114F019117F8012B06AB03EB35
:10149000D20313F8143C02F00702D34013F0010307
:1014A00006D10134032CEFD10023184607B0F0BD5C
:1014B000074A03AD07CA85E8070055F824100A6AF1
:1014C00046F824200A62002AEBD0EEE749A5000086
:1014D000E0810000124B70B553F82050013053F8F2
:1014E0002060AE4200D870BD6C68B4B1237FDB07CA
:1014F00011D4636953B12046984738B10028B8BF6A
:101500004042FF28A8BFFF20E3681870E2685378C4
:1015100043F0010353700835E3E72B689847FAE777
:101520008896000001680E4A0346914215D1C169B0
:10153000A2F11022A2F1EF1291420ED18268012A8B
:101540000BD8C26812B101698A4206D0586928B125
:101550009B691B1A5842584170470120704700BFD1
:1015600055AA00FF70B50D4B9E68A6B13046FFF737
:10157000D9FF044678B9F3686BB935690DB92046CF
:1015800070BD2846FFF7CEFF28B9EB68B34202D101
:101590002E462D69F2E70124F1E700BF282800203C
:1015A0000022074BC3F81021C3F80C21C3F8002117
:1015B000C3F80421C3F80821C3F81421704700BF01
:1015C00000500450C36870B57BB9C36900F12802AC
:1015D0001A60C369454A9A604368C269DB6843F48C
:1015E0008063D360C3691033C361836A9B052FD4C2
:1015F0000368C268DD6800F1EC04302D34BF0826B2
:1016000010261D6901366B1E1340EB1AB34238BF1A
:101610005B191C44D50004F8015C03F1EB0452098A
:10162000044400F1ED05A5425CD1802280F8EC2055
:10163000426AC469C4322260C26993604468C26964
:10164000E468D460C2691032C26102691A4402615E
:101650000269C469D31C23F003039B1A54F8042CB9
:1016600042EA032244F8042CC26952F8084C23448D
:1016700043F0005342F8083C026A0368DB681160DB
:101680000168026AC96803339160026A23F00303A8
:1016900002F1100101620168C96899420BD0002172
:1016A00011610168026AC9685B1A43F08043936064
:1016B000036A10330362836A13F4806311D10268F2
:1016C0005169D26891420CD0026A13600268016AC3
:1016D0005369D2689B1A43F080438B60036A1033CE
:1016E000036270BD04F8012D120A9CE7040000207B
:1016F0001B4BD3F80021C2B1BFF35F8F4FF0A34162
:101700008A6ABFF35F8FBFF35F8F4FF0FF300863CC
:10171000BFF35F8F0021C3F80011D3F80031114BE4
:10172000196819680A431A607047D3F80831002B0A
:10173000FAD002220C490B689A600969096889038A
:1017400044BF03F58053DA610022054BC3F808213A
:10175000D3F80831054B1A681A6842F00102E2E733
:10176000008004508C010020C80100208801002066
:10177000244B0340B3F5806F2FD017DC402B2ED0C5
:1017800008DC102B2DD0202B2DD0181E18BF0120C7
:1017900040007047B3F5807F27D0B3F5007F26D097
:1017A000802B08BF0B2018BF02207047B3F5804F75
:1017B0001FD00ADCB3F5805F1DD0B3F5005F1CD0ED
:1017C000B3F5006F08BF0620EDE7B3F5004F16D064
:1017D000B3F5803F08BF0320E5E7112070470A20DA
:1017E00070470C2070470920704708207047072079
:1017F00070471420704705207047042070470F2061
:10180000704700BFF0FF01000C22104B014602FBA5
:101810000033002030B4D3E90E529863EFF3118007
:10182000202484F31288BFF36F8F1C6C04F0C00473
:1018300044F002041C6480F31188BFF36F8F1DB164
:101840002B4630BC0248184730BC7047482900205E
:101850005880000010B4EFF31182202383F3128824
:10186000BFF36F8F1648016841F002040460C80797
:1018700007D482F31188BFF36F8F012010BCFFF7EC
:10188000F9BC1049D1F80C14C903F2D5EFF311805B
:1018900083F31288BFF36F8F0B490B6C03F0C00307
:1018A00043F002030B6480F31188BFF36F8F82F360
:1018B0001188BFF36F8F002010BCFFF7A5BF00BFDA
:1018C0009829002000E010504829002070B5204CD5
:1018D000C2B0E36A0546802B1A4628BF80220192D7
:1018E0001BB92075002042B070BDD4F8583201AA4F
:1018F00002A904F1300098470028F4D1042D206992
:10190000019A0FD0019A236A206913442362E36A83
:1019100002A99B1AE362E36898470028E2D06FF0BF
:101920000900E0E7236822A998470028F7D1A36AB5
:10193000019D02AA2B44A36222AB8542E2D011781A
:1019400013F8016B0130314402F8011BF5E700BFC9
:10195000C8890020012337B50546254C0193636BE8
:101960002BB1012B29D06FF0040003B030BDD4F8A7
:101970005832204801AA0DF1030198470028F4D1FC
:101980009DF80330C3F3801203F03F03A3630623E3
:10199000E363012384F8402063639DF90330002B47
:1019A000DDDB0023636394F8403013B1A36B5B422B
:1019B000A363A36B00202B60D7E7D4F858320D48FF
:1019C00001AA0DF1030198470028CED1E26B192A34
:1019D0000ADC9DF80330A16B03F07F0393400B43B7
:1019E0000732A363E263D8E76FF01800BDE700BFDA
:1019F000C8890020F8890020F7B5094C0546D4E9CC
:101A0000086701A8FFF7A6FF38B9019B1E44B7423B
:101A100032BF6FF008002575E36203B0F0BD00BF70
:101A2000C88900202DE9F041466807463369002B3C
:101A30003AD0782096F81480234D00FB085393F891
:101A400074408CBB184646222146103006F0C6FA78
:101A5000317D1E4A336952F831C021468C4529D167
:101A60000024C3F84441D3F84421C3F30833581C7D
:101A7000FEF7E0FF7823012203FB085888F8742062
:101A8000C8F86020327D124903FB02529160327D1A
:101A9000022103FB0255DB20EC60FEF7EBFF022185
:101AA00040F20D10FEF7E6FF3846BDE8F041094967
:101AB00005F018BCCAB2920002F58070442A04BF37
:101AC0001C501A580131C9E750280020A096000088
:101AD000D10C00009F73000038B514220021144877
:101AE00006F07CFA134B144A144C1A60144B154A36
:101AF00000211A6014F003030FBF4FF4006503F2D6
:101B0000FC75C3F10403E4182A46204606F066FA81
:101B1000074B0D4AC3E900452260A2F11022203D87
:101B2000A2F1EF129C606560E261DC60002038BDCC
:101B300028280020DC0000205D2200003F900020CB
:101B4000D80000204923000055AA00FF2DE9F341E9
:101B500032480DF1060105F079FA304E10B16FF000
:101B6000110554E09DF80630A6F5177403F00F0236
:101B700013F0700FA26148D130460DF1070105F056
:101B800065FA05460028EAD14FF006089DF807706F
:101B900007F03F079DF90730002B22DB2663002664
:101BA0004FF6FF734FF4007231461D48A4F84430DD
:101BB000666306F013FAB7420CBF07230123194AE4
:101BC000C4E91266C4F85422174AC4E90867A4F8A5
:101BD0004660A4F8506084F85260C4F85822237517
:101BE00015E030460DF1070105F030FA0028B6D1B6
:101BF000B8F11B0F0FD09DF8073003F07F0303FAF5
:101C000008F31F4308F10708C4E76FF002052846F0
:101C100002B0BDE8F0816FF01805F8E7248C0020D1
:101C20001B8A0020D37000001B75000037B5274CBD
:101C3000237D082B43D8DFE803F00A0F1A1E222465
:101C4000264505006FF017000823237530E0FFF7E5
:101C50007DFF0028F8DB2BE001A8FFF77BFE0028C2
:101C6000F7D1019B002B25DD4FF0FF30ECE703207F
:101C7000FFF7C2FEEDE70420FFF728FEE9E70520A5
:101C8000F6E70620F8E701A8FFF764FE0028E0D198
:101C9000019D636829462069984768B9A36A2B4467
:101CA000A362D4E908239A4204D1072300202375B4
:101CB00003B030BD0223F9E76FF00900C4E76FF00D
:101CC0000400C1E76FF00A00BEE700BFC88900202A
:101CD00070B5174D1446A84226D8C0F5BE1303F5BB
:101CE00080539A4220D8CAB142F20103114DC5F87F
:101CF0000035A9B106F067F9BFF35F8FD5F8183446
:101D0000DB0706D4C4F308041CB10123AB60BFF3A6
:101D10005F8F4FF40052074BC3F80025002070BDC1
:101D2000FF2106F05BF9E7E76FF01500F7E700BF6A
:101D3000FFCF170000B0045010461A46084B10B5EC
:101D4000994209D8C1F5BE1404F58054A24203D8C3
:101D500006F039F9002010BD6FF01500FBE700BF59
:101D6000FFCF17002DE9F7430F461546044600281C
:101D700055D0002A50D0DFF8AC80D8F80060002E93
:101D80004DD1D0F8C812D4F8D832DFF89C909942DF
:101D9000D9F8000039DA06236A46D4F8DC1205F0D7
:101DA000A8F988B9D4F8DC12BDF800300631AB428E
:101DB000C4F8DC1205D1DDF80220D4F8C8329A420A
:101DC0000CD01A4805F02EF96FF01D03C8F800304A
:101DD0006FF01D06304603B0BDE8F0832B463A464F
:101DE000D9F8000005F085F90028EDD1D4F8DC32EF
:101DF0002B44C4F8DC32D4F8C8321D44D4F8CC32B9
:101E0000C4F8C8529D42E5DBE2E713463A4605F0C6
:101E100070F90028EFD0DBE76FF02106DAE76FF00A
:101E20002006D7E7BC290020348C00209C970000B6
:101E300038B5084B5A78D20709D51C783CB9064DFD
:101E4000284605F0DDF82046044B1D6038BD6FF0D4
:101E50001200FBE732010020550C000000010020B9
:101E60002DE9F84F14461D46FFF7DCF8A042A941C2
:101E7000C0F0E580744ED6E90012641A24F01F0306
:101E800065EB02055B1842EB0502C6E90032EFF391
:101E90001182202383F31288BFF36F8F6B4FDFF81B
:101EA000B08138686409B84208BF002044EAC564BC
:101EB000684DC8F800409146D5E90021D8F80030B7
:101EC000A8B3D0E9044C4FEAE37EA3427EEB0C0AB0
:101ED00005DAE41A6CEB0E0CC0E9044C27E0A218FA
:101EE00041EBE4710023C5E900210022C0E904238D
:101EF000D0E9003213605A600023C0E9003389F34F
:101F00001188BFF36F8F83689847EFF311892023FF
:101F100083F31288BFF36F8FD8F8003038681B1B2B
:101F2000B8424A46C8F80030C5D1D5E900219A1810
:101F300041EBE373C5E900230023C8F800303B6898
:101F4000BB427ED0002B7CD0D3E90443B4F1004FD8
:101F500073F1000275DA002BB8BF0024FFF762F8B6
:101F6000D6E9002720230125801A61EB0701C4FB75
:101F70000301402871F10004374C38BF184694F82B
:101F800008E038BF002105FA0EFC28BF20F01F0032
:101F90001CF0670F4FD0314B5E68F64306F06706C2
:101FA00016EA0C0F47D04FF000082D4E101847EBE3
:101FB000010103EB0E0206EB0E1792F85420C7F84E
:101FC0002C850C2707FB0232276882F814E0D760C3
:101FD000676817619A6842EA0C029A60EFF311870A
:101FE000202282F31288BFF36F8F94F808C01D4A35
:101FF0004FEA8C0C42F80C80227AC1F313011201D3
:1020000002F1A04202F56222C2F82005C2F82415AE
:1020100087F31188BFF36F8F227A883305FA02F2B3
:10202000D3E8EF0F1043C3E8E10F0029F8D1237A7A
:102030009D40C6F8245389F31188BFF36F8FBDE824
:10204000F88F6FF0004489E778010020E00000205D
:10205000388C002080010020E80000204000002093
:1020600000200E5000210E5078232DE9F04F6F4CC8
:102070000E460C1BB4FBF3F4D0F81413DFF8B0B128
:10208000C9B28BB041F400315BF83420009005F008
:10209000B2F98103054638D50023E7000BEBC404F1
:1020A000CDE907330993636807A819460193FFF741
:1020B000E5F93B1D03934FF0000A5E4B0DF11C093F
:1020C0000293029A12F8013B0292039A02EBD302A6
:1020D0001BF8022003F0070322FA03F3DA071AD4ED
:1020E0000AF1010ABAF1030F09F10409E9D14FF429
:1020F00000310022009805F07EF9019907A8FFF74A
:10210000BDF90028D7D125F400350124002D76D162
:102110000BB0BDE8F08F484B53440493D9F800103E
:102120000029DDD091FAA1F1B1FA81F1049B1C786C
:1021300041EA44142046FFF709F9083036F81080C8
:10214000C8084FEA98030593012319F8002001F00D
:10215000070103FA01F122EA010209F8002006A8AA
:102160000694FEF7A5FD069A059B203250F8222022
:10217000C8F382075B07B846C2F3014223D5304655
:10218000D7B22146424605F093F906A80694FEF719
:102190008FFD069B203350F82330C3F301439F4249
:1021A00007D10021204605F04DF93946204605F0BB
:1021B00049F906A80694FEF77BFD0122069B02FA68
:1021C00003F30362AAE7022A0DD10321204605F09A
:1021D00039F907F00503012BEBD142462146304681
:1021E00005F066F9E5E702212046059205F02AF997
:1021F000032FF2D0059A032ADBD1022FECE795FAE0
:10220000A5F3B3FA83F3009904FA03F225EA020571
:1022100003F5A27251F8222006EB43033046B3F8CF
:102220006410C2F3014205F043F96FE75028002023
:10223000A096000049A5000049A5000001490248F8
:10224000FFF712BF5028002000A00D50014902489E
:10225000FFF70ABFC828002000C01050F8B5384E5C
:102260003468F368D4B1B468C4B1002860D00029E0
:102270005ED001FB00F5B5FBF0F0884258D1291D76
:1022800056D8AA070CD025F0030204321C4603E0FE
:10229000616891424ED2A469002CF9D12046F8BD64
:1022A0002A46F3E7891A232904F120071CD80123C1
:1022B000A360D4E90523AAB19361A3690BB1626954
:1022C0005A610023C4E905333369DB0703D5FFF7FF
:1022D00049F9002831D12A46002138463C4605F00C
:1022E0007DFEDBE7F360E8E702F1200C04EB0C0372
:1022F0002039C3E90110DC6021691248196144F8F2
:102300000C00A0F11020A0F1EF10D86101B1CB605A
:1023100061695961A069986141B18B61996901B1A5
:102320004B6101212361C4E90121CAE7F360F5E7AC
:102330000024B3E7A0680028B4D0012004F058FEC0
:102340002828002055AA00FF70B50546002840D077
:102350003B4E3368002B3CD0B268002A39D0834210
:1023600003D872681344984202D3012004F040FE5F
:10237000A0F120042046FFF7D5F80028F5D155F844
:10238000183C012BF1D155F8143C45F8180C0BB34F
:102390009A68FAB955F81C2C02F120015A680A44CF
:1023A0005A6055E905321A6155F8145C2B6903B17E
:1023B000DD6020220021204605F010FE286908B1CA
:1023C00083684BB333699B0703D5FFF7CBF800282D
:1023D000CBD170BD55F8100C00282AD0836843BBC0
:1023E0004268636813442033636003692361D4E95E
:1023F00005239AB9CBB9436963618269A261B3B11C
:102400009C61A36903B15C61236903B1DC60202294
:10241000002105F0E3FDD5E72C46E1E79361A369D0
:10242000002BE8D062695A61E5E7F360F7E7F460F2
:10243000E7E7F36845F8083C03B15C61F460C1E785
:102440002828002030B50468ACB1B4FA84F3012226
:10245000C3F11F03DBB29A4024EA0202D0E8EF5F27
:10246000A54204D1C0E8EC2FBCF1000FF6D1EAD1AF
:1024700002480B7030BD0248FCE700BF0000AD0B06
:102480000200AD0B2DE9F3410221E420FEF7F2FA40
:10249000A94BAA4CD3F8182722F44032C3F81827C6
:1024A0002278002A40F01D81D3F8101521F0020196
:1024B000C3F81015D3F8101541F00101C3F8101539
:1024C0000521C3F8A4160421C3F8AC16072367211D
:1024D00001F001000244013BD2B24FEA5101F7D1B1
:1024E000052A40F0FE8019464FF0010C934E00255E
:1024F0006720CFB204E00CFA02F220EA02000135B4
:1025000090FAA0F25FFA85FEBE45B2FA82F2F2D3EB
:10251000013132750529224482F8547006F10C0607
:10252000E5D10121002586489A0801FA02F212F04D
:10253000670F18BF1D500433302BF5D1E420FEF790
:1025400079FA7D4B0027D3F8102503F5C07322F0EC
:102550000202C3F8902340F6FF72C3F8A821794A1B
:102560001F60A3F58071043393420F60F8D14FF0E0
:102570000108714D744EC5F860803068734BB0FB34
:10258000F3F05D235843724B43EA080398476368AE
:10259000704903EA080301A8019384F80080FFF75B
:1025A00051FF6D4B984240F0A3806C4B1F726368E3
:1025B00023F001036360A36843F00103A360D5F82F
:1025C00010359B0700F18D80D5F8103543F00203DC
:1025D000C5F81035D5F8482712F0010202BFD5F82A
:1025E000483743F00103C5F84837534BD3F8401739
:1025F000D3F844174F00F9D42AB9D3F8482722F06A
:102600000102C3F84827514A3368B3FBF2F34A4A40
:1026100003EB4313002B64D0D2F84017D2F84417D1
:102620004D0063D4FEF7FEFC01224D4B20F01F004D
:10263000C3E900014B49D1E8EF3FC1E8E02F002892
:10264000F9D13BBB48498A608A684B6002F00302BB
:10265000012ACB601ED1CB608A68032A1AD8EFF317
:102660001185202282F31288BFF36F8F4FF6FF7619
:102670003E48848E04F00702C48EB44251D0022A30
:102680003CD10134C48685F31188BFF36F8F1C30B1
:1026900004F06FFDEFF305821AB9354B1B78002B60
:1026A00044D1EFF31182202383F31288BFF36F8F9D
:1026B00001200025012420272E4B2F4ED3F84CC497
:1026C000D3F84C141CF4803F5CD001F003010129C5
:1026D00058D1002877D082F31188BFF36F8F002084
:1026E00001E04FF0FF3002B0BDE8F081013B91E71F
:1026F000224B9842F5D16FF00B00F4E75124D440FF
:10270000E4070ED50B60036A43B9C0E9071142B96B
:102710002A4602211A48FEF76DF8BBE719600162EC
:10272000F5E785F31188BFF36F8FB3E70421114BF1
:102730001046C3F80813BCE700200E5040000020EC
:1027400000210E50B0210E50FC00002040420F002E
:10275000F0810000540000200000AD0BE8000020D4
:10276000780100204C2800203C2800204829002027
:102770003F98002000E0105000E100E00200AD0BA7
:102780006429002072B685F31188BFF36F8FBFF301
:102790004F8F20BF82F31188BFF36F8F62B6D3F8DB
:1027A000401411F0FF0189D1D3F808C1BCF1000F2A
:1027B00084D0C3F80811D3F80811C3F84044C6F810
:1027C000A0711C617AE70422C3F8042387E700BFE5
:1027D0002DE9F74F904604460846FEF7B7FDD8F8B6
:1027E00000900D4607462679B9F1000F29D0204602
:1027F000FEF7C8FD38B12046FEF7B2FD18B16848B3
:1028000003B0BDE8F08F01A80195FEF751FA019BD6
:1028100099F8002000EB8300D0F88030614923F064
:102820000F0343EA8203C0F880303C2303FB0673A6
:10283000083331F8132022F0020242F0010221F89D
:102840001320D8F80430C3B12946204693F80090ED
:10285000D3F804A0FEF796FDA8B1BAF1000FCED1CF
:102860003C2303FB06764F4A083632F8163023F035
:102870001C0343EA890322F81630D8F80830002BED
:1028800050D14948BCE73C227243DFF818E102EB23
:10289000070C0CF1080C3EF81C3023F02003DB047D
:1028A000DB0C2EF81C30BAF1000FD9D0B9F1030FB0
:1028B000A5D8D8F804102068496891F800A000EB6A
:1028C0008A00B9F1000F04D1C0F81095C0F8109536
:1028D000C6E7D0F810B552442BF0030BC0F810B582
:1028E000206843EA4A3300EB8A01D1F810050EEB69
:1028F000420220F4473020F47C70C1F8100541F604
:10290000F070D1F810B500EA051040EA094040EA3D
:102910000B0043F02003C1F81005A2F864502EF814
:102920001C309DE72946D3E900862046FEF74EFD80
:10293000B8F1000FA5D0782320791A4D4343EA1847
:10294000EB58984504D153689E4201D100220CE017
:10295000782303FB005001A96030FFF773FD124B91
:1029600098427FF44DAF9DF804203C212379C3EBBE
:102970000313134445F833802379C3EB0313134443
:1029800005EBC3035E60237901FB0373083335F85D
:10299000131041EA422242F4807225F8132070E7B6
:1029A0000400AD0B502800200000AD0B2DE9F04FC6
:1029B000D50640F2063548BF4FF00308476802EAE3
:1029C00005053B7B58BFC2F3401887B001F01F06D6
:1029D000B5F5837F144646EA43168DF8028041D050
:1029E0000DD8062D40D005D8A5B1022D12D06FF01C
:1029F000150034E0B5F5807FF9D101250AE040F2F9
:102A000002239D4232D0B5F5407F31D0B5F5007F2D
:102A1000EDD1042520032DD501237A688B40536026
:102A20003B6973BB03A80396FEF742F9039B84F44A
:102A3000803100EB8300D0F88020C1F30041C4F363
:102A4000404343EA410322F4706243EA880322F0E0
:102A50000F0243EA05231343C0F88030002007B07B
:102A6000BDE8F08F0925D5E70825D3E70625D1E78E
:102A70000525CFE7620341BF01237A688B4093604D
:102A8000CEE707F11008314640460DF10302FEF78C
:102A9000D7FC14F44039824648D13046FEF756FC44
:102AA0003C223B7D554D02FB0303083335F81330C0
:102AB0000446DB072ED5404604F0D7FC314640469D
:102AC000FEF74EFC58B14046FEF76EFCD7F810B04A
:102AD00000B20BEB8003C3F81095C3F81095404685
:102AE0003146FEF773FC3C223B7D03A802FB034406
:102AF0000023083425F814300396FEF7D9F8039B19
:102B000000EB8300D0F880203D4B134043F00203DC
:102B1000C0F880303B4B9A45A0D1387D3A4B9DF8A8
:102B2000031003EB8000FEF7F9FA97E7002301AAF0
:102B3000CDE90423404603AACDE901330393FFF70F
:102B400047FE304B814698427FF451AF14F4003376
:102B500047D03046FEF7FAFB3146814640469DF8A5
:102B600002B004F48034FEF70DFC28B94046FEF7AD
:102B7000F7FB00287FF43BAF3C223B7D1F4902FB63
:102B80000393083331F8133013F01C0F02D0002CDC
:102B90003FF42DAF03A80396FEF78AF8B4FA84F445
:102BA0003C22039B640900EB8300D0F8803023F4BF
:102BB000706323F00F0343EA8B0343EA440343EAC1
:102BC000052343F00103C0F880303B7D02FB0399ED
:102BD00009F1080931F8193043F0030321F81930DD
:102BE00098E7CDE9043331460DF10203404603AACC
:102BF0000393FFF7EDFD48458CD0F8E65028002000
:102C0000F0F0FCFF0000AD0BF40000202DE9F041D6
:102C1000456801F01F04287B88B044EA4014286905
:102C2000002800F0BD80B2F5001F05F1100607D1A5
:102C30002146304604F019FC002008B0BDE8F081C0
:102C40000027B2F5800F03A80397476054D1B3F172
:102C5000007F14BF052304238DF80C300023CDE939
:102C600006030593AB680DF10707CB4013F0010F86
:102C70005AD1B2F1A07F57D102A80294FEF718F8FA
:102C8000029B203350F82330DA074DD43A462146D0
:102C90003046FEF7D5FB454B984238D00497214685
:102CA000304605AAFFF794FD414B98427BD121465F
:102CB0003046FEF755FB2F69002846D03046FEF718
:102CC00061FB8046002840D13046FEF76DFB02B222
:102CD000920002F5807347F80380FB582B69134478
:102CE000D3F8102542F00102C3F8102501232A6908
:102CF0008340C2F814339FE7B3F1C06F05D0B3F13E
:102D0000007F14BF01230223A6E70323A4E7294B76
:102D1000287D394603EB8000FFF794FB244B984253
:102D2000BCD06FF00B0088E73A4621463046FEF7EC
:102D300087FB1F4B9842B2D1287D1E4B9DF8071090
:102D400003EB8000FEF7EAF9A9E7D7F81433204631
:102D50009B035CBF4FF40033C7F81433FEF7F6FA59
:102D60003C222B7D02FB0300134B083033F810305C
:102D7000C3F38203042B0FD0052B0FD002A80294BB
:102D8000FDF796FF029BC168D94001F001010231B5
:102D9000204604F057FB4FE70321F9E70221F7E74C
:102DA0006FF0850049E76FF0150046E70400AD0BB2
:102DB0000000AD0BF40000205028002070B5002565
:102DC0001E4C1F4ED4F80C3303B970BDB3FA83F315
:102DD000C3F11F039A0002F5807292B202F1A04281
:102DE00002F58712156012680122D8B202FA03F3C5
:102DF000DBB2102BC4F8083311D0402B1BD0042BAE
:102E000016D1D4F84C14D4F84C14890710D1C4F856
:102E10004024C4F804332261D4F80C33D4E70223ED
:102E20007371C4F81451D4F814312023C4F8043356
:102E300033689847F0E77571FAE700BF00E010507B
:102E400040290020F7B5284B284CD3F82C6304F117
:102E500088070EB903B0F0BD96FAA6F00123B0FAC8
:102E600080F08340DA43224926EA0306231893F8C8
:102E70005450830019440C2303FB0543DB6873B3F0
:102E8000D7E8EF3F03EA020CC7E8EECFBEF1000F30
:102E9000F6D1C340DB0719D5020102F1A04202F5C9
:102EA0006222D2F82435D2F82025D1F800C0BCF136
:102EB000000FCED04FF0000CC1F800C00C2101FB78
:102EC000054529690091E9688847C2E705F10C03C7
:102ED00004EBC30C54F83320DCF80430E5E70A684F
:102EE000002AB6D00B60B4E700200E50400000204E
:102EF00000210E502DE9F04F82464FF000098DB0B1
:102F00001D46531E01910393039B58785C1C252892
:102F100019D100204FF0FF381E46444603460236C2
:102F2000029031780396392955D81F2914D80029E1
:102F300000F0EF8101992520D04701993078D047E2
:102F400009F10209E0E7002800F0E3810199D04788
:102F500009F101090394D7E7A1F12002192AE9D860
:102F600001A757F822F000BFD12F0000352F000035
:102F7000352F0000D12F0000352F00005130000008
:102F8000352F0000352F0000352F0000352F0000B1
:102F90009D300000D12F0000352F0000B13000001F
:102FA0005D300000352F00006B3000008B300000DA
:102FB0008B3000008B3000008B3000008B30000025
:102FC0008B3000008B3000008B3000008B30000015
:102FD00008460136A5E7582900F0EB80A1F163020D
:102FE000D7B2172FA6D8172AA4D801A757F822F0CE
:102FF00059320000D7300000352F0000352F000077
:10300000352F0000B7300000D7300000352F00000A
:10301000352F0000B7300000352F0000352F00009D
:10302000352F00008D310000352F0000352F0000B6
:103030002D320000352F0000D7300000352F000062
:10304000352F00008D310000352F0000B730000013
:1030500025200199D04709F1010955E7029A4FF05F
:10306000000802F0FE020292B3E7002C0DDAB8F17C
:10307000000F0DDA029A002A00F043810A2224EAA6
:10308000E47402FB0414303CA3E7B8F1000FF5DB55
:103090000A2202FB0812A2F130089AE7B8F1000FE9
:1030A00055F8042B80F22F81002A80F22E815442A1
:1030B000022202928DE7682903D1682B06D14823AA
:1030C00087E76C2902D16C2B00F02181002B7FF463
:1030D00031AF0B467DE77A2B06D1752955F8046B85
:1030E00014D14FF0000B0CE06C2BF6D04C2BF4D12C
:1030F000073525F00703752903F10805D3E9006BAF
:1031000006D120283BD1854F013C09E04FEAE67B00
:10311000BBF1000FF5DA7642814F6BEB4B0B013CB4
:103120000DF12D03059300230493304659460A22DE
:103130000023FDF7A3F9059BB446303203F8012DB7
:103140005A460593049BBCF10A0F8B4672F10002AC
:1031500003F1FF3106460491E7D2C3F1010B30338E
:103160000DEB0306B8F1000FA6F104066DDA029B21
:10317000D9077DD4A8EB0B03A4EB0B0413E02B2899
:103180000ABF684F684F04F1FF34C9E770290FD1B7
:1031900055F8042B0023FAB96FF004034FF0050B28
:1031A000614F624E053C029A920770D4A04666E0D9
:1031B00078216C2B03D1002355F8042B08E04C2B0D
:1031C000F9D1073525F007031D465B6855F8082B34
:1031D000232825D1880621D5554F023C002601F031
:1031E0006001A1F1390B0DF12D0E02F00F0109293B
:1031F00088BF594430310EF8011D102A4FEA1211D0
:1032000041EA03714FEA131C73F1000306F1FF302A
:1032100008D2C6F1010B06F13003A1E7454FDCE708
:10322000414FDBE706460A466346DEE755F8046B86
:10323000304604F0B1FEB8F1000F834602DB404592
:10324000A8BFC3464FF00008374FA8EB0B03002B75
:1032500092DDA4EB0804A6E755F8043B4FF0010B00
:103260008DF81830304F4FF0FF33013C06AE9AE72F
:10327000A046EAE7029320200199D047029BB8F1CB
:103280000108F7D524EAE472013C9144A41AB84637
:1032900006E0049302920199D047029A049B90465B
:1032A000424612F8010B0028F3D11A46013A15D50F
:1032B000002BACBFC7EB03077F425B46013B15D534
:1032C000BBF1000FA8BF5F4426464F44013E14D512
:1032D000002CA8BF3F1907EB080915E604930292DA
:1032E00030200199D047049B029ADFE702930199AD
:1032F00016F8010BD047029BE0E701992020D04748
:10330000E4E70122D5E6904663E6144661E64C23E5
:103310005FE648460DB0BDE8F08F00BF6B9D000032
:10332000B7970000B997000090A50000C197000072
:10333000BB970000BE9700000FB41FB5002106AB7D
:1033400053F8042B044800910393FFF7D3FD05B015
:103350005DF804EB04B07047E907000005460C4631
:1033600007B5C9B18B682A480093D1E900234521EC
:10337000FFF7E2FF636945210093D4E90323254861
:10338000FFF7DAFF4521E2692348FFF7D5FF452122
:10339000A2692248FFF7D0FF012D2DD1EFF305825E
:1033A00045211F48103AFFF7C7FFEFF31183202391
:1033B00083F31288BFF36F8F1A4B53F825301A4AE4
:1033C0004521127C194800922A46FFF7B5FF3CB10F
:1033D000E369C3F308031BB145211548FFF7ACFFB0
:1033E00045211448FFF7A8FFEFF31183202383F34F
:1033F0001288BFF36F8FFEE7EFF31183202383F36F
:103400001288BFF36F8F042DD6D90B4BD7E700BFBF
:10341000D5970000099800003D98000051980000E1
:1034200084980000E49600009C2900209C980000ED
:10343000C9980000EF980000C797000038B5134CFA
:10344000D4F89030C3F30723013B984207D90246D2
:1034500045210F48FFF770FF6FF0150038BD0D7A5A
:103460000B6805F01F0223F01F031A43CB686D0998
:1034700023F01F0343EA450343F00103C4F8980017
:10348000C4F89C20C4F8A030E8E700BF00ED00E0DD
:1034900003990000012938B504462FD14368002163
:1034A000D868FDF741FC64680021E0682568FDF7F5
:1034B0003BFC0823C5F8003594F82C3053B1E26882
:1034C0005368127A03EBC2029A4212D845210D4882
:1034D000FFF732FF227A52B9A36AC5F804370123F5
:1034E000C5F80837C5F84C21D5F84C21AB6200204F
:1034F00038BD59790029EDD00833E5E76FF0850034
:10350000F6E700BF2E99000010B5244C4521244851
:10351000FFF712FFA36A99013ED522484521FFF724
:103520000BFF1E20A36ADA0104D51F484521FFF7CF
:1035300003FF1F20194CA36ADB0204D51B48452159
:10354000FFF7FAFE0220A36A1C0304D518484521A0
:10355000FFF7F2FE2120114CA36A590304D5154848
:103560004521FFF7E9FE2220A36A9A0304D51248F9
:103570004521FFF7E1FE2320084CA36ADB0304D5B5
:103580000E484521FFF7D8FE2420A36A6FEA0343C3
:103590006FEA1343A36210BD1D20C3E700ED00E0F6
:1035A0004C9900006999000081990000A0990000E1
:1035B000CF990000F29900001C9A00003B9A00008D
:1035C00070B5284C06460D4627484521FFF7B4FE46
:1035D000A36AD9043BD525484521FFF7ADFE172046
:1035E000A36A1A0504D522484521FFF7A5FE182035
:1035F0001C4CA36A9B0511D51E484521FFF79CFE74
:10360000A26BA36A180408D545211B48FFF794FE56
:103610001EB1A36A23F40043A3621920114CA36ACC
:10362000590504D515484521FFF786FE1A20A36ADF
:10363000DA050ED512484521FFF77EFE1B20094A08
:10364000936A43F47F43936200232B7070BD16206E
:10365000C6E7A36A9B04F2D50A484521FFF76CFE32
:103660001C20ECE700ED00E06B9A0000869A000059
:103670009C9A0000B49A0000D29A0000EC9A0000D4
:103680000C9B0000299B000070B5294C06460D4696
:1036900028484521FFF750FEA36AD80646D526489C
:1036A0004521FFF749FE1120A36A190704D52348D5
:1036B0004521FFF741FE12201D4CA36A9A0711D540
:1036C00045211F48FFF738FE626BA36A1B0608D529
:1036D00045211C48FFF730FE1EB1A36A23F080038A
:1036E000A3621320124CA36ADE0704D516484521B5
:1036F000FFF722FE1420A36A9C0604D51348452137
:10370000FFF71AFE15200A4B9A6AD10658BF9A6A2B
:103710009A6A920642BF5A6A22F400525A629A6A20
:1037200042F0FF029A6200232B7070BD1020BBE7AD
:1037300000ED00E05D9B0000789B00009C9A00007B
:10374000B09B0000CD9B0000E89B0000299B00007F
:103750004FF0A53330B5ADF50B5D8BB00DF50054D2
:103760000434D0F8E052036001464FF43972204629
:1037700004F029FC4FF40052264901A804F023FC70
:1037800001AB03F50850EAB223493D3004F01BFCBD
:103790002249234D0B7D04F12C0084F83C32CB6987
:1037A0004FF4047263600B6A4431A36051F81C3C0F
:1037B000E36051F8183C2361D1F82032A361D1F8BD
:1037C0001C32636111F8043C84F8283051F8083C3D
:1037D000636251F8103CE36151F80C3C2362114CD8
:1037E00004F0F1FB4FF440522968206803F08DFC8F
:1037F00042F2E4232968206801AA03F080FC20B18A
:103800000948FFF799FD6FF01E000DF50B5D0BB039
:1038100030BD00BF4198002041B80020C889002079
:10382000308C0020348C00200C9C00004FF0A5331D
:1038300070B504460D460A4E03604FF4805230685E
:1038400003F063FC4FF4397322462946306803F0D5
:1038500056FC20B10348FFF76FFD6FF01E0070BDEE
:10386000348C00201E9C000038B5244D0446D0F84E
:10387000D0124FF40052286803F047FCC0BBD4F8C4
:10388000D012286801F50053C4F8D8321C4A4FF40E
:10389000005303F034FC054630B11A48FFF74CFDE5
:1038A0006FF01E05284638BDD4F8D032D4F8D422A3
:1038B00003F500539342C4F8D0321CDAD4F8E02266
:1038C0001149A2F50052C4F8E022A1F5005004F01D
:1038D0007AFBD4F8E0220C4904F23D2004F073FB9B
:1038E0000A4B2046196801F54051FFF79FFFD9E7C1
:1038F0006FF02205D6E76FF01B05D3E7348C00206C
:1039000041980020309C000041B80020308C0020FD
:1039100038B515460446002847D0B2F5805F05D972
:10392000234803F07FFB6FF01E0038BDD0F8E03273
:103930002048184404F047FBD4F8E0321D44B5F5A4
:10394000005FC4F8E0522ED32046FFF701FF1A496A
:103950004FF404720B7D04F12C0084F83C32CB69E7
:103960004431636051F8243CA36051F81C3CE3608F
:1039700051F8183C2361D1F82032A361D1F81C32F0
:10398000636111F8043C84F8283051F8083C636204
:1039900051F8103CE36151F80C3C236204F013FB36
:1039A0002046FFF761FF0020BFE76FF02000BCE773
:1039B000429C000041980020C889002070B5374E15
:1039C000ADF50B5D364D8AB0044642F2E423316812
:1039D000286801AA03F08DFB48B13248FFF7ACFC20
:1039E0006FF01E0528460DF50B5D0AB070BD3168FD
:1039F00028684FF43973224601F5405103F079FBF2
:103A000005460028E9D1D4F8C032013318D0BAAB4A
:103A100003F5E853D3F8E412D4F8C8221C339142DA
:103A200005D1D3F8DC22D4F8DC329A422ED0BAABDE
:103A300003F5E853D3F8EC22D4F8D0329A4225D1DA
:103A4000BAAB03F5E8514FF439721C31204604F04B
:103A5000BAFA4FF4005201A9134804F0B4FA8022D4
:103A60000DF509511148013104F0ADFA6369002BDD
:103A7000B8D0A2699342B5D8D4F8C03203F5007328
:103A8000C4F8C0320023C4E90533ABE7D4F8E02220
:103A9000802AEBD8044804F23D21E5E7308C002071
:103AA000348C00204E9C00004198002041B800203A
:103AB00000232DE9F04F7B4DA7B0C5E99833FEF701
:103AC000B5F80028FBD02C69002C00F0E780D4F872
:103AD000DC32002B40F0A8800A221E46DFF8C89195
:103AE0007248B9F8001003929AB2914264D8DFF894
:103AF000C08132466F48FFF71FFCD8F800306E4A8D
:103B000003F58043334493425CD8360B06F1010A37
:103B100001266A4FD4F8C4124FF48052A1EB06314B
:103B200001363868B6B203F0F0FA5645F2D9D4F847
:103B3000C432013EA3EB06339A460026DFF87CB17F
:103B40000093B9F80020B3B29A4241D85C4B5D4A69
:103B50001B78D8F800100C331B03C4F8C83203F5E7
:103B60007F23C4F8CC324FF44043C4E9B432C4F8E4
:103B7000D832554A504B01F54051C4E9B0230023D7
:103B8000C4F8E032A9F80030009B2046C4F8DC32CB
:103B9000FFF74CFE4FF44052D8F80010386803F09D
:103BA000B4FA04234949386803AA03F0A8FA0028A4
:103BB00064D06FF0240425E030F8022F0133063280
:103BC000164491E74248FFF7B7FB6FF01E0419E077
:103BD0004048B2B202F5005330F81330991D0191FC
:103BE00050F82210DBF800000DF11602ADF810308D
:103BF000CDF8121003F07DFA40B13748FFF79CFB77
:103C00006FF01D04204627B0BDE8F08F5146019BA0
:103C1000DBF8000004AA03F072FA013608B12F485D
:103C2000D1E7019B9A448CE70223244E04934FF47E
:103C30000052D4F8D012306803F067FAD8B9D4F83B
:103C4000D012D4F8E032264A306803F058FA014620
:103C500018B12448FFF770FBB7E7D4F8E022D4F896
:103C6000D032C4F8E0021344C4F8D0321749042318
:103C7000306804AA99E76FF02204C3E7D5F85432FC
:103C80006E6A2BB934462146174803F0CBF9B9E7E1
:103C90001648984704460028F5D1F3E76FF0200452
:103CA000B0E700BFC8890020C0890020BE6900209D
:103CB000308C00205F9C000000B01700348C002086
:103CC0000801002000B0100028C8100000C8100033
:103CD000849C0000C0290020AD9C0000BD9C000019
:103CE00041980020CE9C0000E59C0000F88900204F
:103CF0002DE9F043804691460D46ADF5017D29B191
:103D00002A4BDA69D3F86012521ADA610024A84506
:103D10000AD8002C3FD0FFF7CBFE3FE0002C26DB7B
:103D2000FDF784FF04461BE0002CF4D1A8EB050747
:103D3000B7F5007F28BF4FF4007769463A464846FA
:103D4000FCF73AFD78BB194EF369C6F85CD23B44E8
:103D5000F361D6E998239A4208BFC6E99874002413
:103D6000D6E998239A42D9D1012C08BF0024D9F86A
:103D7000C0323D443B44C9F8C0320D4B1B78022B86
:103D8000C5D164236B434246B3FBF8F32946094887
:103D900003F048F9BBE7FFF78BFE044620460DF51C
:103DA000017DBDE8F0836FF00904B4E7C889002005
:103DB0003E900020029D0000002210B50C4B1C78A4
:103DC00084420FD00132072A03F11003F7D16FF0BC
:103DD000010010BDD2685078C00706D5107820B910
:103DE0000B60F6E7DA68002AF4D16FF01200F0E712
:103DF000D08200002C232DE9F3411E4D0F4603FB1A
:103E00000055EB682E89D5F820801E4404233146E6
:103E100040460DEB030203F0E4FC044620B101240C
:103E2000204602B0BDE8F08146F60813BDF8042034
:103E30006D899A421AD1BDF806309D4201D0032403
:103E4000EEE7042340460DEB0302A91903F0C9FC79
:103E50000028E4D146F60713BDF804209A42EED1BB
:103E6000BDF806302B4433443B60D9E7002DF1D038
:103E7000E5E700BFC42700202DE9F0415C4B054673
:103E80005F6800268AB0C7F3080486F31188BFF381
:103E90006F8F02F07F43B3F17F4F07D102F00C0325
:103EA000082B14D145215348FFF746FA0026354622
:103EB0004FF00008E31E8DF80780092B00F2838085
:103EC000DFE803F00A767A7281818181817E1007B2
:103ED0004CBF0D460126EBE745214748444CFFF710
:103EE0002BFA8DF80780E36A9A0705D545214348E8
:103EF000FFF722FA002432E0E36A002B02DA4521C0
:103F00003F48F5E7E36A5B00F4D545213D48FFF7FC
:103F100013FA6369AA6943F480736361BFF34F8F37
:103F2000BFF36F8F636932F8022C23F480736361EF
:103F3000BFF34F8FBFF36F8F4DF602739A4208D0D5
:103F4000A36ADBB213B301200DF10701FFF79CFB5D
:103F50002CE045212A682C48FFF7EEF92C689DF8E3
:103F60000730002B41D12022294602A804F02BF86B
:103F7000099BAEB3C3F3080222B96FEA53236FEA79
:103F800043230993204602A9FFF7E8F9A36A13F433
:103F90007F4F05D001200DF10701FFF711FB05E070
:103FA000A36AB3F5803FA5D3FFF7AEFA0446D6E780
:103FB00000200DF10701C9E700200DF10701ECE732
:103FC0004521124894E7124917F4F87F114A124824
:103FD00008BF0A46A4F110034521FFF7ADF989E7B0
:103FE00023F4FF7323F00103CBE70AB0BDE8F081AF
:103FF00000ED00E06D9D00009D9D0000B99D00005A
:10400000DF9D0000F29D0000169E0000379E00001C
:104010003F9D0000549D0000609E000010B572B6E8
:10402000002484F31388FCF7F3FC23464FF0FF30A1
:104030000C4A03F120010133102B42F82100F8D182
:1040400000234FF0FF30074A03F160010133102BCA
:1040500042F82100F8D162B6BFF34F8FBFF36F8FE4
:1040600010BD00BF00E100E08FB59D4A9D4B22F0DE
:104070007F029A60BFF34F8FBFF36F8FD3F8882012
:10408000994822F47002C3F88820984A0021121A35
:1040900003F0A4FF9648974A9749121A03F093FF3A
:1040A0009648974A9749121A03F08DFF40F20F1471
:1040B000002210B201210132FCF7DCFCA242F8D14F
:1040C0000020FDF707FA904B03F5006282F30888A1
:1040D00083F30A88E022834BDFF8308283F82220C2
:1040E0000022DA771A765A769A7683F82020596A6F
:1040F00041F4E021596283F82320596941F010010D
:104100005961596941F480615961596921F0080187
:104110005961102119614FF0FF319962D962D3F8CA
:104120009010090A11F0FE0F2AD0BFF35F8F784973
:10413000C3F89420C3F8C01002217648C3F8982031
:10414000C3F89C10C3F8A0000120C3F8980000F148
:104150000050C3F89C0000F57F3000F2E230C3F855
:10416000A00088F80010D3F89000C0F30720814227
:1041700017DB0522C3F89420BFF34F8FBFF36F8F77
:10418000654998F800404E68002E00F085801F2E8B
:1041900022D8002245216148FFF7CEF86FF01504C0
:1041A0007AE0C3F89810C3F8A0200131DBE720467D
:1041B000C3F89850D3F89C2026F01F0602F01F0287
:1041C0001643C3F89C6003F0A8FA61E04F45EED1B6
:1041D000E8B203F0A2FA5FE0F206DAD10A68D30689
:1041E000D7D1104603F001F8164406F1FF39054611
:1041F000484602F0FAFF85426BD115F1160F6AD0DE
:10420000A54268DA374BC3F89850D3F89C00C3F83E
:104210009850D3F8A07020F01F00824247F01F078B
:10422000D4D0013AC3F8985022F01F00D3F8A02050
:104230004F4502F01F0242EA0002C3F8A0202046C8
:10424000C1D003F06AFA10F1160FA7D0254B013F39
:10425000C3F89850D3F89C109DF80820013061F302
:1042600004028DF80820D3F8A030009626F01F062F
:1042700037445B08D2B2A7EB090763F3471227F074
:104280001F076946C0B28DF808200397FFF7D6F8DC
:1042900010F1160F82D0441C012088F80040FDF771
:1042A00019F90220FDF716F9002383F30B881C4C43
:1042B0001C4DA4F5A04686F30B8884F309880020E2
:1042C0001A498847184619461A46A8471848804789
:1042D000FEE76FF015052A46452113485CE700BF4D
:1042E0000000000000ED00E038010020C4B800200C
:1042F000400000203801002018B1000040000020DC
:104300004000002018B10000C8080120409800209B
:10431000AAFF4400E1CF1700D8960000789E000065
:10432000C8080120294A0000A09E0000DB79000097
:10433000E979000030B50D46816887B0102302AAE4
:104340001039044603F04DFA002802DA012007B0C4
:1043500030BD1022204602A903F00BFB00283FD1FC
:104360001022204902A803F01EFE00280CBF0123E2
:1043700002232B70A1680123203921F00F01204670
:104380000DF10702203903F02CFA0028DEDB9DF83E
:104390000730204603F00F021B096A702B710122BF
:1043A0000DF1070103F0E5FA10B96B78042B03D97E
:1043B00001236B7000232B71A2682046203A22F063
:1043C0000F02103AA91C03F0E5FA0028BED1A2683A
:1043D0002046203A22F00F02E91C03F0DBFAB6E790
:1043E0000323C6E76C97000030B5816885B01039AB
:1043F00021F00F04054603F077FA102201466846C3
:1044000003F0ECFD10226846064903F0DCFD1023A2
:104410006A462146284603F04DFA003818BF0120AD
:1044200005B030BD6C9700002DE9F04F0025DFF896
:10443000F081ADF2145D04460E467A484921FEF73C
:104440007BFFD8F824305B6807932B46079A2F46EA
:1044500013449E4205F10105F8D8FCF701FE2A46F7
:10446000009049217048079BFEF766FF204603F045
:1044700042F920B34FF4C062D8F85C30D8F8286015
:10448000534300225033013E07990A449A4201D215
:10449000013EF9E7AE4212D857216448FEF74CFFBF
:1044A0000799079BBA1C73434A4361485721FEF79B
:1044B00043FF0123E3710DF2145DBDE8F08FD8F8DE
:1044C00020B05C4F5C4B8BAE3B603246202300211A
:1044D0005846D8F84C9003F084F900205A463146EB
:1044E00002F078F9282332465449386802F001FE78
:1044F00000287BD13368524ADFF848A1934266D145
:104500000A238AF800300E234C490B9338680423A1
:104510000BAA02F0F4FD002868D14B4802F082FD9E
:1045200071684A4B01F586121960494B02F6280260
:104530000B44C2F30B029A1A464BB1F5005F1A60A6
:1045400068D201234448037000929AF8002043483F
:1045500002F068FD6368424A03F0FF23934229D1C9
:104560002368012B26D131464846FFF7E3FE327817
:10457000012A52D03B4B3C49032A08BF0B46F27834
:1045800049210292B2783948019272780092384AF1
:10459000FEF7D2FE3378032B0CD1484601F052FED1
:1045A000484603F076FA4846A16803F063FA4846A5
:1045B000FFF71AFFFCF754FD492102462D48FEF78C
:1045C000BBFE6379012B40F09B802F4692E00E2BBF
:1045D00003D10A238AF80030A2E70A2B01D1022373
:1045E000F8E7022B08BF8AF8000099E76FF0240172
:1045F000214802F017FDD9F80820002A3FF45BAFEC
:10460000D9F80410D9F80C000DF2145DBDE8F04F94
:1046100002F07BBDC1F3473394E7184BAFE700BF0F
:10462000C4270020D79E0000009F0000379F000095
:10463000669F0000348C0020F880000000C8100045
:104640004E4557503E900020979F0000BC0100202F
:1046500028D81000308C0020080100200AA000009B
:1046600000010004D39E0000CD9E000065A0000064
:1046700055A00000A6A00000CE9F0000C89E00002C
:104680002168C1F101032B44BB4232D3B14AD8F8AF
:104690002430127818683A44013A53F8322003EB78
:1046A000C70353F8083C121A1B1A012909920893F0
:1046B0000CD1E368022B06D0584601F0C3FD214619
:1046C000584601F027FD484601F0BCFD079B5946BE
:1046D00000935846DDE9082301F048FD204601F02B
:1046E00073FD23680133236018B19B4A13680133BB
:1046F0001360013F002FC3D10123236003236371A3
:104700004FF439720021304603F068FC9AF800300B
:104710000A2B4AD14FF4404100278E4BDFF83CE290
:104720001A78DFF83C820C32120302F57F23C6F8B8
:10473000CC328C4BDFF830C2C6E9B4138B4B8C48BB
:104740001F808C4BC6E9B00CC3F800E0DFF828E20C
:10475000DF61C3F804E0D8F800E09F62C3F808E026
:10476000DFF818E21E61C3F80CE01F75C3F854723D
:104770004FF4E023C6F8C822C6F8D812CDE90013DA
:10478000CDE903C74FF480134FF4006102907C48D9
:1047900002F048FC32463946D8F80000FFF7A8FA84
:1047A000B84273DD02238AF80030FCF759FC492136
:1047B00002467448FEF7C0FD734B1B78022B40F095
:1047C00086800DF50B784046FFF7F8F800285DDB92
:1047D000684E6E4A624B32601B68674AC6F81080AA
:1047E000C6E9012300236A4AF361F260B362D8F894
:1047F000C0223375C6F85432664B9A425CDD664877
:104800000DF12C0A4FF4007352465949006802F02A
:1048100070FC00283AD14FF400733769C6E998302C
:10482000C6F85CA2FDF792F997F83C3282463375E0
:104830007B684FF40472F361BB6807F12C013362AB
:10484000FB6806F14400B3623B69F362FB69736382
:104850007B6AF3633B6AB36397F8283086F840308D
:1048600003F0B1FB7B69C6F86032BB69C6F86432FD
:10487000D7F8E032B3F5005F03D33846FEF7F4FF14
:104880008246BAF1000F17DA0823337504236371E7
:104890006379042B7FF40FAEDFF8B8803F4898F8B7
:1048A000001002F0BFFB0126DFF8ACA0AE4216D923
:1048B000012323606371FEE5D8F8C012284BA1F5EF
:1048C000861142461868A1F62801FFF711FAFCF795
:1048D000C7FB492102463248FEF72EFDD8E7216882
:1048E000B14234D82F4B98F800205B6A3244013A29
:1048F000186853F8327003EBC60353F8083C0129DB
:10490000A3EB0003A7EB000708930CD1E368022B8D
:1049100006D0584601F096FC2146584601F0FAFBB5
:10492000484601F08FFC079B3A465946009358468B
:10493000089B01F01BFC204601F046FC2368013374
:10494000236020B1DAF800300133CAF800300136B4
:10495000ACE700BF08010020C00100204D070000A7
:10496000BC01002000B0100000B01700C08900207A
:1049700028C81000C88900204D710000197100007E
:10498000D3A0000065A100003E900020651D00003E
:104990001139000027C81000348C0020AFA100009E
:1049A0008AA10000C4270020002273B50446CDE987
:1049B000002202F0A0FE28B3174E184D3368AB4218
:1049C00003D1104601A9FFF715FAF36AAB4203D1F0
:1049D00069460120FFF70EFADDE90032934288BFF5
:1049E0000193019BA36020460199FFF71DFD0C4B2D
:1049F0001A68002A03DD57210A48FEF79DFC0020B3
:104A000002B070BD01F0CCFD04F1080102F046FFD8
:104A1000A3680193E7E700BFC42700203DB8F396E1
:104A2000C00100200EA2000001252DE98048B34BF3
:104A30008FB003201D70FCF74DFD0420FCF74AFDEC
:104A40004921AF48FEF778FCAE4C60220021204699
:104A500003F0C4FAAC4B0220636204F1200103F5B9
:104A600080532365FFF7A8F910BB052004F14C0122
:104A7000FFF7A2F930BB4FF400760220626A0AA960
:104A80000A9602F064FEF8B1324657219F48FEF7BD
:104A900053FC012384F858308DF82F3094F85830A7
:104AA000FF2B40F0BD8145219948FEF745FCFEE70C
:104AB00000250222CDE90050002345219548FEF74C
:104AC0003BFCFEE70522F5E70A9B0520226D0AA9BB
:104AD000A3620A9602F03BFE78B1324657218B481A
:104AE000FEF72AFC84F85850002001F07BFD804638
:104AF00050B1002257218848C9E70A9B206A6365A4
:104B000002F0EBFEE065EFE701230A9303F10123D6
:104B1000CDE90B300D9006A9206AFFF70BFC9DF83C
:104B20001820012A00F0A8807C4B7D49032A08BF89
:104B30000B469DF81B20492102929DF81A207948C6
:104B400001929DF819200092774AFEF7F5FBE06C80
:104B500008A9FFF7EFFB9DF82020012A00F08E80C6
:104B60006E4B6F49032A08BF0B469DF8232049214D
:104B700002929DF822206B4801929DF8212000921C
:104B80006A4AFEF7D9FB9DF81830012B78D19DF8C1
:104B90001A30032B74D19DF82030012B70D049219D
:104BA0006348FEF7C9FB0223276A0D933B78022B6B
:104BB00040F09D803846E56D02F08FFE40F2FF53D5
:104BC0004FF4C069BE685FFA85FA503E03FB0A667F
:104BD0004FF0FF35012309FB10669B463146012348
:104BE000384608AACDF8109002F0FBFD031E09F12B
:104BF000FF3905937EDB0122384608A902F0B9FE91
:104C0000059B002800F0A0805B4501D008F1010859
:104C1000A6EB0A06B9F1000FDFD1B8F1010F03DDF1
:104C200045214448FEF788FB6A1C09D0B5F5007F92
:104C300080F2908040F2011301350A95ADF82C30D6
:104C4000B9680123203921F00F01384608AA20391C
:104C500002F0C7FD00284DD10122384608A902F014
:104C600088FE10B101238DF820309DF8203003F02C
:104C70000F038DF82F3009E02F4B5AE72E4B74E7C6
:104C800049212E48FEF758FB00230D939DF82F3045
:104C90009DF82D2000930A999DF82C30284802F0A9
:104CA000C1F90AA802F027FD002869D10AA8FFF778
:104CB0007BFE9DF82F3084F85830033B012B05D83C
:104CC00003F051F910B1FF2384F858309DF82F30CC
:104CD000023B022B4CD803F02FF9002848D0FF23C9
:104CE00084F8583045210A48FEF726FBFEE7052BDD
:104CF0003FF460AF002257211248C8E63F980020D9
:104D00003DA20000C4270020C4070020A3A2000089
:104D1000E1A3000056A20000E5A20000D39E00001F
:104D2000CD9E000065A0000011A3000055A000006A
:104D30001FA3000055A30000C89E00003EA3000072
:104D4000A2A3000078A30000049AB5F1FF3F08BFBA
:104D500015465DE70223A5F500758DF82D306B1023
:104D600005F00105013301350A938DF82C5067E7F2
:104D700094F85830FF2BB5D00AA801F033FC88E630
:104D80009DF82F60012E30D101F098FC831E022B7C
:104D9000054611D830460AA902F072F8B0B9E8B257
:104DA00084F858008DF82F00012827D83FF476AEFC
:104DB000FF2384F8583071E6C0B2042884F8580004
:104DC0008DF82F00F0D9052807D0F1E7012807D08A
:104DD000052384F858308DF82F3003F0C4F81CE018
:104DE00084F858008DF82F0058E601200AA902F037
:104DF00047F80028ECD19DF82F00DEE70AA8FFF75E
:104E0000D3FD94F85830023B022B3FF647AE03F037
:104E1000AAF80028CCD103F08FF80028C8D13DE6CD
:104E20000020012B08900CD10021084602F028F840
:104E3000054650B9089B01330893089F012F0ED0F7
:104E4000FEE701F0CFFB0028EED0102200210AA8D7
:104E500003F0C4F845216A48FEF76EFAFEE7236ABC
:104E6000014610220AA8D3F8048003F0B7F84921BC
:104E700042466448FEF760FAE38A49210093637D65
:104E8000227D6148FEF758FA49216048FEF754FA3E
:104E9000228967234244DFF87881AA46D8F8044083
:104EA0005C4EE443DFF87091326004F06704C9F8A7
:104EB0002833002C40F082804FF001094FF0FF377B
:104EC000E420FBF7C5FD544B544DD3F84827C620CA
:104ED00022F00102C3F84827D3F8102522F001027E
:104EE000C3F81025D3F8102522F00202C3F81025CC
:104EF000C3F86490C3F8689088F80040C5F8087358
:104F0000FBF7A6FDC5F82C90C5F85041D5F85031F7
:104F1000C5F84C41D5F84C31C5F82441D5F82431B9
:104F2000C5F8004505F578354FF48270C5F808736B
:104F3000FBF78EFDC5F82C90C5F85041D5F85031DF
:104F4000C5F84C41D5F84C31C5F82441D5F8243189
:104F5000334BC5F80045C3F80873BFF36F8F72B6C3
:104F60002346304A03F120010133102B42F821700F
:104F7000F8D14FF0FF3104F160030134102C42F8F6
:104F80002310F8D10024284BC3F80444FBF740FD5C
:104F900084F30B8884F30A8833681B6883F30888DA
:104FA00084F31488BFF36F8FBFF36F8F33685B6830
:104FB000984745211D48FEF7BFF9FEE7D8F80830AD
:104FC000E9B207FA01F202EA030010F0670F13D00A
:104FD00023EA0203C8F80830D8F80430DB4303F0B2
:104FE0006703134208D009EB0113C3F82CA5E307AC
:104FF00002D50F48FCF792F86408013559E700BF65
:10500000EDA3000010A400003FA400005DA4000078
:10501000400000202428002000200E5000600C508A
:1050200000E0105000E100E0002008E082A4000051
:105030004400002008B501233E4A3F48C2F800382A
:105040003E4AD2F840231C2A04BF3D4AC2F80C3421
:10505000FCF74AF80830FCF747F80830FCF744F84A
:105060000830FCF741F800F5F470FCF73DF8354ADC
:10507000D2F88C3043F44063C2F88C300022D30065
:1050800003F57F0303F54043D3F8001401310AD040
:10509000D3F8001439B1D3F800140132D3F8043432
:1050A000402A0B60EBD1234BD3F84024002A3DD09B
:1050B000FCF70AF848B1214BD3F83423224B9A422B
:1050C0009EBF1C4B214AC3F84026FBF7FDFF18B1D9
:1050D0001F4B204AC3F8AC27FBF7F6FF48B1342238
:1050E000144BC3F82426D3F83C2622F40022C3F83C
:1050F0003C26124BD3F840331C2B08D1164BD3F867
:105100000026D20744BF6FF00102C3F80026032334
:10511000124A0C49C2F81835D1F88C3043F4406378
:10512000C1F88C300023C2F8A03508BDC822C3F8EE
:105130004024BDE70000125000C50D5000C0FF0024
:105140000030055000ED00E0001D0A1840E0A91EE7
:1051500000A0085078000A0400E0105000B004508D
:1051600010B50A46044620B119B1054B00211B6851
:105170009847044B2046BDE810401B68184700BF05
:10518000D4000020D80000202DE9F0430446002779
:1051900093B00DF11F05DFF8748025F01F05102274
:1051A00001231B4911F8010D013A03440B704FEA2A
:1051B0001323F7D1E81901F003F9A946064600BB0D
:1051C000D8E90C321037013342F10002302FC8E920
:1051D0000C32E4D154B104F1300299F8003014F8E3
:1051E000011B4B40A24209F8013BF6D1202229467F
:1051F000064802F0E8FE1022064805F1200102F000
:10520000E2FE304613B0BDE8F08300BF3801002055
:105210006801002058010020074A1368591C1160DA
:105220004BB9064A4820D2F8003443F00703C2F8CD
:105230000034FBF7FFBB7047C4010020008004501E
:1052400010B5124B1C68013C1C60ECB94820FBF700
:10525000FFFB07220E4BC3F80823D3F8002422F0EB
:105260000702C3F80024C3F80041D3F80021C3F8B3
:105270000441D3F804214FF48072C3F80841D3F8F5
:105280000831044BC3F8882110BD00BFC4010020C1
:105290000080045000E100E010B51E4C4368B4EB00
:1052A000132F4FEA132215D142691B4B9A420CD09F
:1052B00003F5FF437D331344012B03D80388B3F573
:1052C000105F1DD06FF0860019E047F212130288BC
:1052D0009A42F6E7114B9A42F4D1028802F44F4306
:1052E000B3F5824F0ED1438844F212100733824245
:1052F0004FEAD30301D15B00013300200B6010BDE6
:105300000223FAE7B2F5885FFAD143880733DB0856
:10531000F3E700BF004E800001C0FF7F4B4E8000CE
:1053200008B5FCF73DF901230360104B0A6832B958
:10533000D3F80C211AB9D3F80821002AF6D00B684B
:105340007BB90B4B99420ED0A3F58473D3F8083187
:10535000002B0CBF4FF0FF306FF00200FCF720F97C
:1053600008BD0020FAE74FF0FF30F7E70050045087
:105370000851045010B50446012001F007F9064B0E
:105380000649C3F800450648FFF7CAFF0446002057
:1053900001F0FCF8204610BD0050045008510450A4
:1053A0000850045038B5064D0C46C5F800050549AF
:1053B0000548FFF7B5FF10B9D5F80835236038BDAB
:1053C00000500450105104500C50045040292DE955
:1053D000F04104460E462FD80378033303F003034D
:1053E000012B21D86FF0210002F0B3FB054640B934
:1053F00013493246204602F0E6FD4021104802F0F3
:1054000006FC2846BDE8F081637838462B44C8F88E
:105410000035FFF785FF68B901352378C3F38203B0
:105420009D42F1D30020DFE70025DFF81880064910
:10543000064FF2E70220D7E76FF08905E1E700BFEA
:105440000000002000500450045104500450045047
:105450002DE9F7438846DDE90A791E46A8495368D5
:105460001446B1EB132F05464FEA132203D0A54B88
:105470009A4240F04281A44BEB1868F10002032BE2
:1054800072F1000249D2A14BEB1868F10002022B25
:1054900072F100029E4B1ED39E4A01A8C4E900236C
:1054A0009D4BE3604FF47053019302F023FB019B8B
:1054B0000146A3602046FFF7EFFE48B9019B9F42DB
:1054C00002D26FF0890003E0C9F80030002070704C
:1054D00003B0BDE8F083914A01A8C4E900234FF06E
:1054E0000823E3604FF44043019302F003FB019B68
:1054F0000146A3602046FFF7CFFE0028E8D1019BBC
:105500009F42DED3C9F80030854B804508BF9D42DD
:1055100014BF012302233370D8E76946284602F0FE
:10552000A6FB0028D4D1B5F1F80348F1FF38022BCF
:1055300078F10008C0F0D28002F075FB0028C7D1D6
:105540009DF8001011F00F0240F0CB80BDF8023042
:10555000C3F3C113013BDBB2022B00F2C5807148DB
:1055600001F03001C05C704B102943EA0003636016
:105570002CD16E4B2360204601A9FFF78DFE002839
:10558000A6D1019B9F429CD344F2121221889142E2
:1055900004BF042206F8012BC9F800309DF8003042
:1055A0003278C3F3011363F3010232709DF80220D5
:1055B00008BF07F1FF37C2F30212042A009B68D824
:1055C000012A6AD870D06FF0980081E713469046A0
:1055D0009DF803105648490899B901A8CDF80480F0
:1055E00002F088FA9DF80220019902F00F03033BB4
:1055F000A160072B7ED8DFE803F0307D0F7D7D1D95
:105600002226CA0705D5062B71D850F8232048EA70
:10561000020849080133DFE74FF410534549C2F34C
:105620000212013A2380E160032A1CD8DFE802F06D
:10563000192A2C2E4FF410534FF00821EFE74FF4A6
:1056400010533D49EBE711F4A05F47F2421144F2D9
:10565000421318BF0B463949E1E74FF4105338495C
:10566000DDE7802262809DF8002012F0300F82D1A9
:10567000B3F5105F03D118F0030F3FF47CAF6FF068
:10568000960025E7C022EDE7FF22EBE74FF480729A
:10569000E8E7052A97D1032206E044F21211228896
:1056A0008A4214BF0222042203F03003202B00D1CF
:1056B00002323378757062F384033370238803F405
:1056C0004F42B2F5824F04D139463046FFF77EFE95
:1056D000FEE6B3F5885F7FF4FBAEF5E76FF086007A
:1056E000F6E66FF08800F3E66FF09100F0E66FF0F9
:1056F0008300EDE66FF09200EAE66FF08B00E7E6DC
:10570000004E80004B4E8000FF3F0080FE3F008037
:1057100003004E80127100010906000600240001FA
:1057200003C0FF7F46A50000004B4E8001108001A2
:1057300050830000004440040002C003000800063B
:1057400000025005BFF35F8F4FF0A3430022DA61E0
:10575000BFF35F8FBFF35F8F4FF0FF321A63BFF36A
:105760005F8FBFF35F8F3422DA61BFF35F8F012257
:10577000014BC3F80423704700800450EF2938B56B
:10578000044624D903681D6815F0400522D1FFF7AF
:1057900043FD01212176FFF7D5FF104B28466360BA
:1057A00023680F4A1B68C4E90355A36204F12C0364
:1057B000236204F128036362E3671323C4E921230E
:1057C00004F18C03E361074BA160636138BD6FF0A6
:1057D0002200FBE76FF00200F8E700BF4083000003
:1057E00004000020C5150000014610B5164C0B69D9
:1057F0001B68980302D4204601F07BFE0B691A68EF
:105800000B6812F4003216D003F58050406A10F491
:10581000A02F14BF012000200028E8D132B103F5E9
:105820008052526AD1070AD492070AD4BDE81040C8
:10583000D868FBF79DBFD868C0F30040ECE70820AC
:1058400010BD0220FCE700BF8801002010B5154BF9
:10585000186D28BB1A684FF0010C91690824C1F338
:105860000B02482A5A6528BF482211F4003F9A6566
:1058700008BF0022DA65CA0358BFC3E9150001F466
:105880007002B2F5700F08BF986D0029B8BF0022F2
:10589000C3E919C4B8BFC3E91922012298651A6582
:1058A000014810BDC8010020180200202DE9F04F6A
:1058B000874DA1B06A780DF17709022A2B7829F07B
:1058C0001F0901D1072B63D013F001044AD1DFF87F
:1058D00004A2DFF804B2DAF800205A453FD0FFF7FF
:1058E0009BFC7E4B01211C607D4B48201C607D4A47
:1058F000FBF7C0F87C4B7D4952F8040B43F8040BCE
:105900008B42F9D100237A4CE3667A4B236003F58E
:10591000C0436360FFF79AFFA8B1636DF820B3F549
:10592000007FCCBF4FF480634FF400730AA9A360DB
:10593000FFF738FD88BBF9200AA9FFF733FD60BBEC
:10594000FFF77EFC08E00E2002F003F90446FFF7A3
:1059500077FC002C40F022812B78CAF800B043F08D
:1059600001032B702B789E0706D40121624A43F075
:10597000020382F880152B706A782B781AB9DC073D
:1059800044BF02226A7058075CBF43F004032B70C7
:105990000024204621B0BDE8F08F584ED6E90C32E5
:1059A00013432BD0D6E90C32023342F10002B2F598
:1059B000803F4CD220270DF12808102F39464FF098
:1059C000100228BF102101234D4810F8014D013A63
:1059D000234403704FEA1323F7D14846019100F0A6
:1059E000EFFC044670BB0199002F48D1D6E90C3278
:1059F000013342F10002C6E90C32DEE7B26B414BE3
:105A00009A42D7D000231A46F2540133402BFBD1DF
:105A10000AA800F033FC80B90AA8FFF7B5FBA0B9CB
:105A2000034602460AA9CA540133302BFAD1002397
:105A30000122C6E90C23334BB36302F08AF8044613
:105A40000028AFD0FFF7FCFBA8E00E20F5E70AA87E
:105A500000F014FC80B90AA8FFF796FB0446002862
:105A6000F0D103460AAA13550134302CFAD1002292
:105A70000023C6E90C239DE76FF09204E2E74A4653
:105A800008EB010312F8010B08F8010B4345F9D1AB
:105A90009846D6E90C32013342F100027F1AC6E97A
:105AA0000C328AD13846FFF76FFB04460028C9D173
:105AB0004FF4807303A8039302F01CF8039E02F0D6
:105AC000B2F8044600B320210AA802F0A0F8B9E712
:105AD000BC070020D0000020117365008C0100205D
:105AE000880100206C83000000C080511CD38051CD
:105AF000C801002000208051380200203801002019
:105B000068010020B4A5B4A50422394602A802F019
:105B100065FA9DF8083016F0030223F03F038DF874
:105B2000083040F0F48039464FF0010C9DF80B30FE
:105B30007B485B0850F8044B264206D00CFA07F16C
:105B40000B43012103F07F0322430137072FF1D1DB
:105B500029B19DF80B1063F347018DF80B1036EA5D
:105B6000020440F0D780BDF80A30F82023F4F8731F
:105B700043F0C00303A9ADF80A30FFF713FC28B1C6
:105B8000F92003A9FFF70EFC002839D120210AA82B
:105B900002F03DF86FF08A04FFF752FB2B785F07A5
:105BA00000F1BB8043F0010399072B7019D55D4EBE
:105BB0000027B0464FF0010A4FF003093046C6F8FF
:105BC00020A086F81C90013701F071FF202F06F10C
:105BD0002C06F3D1002388F880352B7823F00203BC
:105BE0002B700021504B04221B6869704F48984766
:105BF0004F4B2B78DA0744BF23F001032B70C8E624
:105C000018222146012703A802F0E8F94FF6020303
:105C10004FF0FA08DFF81C9138460993079700F017
:105C2000B5FC03ABC9F8008548464349C9F80435BB
:105C3000FFF776FB0646204600F0A8FC46B120217F
:105C40000AA801F0E4FF6FF09204FFF7F9FAA5E764
:105C50001C22314603A802F0C1F9384B042202A9E4
:105C600009A8089302F0AFF9BDF80A301022C3F377
:105C7000C1130AA903A8079302F0A5F9384600F05A
:105C800085FCF823C9F8003503AB48462A49C9F812
:105C90000435FFF745FB0446304600F077FC2CBB8B
:105CA0001C2103A801F0B3FF4FF0FF33DFF890C0D1
:105CB0001022CDE908C3BDF80A300EA9C3F3C11301
:105CC00003A8079302F07FF9384600F05FFCF92340
:105CD000C9F8003503AB48461749C9F80435FFF742
:105CE0001FFB0646204600F051FC16B101F09BFF59
:105CF000A5E703A81C2101F08AFF4046FFF73AFB05
:105D000000289CD120210AA801F081FF18E66FF03D
:105D10008604D8E66FF08504D5E623F0040341E756
:105D20005083000038020020D4000020C00700206B
:105D3000BC07002000500450005104504000815125
:105D40005000815138B50E4D0446C5E90415FFF7E2
:105D500063FA04220B4B0C49C3F804232B68DA685E
:105D6000D20309D403F580535B6A13F4A02303D153
:105D7000C4E90053204638BD084601F0BAFBEDE700
:105D8000C801002000800450880100200422054B37
:105D900010B5C3F808230446FFF752FA0023236125
:105DA000A36410BD0080045037B56C4605460068FA
:105DB000FFF7ECFF20460D49FFF7C4FF94E803000E
:105DC00085E80300002100F04DFB0446686050B9EF
:105DD000286801F0C5FF2868FFF706FD044610B9E2
:105DE0002868FFF7D3FF204603B030BD08820000CB
:105DF00008B5244B1B789BBBBFF35F8F4FF0A343C9
:105E0000986ABFF35F8FBFF35F8F4FF0A343DA6BE6
:105E1000BFF35F8F10F0240F02F0230226D0BFF3F0
:105E20005F8FDA69BFF35F8FBFF35F8F1021596314
:105E3000BFF35F8FBFF35F8F00215963BFF35F8FA5
:105E4000BFF35F8FD96BBFF35F8F4906F8D422B1E0
:105E5000BFF35F8FDA61BFF35F8F6FF01F0008BD84
:105E6000094801F046FB0028CDD1C5E74FF0FF30CF
:105E7000002AF4D1BFF35F8F1863BFF35F8F104622
:105E8000EDE700BF3F9800208C010020BFF35F8F3B
:105E9000094A1368BFF35F8F43F48071BFF35F8FCC
:105EA0001160BFF35F8F23F48073BFF35F8F1360C4
:105EB000BFF35F8F704700BF0010805102480B1A7C
:105EC00058425841704700BF000800062DE9F041D4
