:020000040000FA
:10C000003DB8F396000000000008000028FF010082
:10C010000000000000000000000000000000000020
:10C02000FFFFFFFFFFFFFFFFFFFFFFFFFFFFFFFF20
:10C03000FFFFFFFFFFFFFFFFFFFFFFFFFFFFFFFF10
:10C04000FFFFFFFFFFFFFFFFFFFFFFFFFFFFFFFF00
:10C8000028700020C97F01006F580200B57F010029
:10C81000B57F0100B57F0100B57F0100B57F010044
:10C820000000000000000000000000005D81010029
:10C83000B57F010000000000C5800100B57F010048
:10C840009D8301009D8301009D8301009D83010064
:10C850009D8301009D8301009D8301009D83010054
:10C860009D8301009D8301009D8301009D83010044
:10C870009D8301009D8301009D8301009D83010034
:10CA50009D830100DF6502009D8301009D8301002D
:10CA60009D8301009D830100C96502009D83010033
:10CA70009D8301009D8301009D8301009D83010032
:10CA80009D8301009D8301009D8301009D83010022
:10CA90009D8301009D8301009D8301009D83010012
:10CAA0009D8301009D8301009D8301009D83010002
:10CAB0009D8301009D8301009D8301009D830100F2
:10CAC0009D8301009D8301009D8301009D830100E2
:10CAD0009D8301009D8301009D8301009D830100D2
:10CAE0009D8301009D8301009D8301009D830100C2
:10CAF0009D8301009D8301009D8301009D830100B2
:10CB00009D8301009D8301009D8301009D830100A1
:10CB10009D8301009D8301009D8301009D83010091
:10CB20009D8301009D8301009D8301009D83010081
:10CB30009D8301009D8301009D8301009D83010071
:10CB40009D8301009D8301009D8301009D83010061
:10CB50009D8301009D8301009D8301009D83010051
:10CB60009D8301009D8301009D8301009D83010041
:10CB70009D8301009D8301009D8301009D83010031
:10CB80009D8301009D8301009D8301009D83010021
:10CB90009D8301009D8301009D8301009D83010011
:10CBA0009D8301009D8301009D8301009D83010001
:10CBB0009D8301009D8301009D8301009D830100F1
:10CBC0009D8301009D8301009D8301009D830100E1
:10CBD0009D830100B36502009D8301009D830100D8
:10CBE0009D8301009D8301009D8301009D830100C1
:10CBF0009D8301009D8301009D8301009D830100B1
:10CC00009D8301009D8301009D8301009D830100A0
:10CC10009D8301009D8301009D8301009D83010090
:10CC20009D8301009D8301009D8301009D83010080
:10CC30009D8301009D8301009D8301009D83010070
:10CC40009D8301009D8301009D8301009D83010060
:10CC50009D8301009D8301009D8301009D83010050
:10CC60009D8301009D8301009D8301009D83010040
:10CC70009D8301009D8301009D830100FFFFFFFF55
:10CC8000064A074B9B7802604FF49072C371FF23F2
:10CC90008280082203728271704700BFB94601008A
:10CCA00040080020F8B5C41D0028054624F00704FC
:10CCB0000CBF0020204600F0F1FA061E02DA6FF0E9
:10CCC0000B00F8BD0DB9F442F9D4294F3989F88821
:10CCD0000331FB7A0330BA7A89B280B206F049FE9A
:10CCE0000028ECDB264439787B78002D06F103061A
:10CCF000194426F0030600FB01F10CBF002030466A
:10CD000000F056FC30440DB90028D8DBBA78034651
:10CD1000B2B1F97CFB7811441944FF29CFDC033010
:10CD2000002DFA89C9B220F003040CBF0020204670
:10CD300000F094FC031EC2DB23440DB9002BBEDBC4
:10CD4000397C81B1BA7872B10733002D23F0070422
:10CD50000CBF0020204601F025FE031EAFDB23445C
:10CD60000DB9002BABDB002D0CBF18460020A8E747
:10CD7000400800201FB572B6194BDD6AE5B9BFF354
:10CD80004F8F1849184BCA6802F4E0621343CB6016
:10CD9000BFF34F8F00BFFDE7B4FBF6F4D3B201320F
:10CDA000002CF9D103F110026A4402F80C4C0A225B
:10CDB00033B901A8A847E2E7044600220A26EDE7B6
:10CDC000013BDBB203F110040DEB0406B0FBF2F4FF
:10CDD00002FB1400303006F80C0C2046E8E700BFD8
:10CDE0004008002000ED00E00400FA050C4B07B5F8
:10CDF000DA7A68468DF801209A7A8DF800201A892F
:10CE0000DB88ADF80420ADF8023001F0C1F818B1AC
:10CE1000E8219C20FFF7AEFF03B05DF804FB00BFE4
:10CE20004008002038B5054668B305F0CFFB10B9BF
:10CE30004FF0FF3038BD04F071F8B0F5FA7FF7D845
:10CE4000134C1448E562002500F0A2F92A22294675
:10CE5000204684F8305008F055FA01236370A3701F
:10CE60001B23E380238140F2032363811F23E3819B
:10CE700008232374EFF3108472B600F0C5FC2CB9BC
:10CE800062B62046D6E76FF01500D3E72846D1E713
:10CE900040080020EDCD000010B5002842D1244C00
:10CEA00094F83030032B3AD059B1002A3DD00239E2
:10CEB000052937D8DFE801F0031428362B2E137824
:10CEC00063700020FFF7EEFE0028B7BF01230223A6
:10CED0006FF00B0084F83030A8BF84F8303010BDFC
:10CEE000137913B3537903B31188FB291DD81A2979
:10CEF00053881AD91B3BE02B17D813689288C4F8C3
:10CF000006300C4B9A80DCE71378A370D9E71388BE
:10CF1000E381D6E71388FF2B07D82374D1E74FF0BE
:10CF2000FF30DCE76FF02C00D9E76FF01500D6E793
:10CF30004008002046080020F8B50D46064630B3EC
:10CF400029B311F0070422D1124F97F83030012B8A
:10CF500002D16FF00B00F8BD032B02D14FF0FF3070
:10CF6000F9E700F05FF80028F8D02846FFF79AFEAE
:10CF70000028EEDB07F06AFD3046214601F04CF850
:10CF8000FFF734FF0323204687F83030E3E76FF0E4
:10CF90001500E0E74008002010B5074C94F8303049
:10CFA000032B03D101F050F801F028FC06F0D5FD69
:10CFB000002084F8300010BD4008002050B1074B1D
:10CFC00003F1140253F8041B934240F8041BF9D1F7
:10CFD000002070476FF01500704700BFA885020061
:10CFE000074B10B593F830403CB900F0FBFF01202F
:10CFF000044900F04BF9204610BD4FF0FF30FBE72D
:10D000004008002081CC000002680020014B1A601B
:10D01000704700BF74080020014B1B68184700BF11
:10D0200074080020024B1868003818BF01207047B0
:10D03000740800202DE9F7430446264E071D2548B5
:10D04000376001F0EBFB0228054607D12149204655
:10D0500006F0CCF9284603B0BDE8F0830428F9D1E6
:10D060003378072B18D13E2000F04AF878B9F378CE
:10D0700001A93279684643EA0223ADF8003006F090
:10D08000D0FB0028DBD053210820FFF773FE0520DA
:10D0900000F06EF80028EAD03146204606F0DEF9AE
:10D0A000B0F5817F01D37221EEE70028C7D094F854
:10D0B000008094F80290404600F022F80028BED08C
:10D0C000B8F13E0FC6D1484600F052F80028C1D151
:10D0D000B5E700BF78080020074B4FF0FF3141F65D
:10D0E000FF72C3E9001205490022C1E900221F2195
:10D0F000C3E90212704700BF40000020BC080020B6
:10D100003F280CD801380B4BC0F3421200F01F002F
:10D1100053F8223023FA00F000F001007047FF2896
:10D1200006D04038044BC0F3421200F01F00EFE776
:10D130000120704740000020BC080020074B01463A
:10D14000006849681A4603C240F48C221A6041F014
:10D15000107242F4FF625A60704700BF4000002026
:10D160000246024B0068516803C370474800002024
:10D170000138064BC0F3421200F01F0003EB82039C
:10D180009B6823FA00F000F0010070474000002087
:10D19000014B1860704700BFC408002007B5FFF7B7
:10D1A0009BFF06F0B9FE044B1B6813B10190984732
:10D1B000019803B05DF804FBC408002070B50C882A
:10D1C000C27CA6B2C4F30E04931C058804F11802B5
:10D1D0001D44825AADB21A4443882A44013AB2FB34
:10D1E000F5F202FB054292B29342044B8BBF3340EF
:10D1F000B34313439BB20B8070BD00BF0080FFFFA1
:10D2000008B54B1E062B04D84FF4D1711520FFF73B
:10D21000B1FD0A4B994202D940F2A311F6E719B9C0
:10D2200000B10160084608BD28B103680022C3E9C7
:10D2300001211A1D1A600431F4E700BFFAFFFF7FD5
:10D2400010B5114B00EB41041A786389B3FBF2F37C
:10D2500003FB0223013A1A44B2F5706F027928BF2A
:10D2600000231A448378B2FBF3F0194403FB102027
:10D27000091AB1FBF3F003FB101313446FEA4343A5
:10D280006FEA5343638110BDC8080020024B03EBD3
:10D2900080004160704700BFC80800202DE9F04FB2
:10D2A00010F0070A85B0054604D040F2611117203E
:10D2B000FFF760FD544F04464FF0010B07F10C06D9
:10D2C000B146B04657F8043B8DF80BA03BB101A81E
:10D2D00098479DF80A30082B01D9E821E7E79DF827
:10D2E0000B1081BB05B13160B94506F10406E9D1E7
:10D2F0002DB30023DFF814E102221E468EF8003021
:10D3000058F82200013A60B190F804A08178BAF18F
:10D31000FF0F64D14FF000078E4207713CBFCEB2C1
:10D320000123511CECD10BB18EF80060022640F6AF
:10D33000FF6A58F82670002F63D1013EF9D2601BB6
:10D3400005B0BDE8F08F9DF80AC04A1DBCF1020F80
:10D35000E64604EB420438BF4FF0020E53000EF1D4
:10D36000FF300444CEF100002040BDF80840644482
:10D37000CCF1000C013C04EA0C04B4F5803F01D36D
:10D38000F82194E775B1C31A336099701C8083F853
:10D3900003B09DF80C201A71019A4FEA124C1A81C1
:10D3A000A3F806C004FB01049EE758F82C90B9F1DD
:10D3B000000F06D099F804B0D34504BF99F8029045
:10D3C0004F440CF1FF3CBCF1000FEEDA3944FF2969
:10D3D000A2D90BB18EF8006040F2271167E794469E
:10D3E0000027F0E707EB410309F101093846A3F8EC
:10D3F0000AA0FFF725FF5FFA89F1BB788B42F1D8CD
:10D400009BE74FF00009F6E7CC080020C808002091
:10D41000F8B54FF6FF7305460380184B03EB810107
:10D420000869B8B186780379B3FBF6F206FB1233CC
:10D43000DBB219460A1D00EB4202B2F902705488B1
:10D44000002F09DB0131B1FBF6F206FB1211C9B264
:10D450008B42EFD10020F8BDFF29FBD0C4F30E03AF
:10D46000C4782B8024B94FF4D5711720FFF782FCC4
:10D470005380BDE8F84006F05BBA00BFC808002042
:10D480001D4B03EB810170B50C69054644B30304E1
:10D4900004D54FF4DC711720FFF76CFC01462046E1
:10D4A00006F029FAFF28014604D02046BDE8704066
:10D4B00006F03EBAA078B5FBF0F300FB1353DBB2E5
:10D4C00019460A1D04EB4206B6F90260002E09DB7C
:10D4D0000131B1FBF0F200FB1211C9B28B42F0D165
:10D4E000002070BDFF29FBD08B4204EB42021CBF21
:10D4F0000023E3705580D8E7C8080020094B03EBF0
:10D50000810110B50C690146204606F0F4F9FF28A8
:10D51000014604D02046BDE8104006F009BA0020BC
:10D5200010BD00BFC8080020F8B5104B074603EB3C
:10D5300081010C690146204606F0DDF9FF28054609
:10D5400011D0E688238953EA064606D001462046D4
:10D5500006F0EEF901463846B04720462946FFF767
:10D560006FFE0020F8BD0520FCE700BFC8080020C2
:10D5700038B50E4B0446827903EB8203186908B96B
:10D58000052038BD8278E1799142F9D24B1CE371D4
:10D5900000EB41035D89B3F90A30002BF3DBA58072
:10D5A00006F0C6F920600020EBE700BFC8080020A5
:10D5B00070B5044610F003000E4603D04E2118202B
:10D5C000FFF7D8FBFFF71CFE054624B103483146A0
:10D5D0000460FFF715FE284670BD00BFE408002078
:10D5E0002DE9F3471C4C90461E46074622680D461F
:10D5F0009DF828309DF82CA01AB960211820FFF75B
:10D60000B9FB1A4609214046019306F033F9524608
:10D610001FFA80F90921304606F02CF980B209EB97
:10D620000001206806F043F9019B386018B92860B2
:10D6300002B0BDE8F08700EB0904414609222C60E6
:10D64000386806F0F6F8534609223146286802B0D9
:10D65000BDE8F04706F0EDB8E40800201F2AF8B551
:10D6600004460ED89200033222F00303B3F5803F44
:10D670002ED2194DB4B1A00711D05F210920FFF7B8
:10D6800079FBFF2A4FEA420304D9FF329A42A8BF2E
:10D690001A46E8E77C2BB8BF7C231A46E3E72970DB
:10D6A0006C602B8122F0030228230127120403FB64
:10D6B00001F06B680025120CEEB28E4200D3F8BD6B
:10D6C00014B126181F705E60104401352833F3E74B
:10D6D0004FF0FF30F3E700BFE8080020144A0021B4
:10D6E00038B553681478C8B2844203D8AB210920F6
:10D6F000FFF740FB1846013128330578002DF2D0A2
:10D7000000218170012412898161051D44709208F5
:10D71000C16100F12001446821F8022B994245F8CB
:10D72000044B1444F8D100234361037038BD00BF9B
:10D73000E80800202DE9F8434B7880460C4602F0BB
:10D74000040602F0FB07D3B1DFB12E4BD4F80490EE
:10D750001D89B7BB0123AD084A46211D637004F142
:10D76000280004F12003A761E76123F8025B9842D7
:10D7700041F8042B2A44F8D10023636101E0002F13
:10D78000E3D0FF23A370002E18BF0226A3191B7D30
:10D79000032B03D1022F1CBF0136F6B2A3190122BD
:10D7A0001A7506F10C02002304EB860624F81230E9
:10D7B0007268A3704046C8F80020A8F80430BDE89D
:10D7C000F883002114226170A01807F09BFDB5F5C5
:10D7D000FF7F0FD26B08ED1AADB209EB0502C4F85A
:10D7E00004902584A2606384C4F80C90A58422610F
:10D7F000E384C6E7B5F5EE6F4FF0FF03EBD940F2D7
:10D800007265EAE7E80800201E4B01224FF0FF3066
:10D8100000211B685A60C3F80803C3F80015C3F859
:10D820000425194B1B685A60C3F80803C3F8001598
:10D8300040F6FE71154B1648C3F8081501680BB287
:10D84000002B0BDB01F01F015B098A4020331149DB
:10D8500041F82320BFF34F8FBFF36F8F026813B2DD
:10D86000002B09DB01215B0902F01F02603301FA82
:10D8700002F2084941F82320044B40F6FE72C3F837
:10D8800008257047841400208014002000200850D0
:10D890009814002000E100E0014B1876704700BFAB
:10D8A000F80800202DE9F04104460D46164690F890
:10D8B000F03003F0FF071BB10C273846BDE8F081BC
:10D8C0000146454804F014FA20288046F4D0582236
:10D8D000394604F1C80007F015FD84F8C880C4F883
:10D8E000CC50FF2384F8F03035B100F0E5FF00F0B4
:10D8F0000700013085F8CC0102234FF00008A4F89E
:10D90000003184F8F88003F013FB493085B22046DB
:10D9100006F0B8FF014670B306F04CFD00F5CD608F
:10D9200081B2304603F0AEFA3044AE3EC4F8FC009B
:10D9300007F06CFB2818A4F8268041F10001C4E927
:10D940004201012084F8D00007F052F8361AC4F8DA
:10D95000D4604FF0FF326FF00043C4E9442304F178
:10D96000F80194F8C80004F061FA48BB40F2CD1108
:10D970003020FFF7FFF92046DFF8608006F0A6FEB2
:10D98000AE30C4F8FC00B8F8040048B1E08C38B1FF
:10D9900000F092FFB8F80430B0FBF3F202FB130082
:10D9A000054407F033FB2D1841F10001C4E9425151
:10D9B000002ECED0751941F10001C4E94451CEE7E3
:10D9C000D4E9422300212046C4E93823C4E93A239C
:10D9D00006F075FF71E700BFAB3B0100B409002002
:10D9E000F0B5002385B0CDE9003301238DF8063072
:10D9F0006846FFF7BDFD70B11D4E01230027B371CE
:10DA0000CDE9027702A8FFF7B3FD0546C8B10023B0
:10DA1000B37105B0F0BD009806F081F9E8E790F821
:10DA2000F30104F0F7FA94F8F30104F09FFC94F882
:10DA3000F30184F8DC5104F081F9202384F8F331F8
:10DA4000DEE7029B002BDDD093F8F321202AD9D00A
:10DA500018884FF6FF739842D9D02946FFF74EFD3C
:10DA600004460028DBD14FF49B713020FFF782F988
:10DA7000B4090020044B0022DA719A7142F210724C
:10DA80009A80FFF7ADBF00BFB4090020014BD871E9
:10DA9000704700BFB4090020014B9880704700BF59
:10DAA000B409002010B501210020FFF727FD04462E
:10DAB00070B90121FFF7E4FC044620B940F291312E
:10DAC0003920FFF757F9034B93F9061006F0C6FD0E
:10DAD000204610BDC009002008B506F06DFC00F01E
:10DAE00033FC00F0D3FA06F027FD00F087FD00F0CC
:10DAF0006BFF0022084B1B214FF4A4701A60074BE8
:10DB000098801A8059800648064B186099805A748C
:10DB10005A829A829A7508BD88000020C0090020A8
:10DB200003021B00EC0D0020044B41F64C52C3E9EC
:10DB300002221B221A74FFF7CFBF00BFEC0D00209A
:10DB40002DE9FF41344D0446AB680363334B8361D9
:10DB500006F01CF9064600F089FA2B7C10F0200F25
:10DB6000668784F838302E4B0EBF1B22AA8869883E
:10DB70001B6814BFA4F85A10A4F85A20A4F85C201B
:10DB80001BB194F9701020889847AE7CEF7CB5F8F3
:10DB9000148016B900F070FA064687BB00F06CFAE4
:10DBA000074676B368B303A920468DF80C608DF85C
:10DBB0000D70ADF80E8006F03FFC012369786A888D
:10DBC00004F11000E385AB88033201910333297817
:10DBD00092B29BB2009104F11401FFF701FD236999
:10DBE00013B940F24E6114E0636913B940F24F611A
:10DBF0000FE0002004B0BDE8F0810920FAE7002E14
:10DC0000D1D100212088FFF78FFC0028F5D040F209
:10DC100024613920FFF7AEF8EC0D002000093D002B
:10DC20008C000020F7B505460E4606F04AFD002898
:10DC300074D0284606F026FE40B1B6F80130013B0C
:10DC40007F2B03D91224204603B0F0BD284606F0EE
:10DC50001DFE08B90C24F6E7284606F0E3F8002874
:10DC6000F8D1284606F0EBFC04460028F2D12846FD
:10DC700001F026FA0028E5D042F21072B6F80170E1
:10DC8000F1782846574306F0E9FD284606F0F2FDF4
:10DC9000014658B93A462846FFF704FE04460028D4
:10DCA000D1D041F69F313920FFF764F821460DF1BC
:10DCB0000600FFF7ADFB064670B3214600F038FCC6
:10DCC000BDF8063028463146338006F0E9FD284687
:10DCD00006F0E2FDA0B9296A284606F0DFFD0146FC
:10DCE0003046FFF72DFF04460028ACD13A463146B6
:10DCF0002846FFF7D7FD044620B141F6C231D2E7EE
:10DD00000121EDE7064B9B68002B9CD0024606F5EF
:10DD10008D713046984796E70D2494E7422492E7A8
:10DD2000C0090020034B5A8802801B7883700020B2
:10DD3000704700BFEC0D0020F0B5077885B00446B1
:10DD40000D46EF2F03D91225284605B0F0BDB0F8D7
:10DD50000130ADF80C309DF90C209DF80C30002AF4
:10DD6000F1DB9DF80D209207EDD1DE063FD4980639
:10DD700003F0030238D5002AE5D11907E3D463780C
:10DD80001A0711D42179E278E07942EA0122617917
:10DD900042EA0142A17941EA0021207A41EA0041A8
:10DDA0008A42D0D81F2ACED9627A013A062ACAD826
:10DDB000A27A032AC7D813F0040102D1023A012A39
:10DDC00003D8E27A012ABED811B9A27C032ABAD8B4
:10DDD00013F01001227D19D0012AB4D1227E012A2C
:10DDE000B1D8B1B91125AFE7032AC6D1ABE713F01B
:10DDF000600FA8D103F00F0203F00703052BBED07C
:10DE0000931E012BBBD9002A9DD1B8E7022AE5D188
:10DE100099E7DB0713D46378227D03F01803082BFE
:10DE200012D1022ADED1BFB201213846FFF766FBCC
:10DE3000064678B105F0F6FFB8B10C2584E700F08E
:10DE4000E5F80028E7D1CDE7022AECD0237F002BAC
:10DE5000E9D0C7E701213846FFF712FB064650B369
:10DE6000164B93F9061006F0F9FB304606F0FFFC5E
:10DE700021462870E074304606F044FCE37E0546F7
:10DE8000002B3FF461AF00287FF45EAF0246316B98
:10DE90006846FFF74FFC2A46306B012105F0B1FDC3
:10DEA000316B68460422FFF745FC2A462946306B51
:10DEB00005F0A7FD48E7072546E700BFC009002099
:10DEC00070B505798AB00346042D5CD84488B4F552
:10DED000804F58D82D480021465D2844ADF80010E9
:10DEE0004279857A42F01002C07B8DF8081042EA30
:10DEF00046028DF81D1042EA850242EAC00202F095
:10DF00001F028DF80020BDF80020ADF809201A8806
:10DF10008DF80E40240A8DF80B20120A8DF80D1092
:10DF20008DF810108DF80C208DF80F405A7BD3F827
:10DF300007008DF811205A79059002A88DF812205B
:10DF40009A798DF81320B3F80B209B7BADF818203D
:10DF50008DF81A307F238DF81B3001238DF81C308B
:10DF60008DF81E308DF81F108DF820108DF82310BD
:10DF70008DF824108DF821108DF822106946FFF7D6
:10DF8000DBFE0AB070BD1220FBE700BFD4850200A3
:10DF90000278034672B1427862B142881A2A09D9DE
:10DFA00082881A2A06D90068034A106000209B88DC
:10DFB0009380704712207047EC0D0020026800200B
:10DFC000014B9A60704700BFEC0D002008B501F0CE
:10DFD0006FF8FFF74FFD0248BDE8084001F052B866
:10DFE000CC09002010B5064C064904F5027006F075
:10DFF000C3F904F503700449BDE8104006F0BCB94C
:10E00000CC0900209000002098000020014B93F8DC
:10E0100002017047CC09002010B5074C00F0DAFB74
:10E02000D4F8080206F0A0F9FFF77EFD00F05CFCD2
:10E03000012384F8143210BDCC090020014B93F861
:10E0400014027047CC09002010B5074CD4F80C021C
:10E0500006F08AF9D4F8100206F086F9FFF73CFDC5
:10E06000002384F8143210BDCC090020014BD3E901
:10E070000001704750000020034B1868C0F30020D7
:10E08000400040F0010070475000002008B502F049
:10E0900045FF0023074A32F82310814205D302EBE3
:10E0A00083039B78044A137008BD01330C2BF2D113
:10E0B0000023F7E7E8850200E10B0020054B9A8C6E
:10E0C000824201BF002283F822204FF6FF729A8419
:10E0D000704700BFE20B002050B90A4A01201346E6
:10E0E00003F8010B0868C2F801008A889A8070471B
:10E0F000012805D1034B0A68D8719A608A889A81F1
:10E10000704700BF0C0C002048B90A4B187880B14A
:10E11000D3F80120B3F805300A608B8070470128DE
:10E1200006D1044BD87920B19A689B890A60F4E73C
:10E13000002070470C0C002020B9054B187800F027
:10E140000100704701280ABF014B0020D879F6E78B
:10E150000C0C0020F7B58B8800228DF80600ADF876
:10E16000043008680B4B8DF8072001461C7803F536
:10E17000AC73019DD0B2844201D8082007E0D3E9F6
:10E18000007601320833AE4208BF8F42F2D103B0AD
:10E19000F0BD00BF200C0020084B0146002230B526
:10E1A0005C7803F58173D0B2844201D8082004E082
:10E1B00013F8015B01328D42F5D130BD200C0020F7
:10E1C000F0B5254D89B095F8984105F2991168464A
:10E1D000224604F0CFFB2146684606F00CF90446BF
:10E1E000B8B300EB400102A8C9B2FEF715FF601EEC
:10E1F00095F8A1610124C0B295F8982105E0731C3F
:10E20000B3FBF2F102FB1133DEB206F120030DEB9A
:10E21000030111F8203C002BF1D100EB400201F882
:10E22000204C06EB460320322B446A4412F8187C3B
:10E2300083F8A27112F8177C12F8162C83F8A371D8
:10E2400083F8A4210138AB19C0B283F89941FF28A3
:10E25000D2D109B0F0BD00BF200C002070B5064639
:10E2600088B00C46002A4ED0294A92F8A131D01825
:10E2700090F8991119B9FF212820FEF77BFD03EBD7
:10E2800043010133114491F8A251E57091F8A35173
:10E2900091F8A41125716171002180F8991192F80B
:10E2A0009811B3FBF1F001FB103382F8A13192F821
:10E2B000C23123B9174902F5DD7006F05FF96579BF
:10E2C0000D220021684605F03F0545F040056571C7
:10E2D00007F018F8E37804AA69468DF80F30304645
:10E2E00023798DF80D508DF80E30042306F056FF7B
:10E2F0009DF81F3023709DF81E3063709DF81D300F
:10E30000A37008B070BD03216018FEF785FED6E744
:10E31000200C0020C1E10000044B5A78824286BFE5
:10E320001B1893F84A010020704700BF200C002002
:10E33000044B5A78824286BF1B1893F84201002092
:10E34000704700BF200C0020064B00224FF4617183
:10E350001A8083F8C32183F8C421A3F8C61183F877
:10E36000C2217047200C0020014B83F8C401704784
:10E37000200C0020014BB3F8C6017047200C002090
:10E380000A4B30B55C7884420ED9184490F80201EB
:10E390002B3003EBC004A5790D7053F830001060EA
:10E3A0000120A388938030BD0020FCE7200C0020D2
:10E3B0000246074810B590F8C34124B1417821B115
:10E3C000023001F01FF8204610BD0C46FBE700BFED
:10E3D000200C00202DE9F74F2F4C804600921A4662
:10E3E00063788946834254D9231893F8425185F0C3
:10E3F0000105E9B193F84A31D3B945F00207013577
:10E40000C2B9F9070BD5062104EB0810009201FBF5
:10E410000841823001F58571FFF720FF009ABB07A4
:10E4200033D504EB081049460230FFF717FF2CE004
:10E430002F46E5E794F8A1614FF0010A002DE0D0E6
:10E4400004EB060B9BF8991199B9009B0192D3B18B
:10E4500000F01AFA019A06EB46018BF899A14FEAEF
:10E46000102C214481F8A201000C81F8A3C181F88D
:10E47000A401013694F89811013DB6FBF1F001FBBF
:10E480001066F6B2DAE747F00407384603B0BDE895
:10E49000F08F0027F9E700BF200C0020074B5A78C7
:10E4A000824209D91A1892F842212AB9062202FB9F
:10E4B000003000F58570704700207047200C002068
:10E4C000064B5A78824281BF1B1893F83A01B0FA82
:10E4D00080F0400998BF0020704700BF200C00204A
:10E4E00030B5002442F21075A0F84040B0F8444026
:10E4F0004C43B4FBF2F4A0F84440541E05FB034324
:10E50000B3FBF2F3A0F84230084BB3FBF2F3013354
:10E51000A0F84830838F05FB0344436B5943B4FB99
:10E52000F2F4B1FBF2F28463426330BD005A62023E
:10E5300070B504460D4659BB4FF41A7206F0E2FE60
:10E54000012384F8DE5084F88E306FF0360384F8AF
:10E55000D930042384F8DA306FF03B0384F8DB30E1
:10E560006F2384F8DC306FF03C0384F8DD306FF00B
:10E570007F0384F8DF302B2384F8D830FE2384F81F
:10E580000E317F2384F88530202384F8F33170BD69
:10E59000012917D10023A0F8B43180F8AB310D4B1D
:10E5A000826913441146B3FBF2F3C0F8B03040F671
:10E5B000B833A0F8B430438C04F17800BDE8704063
:10E5C000FFF78EBF0229E2D1B0F84A32D0F84422D8
:10E5D0008169F1E77FC3C901074B93F90030184403
:10E5E000142804DC10F17F0F03DB40B270471420C5
:10E5F00070476FF07E007047E80D0020024B00224C
:10E600001A705A70704700BFE80D002083230B700A
:10E61000014B1B78CB707047040E00202DE9F347A7
:10E620008246894605270025DFF84C81D9F810304D
:10E6300053B11B7A1BB980211020FEF79BFBD9F840
:10E640001040B4B9002070E0D9F80440237A012BBF
:10E65000F8D0EFF3108372B6D9F804201268C9F825
:10E66000042003B962B6C9F81040237A0BB9A62179
:10E67000E2E7267AF6B22772731E0B2B69D8DFE821
:10E6800003F065061C3362683C6868686857636815
:10E6900013B94FF4D771CFE720465146984704206D
:10E6A000EFF3108372B6227A052AD1B25BD12572BC
:10E6B000C9F81050ABB962B613E0636813B940F201
:10E6C000B711B9E75146204698470346ADF8040014
:10E6D000C0B2C3F30723012B3ED0022BE0D1C9F80F
:10E6E00010500028A2D020E0636813B940F2BF1197
:10E6F000A2E7204698470020D2E763680BB9B5210E
:10E700009AE70B2200248AF8002001221988186950
:10E710008AF80220AAF803108AF805208AF8064031
:10E7200005F0BBF80420C9F8104002B0BDE8F0873E
:10E73000D8F80030514620469847034660B1022081
:10E74000C9F81050F1E74FF4FB7175E740F2F91189
:10E7500072E74FF4FE716FE726720028E5D1002BB7
:10E760007FF464AF6EE711B940F21D2164E7002B1E
:10E770007FF45CAF62B659E7A400002038B5134CB3
:10E7800014220021231D184606F0BCFD0346012576
:10E79000257404331422002104F11800C4E9013364
:10E7A00006F0B0FD84F8245004F11C03084AC4E9C3
:10E7B00006330023E362236384F83430C4F8353031
:10E7C000C4F8393084F83D30136038BD040E0020A1
:10E7D000A000002010B5084C2378FF2B04D04FF484
:10E7E000A0711020FEF7C6FA03F0CCFF2070BDE840
:10E7F0001040FFF7C3BF00BF5D00002010B5034C01
:10E80000207803F0DBFFFF23237010BD5D000020A4
:10E81000014B187803F0E2BF5D00002010B50649F7
:10E820000446FFF7FBFE28B920460449BDE8104026
:10E83000FFF7F4BE10BD00BF1C0E0020080E002024
:10E84000134610B5027A22B140F299211020FEF74A
:10E8500091FA0A4601460248BDE8104005F06EBE36
:10E86000080E00200346064890F83E203AB190F882
:10E870003D2022B9034900F8353B05F07CBE7047C6
:10E88000040E00200DE60000094AD2E900034340CF
:10E8900083EAB01181EA43214FEAF34311605360E8
:10E8A000044B58434FEAF06000EB8000704700BF14
:10E8B000440E0020BB79379E094AD2E90003434049
:10E8C00083EAB01181EA43214FEAF34311605360B8
:10E8D000044B58434FEAF06000EB8000704700BFE4
:10E8E00060000020BB79379E10B50A4C082109480A
:10E8F000FEF792FBD4E900231343F7D0064CFFF751
:10E90000DBFF2060FFF7D8FF236860600343F6D089
:10E9100010BD00BF60000020440E0020F0B5204D67
:10E9200000242B781470CBB3013B6F68DBB21D1B46
:10E93000012D0BDC07EBC40557F834606D688D4280
:10E9400008BF864212D114700120F0BD1D196E104F
:10E95000C5F3470557F836C007EBC60E8445DEF809
:10E9600004608E412CBF2B462C46E0E7B04271EB91
:10E97000050502D214700020E7E707EBC30457F83F
:10E98000335064688C4208BF854201D11370DBE7C5
:10E99000A842A14128BF01331370ECE71846D4E721
:10E9A0006C0E002010F0070208B503D06321482048
:10E9B000FEF7E0F918B1034B197258601A70C800DD
:10E9C00008BD00BF6C0E0020014B00221A7070477A
:10E9D0006C0E0020014B187A704700BF6C0E0020AF
:10E9E0002DE9F74305F0DBFD0DF1070206460D4664
:10E9F000FFF794FF98B910490A780B7A93420ED02A
:10EA00004C6813466FF060479DF80700984209D3A1
:10EA100004EBC003013201200A70C3E9006503B0B2
:10EA2000BDE8F083D819013B04EBC000DBB2D0E9AC
:10EA30000089C0E90289E7E76C0E002037B505F0D0
:10EA4000AEFD0DF10702FFF769FF0446A0B10C4AC5
:10EA50009DF8070013785568411C013B05EBC10187
:10EA6000DBB213701A1AD2B2D200834238BF00222E
:10EA700005EBC00006F02EFC204603B030BD00BF01
:10EA80006C0E0020074BD0F851201B68C3F8032000
:10EA9000B0F85520A3F8072090F85010184605F05C
:10EAA000CFBC00BF940E002070B504460E4613463E
:10EAB000407F6588324615F004050CBF294604F1F5
:10EAC0005F01FFF787FC4207054623D4C3070BD538
:10EAD0000123607F84F85030FFF7E0FC0368C4F83E
:10EAE00051308388A4F8553015F0020F4FF001051E
:10EAF0000ED0094B294684F85E501868D4F85F3070
:10EB0000C0F80930B4F86330A0F80D3005F0A1FC6E
:10EB1000284600E0002070BD940E002038B5C38D5B
:10EB200004460F4D0133C3F30E03C385AB7C2BB1F9
:10EB300001F02EFA00F0C4FC0023AB7400232B710B
:10EB400094F871302BB101212046BDE8384005F022
:10EB500029B9637C13B1E28D9A42F4D20021F3E724
:10EB6000940E002010B5094C2379012B02D0237993
:10EB7000022B05D1A37C1BB101F00AFA00F0A0FC26
:10EB8000E069BDE81040FFF7C9BF00BF940E002048
:10EB900070B5294C2379012B07D02379022B04D09F
:10EBA00040F657412D20FEF7E5F8A0B90125A37CDA
:10EBB0001BB101F0EDF900F083FC002D3AD0E069C3
:10EBC00005F0D2F8002830D001F0E0F8236ABDE863
:10EBD00070409B6818472168E26911F8095B02F1EF
:10EBE000510392F85020E80905F0E7FB0028DDD03A
:10EBF0000021206805F052FC0028D7D02379E06975
:10EC0000012B05D02379022B02D04FF44361C9E7D1
:10EC1000237905F00F01226A03F180435269013B19
:10EC200052F8233098470546C1E7E069BDE87040D7
:10EC3000FFF774BF70BD00BF940E00200346074A63
:10EC4000D06903B909B9FFF769BF1379126A03F1F3
:10EC500080431269033B52F823301847940E00207A
:10EC600003292DE9F043054685B090467BD090F806
:10EC700070300529DBB202D14288D0075FD5002B66
:10EC80005DD10127DFF8E89099F81260B6B105F080
:10EC9000C9FB082888F8000014D002AA0DF107016A
:10ECA000FFF76EFB20B940F6CF612D20FEF762F82A
:10ECB00002A99DF8070005F07EFC064698F8003092
:10ECC000082B08D1D9F8001011F8030BC0F38010FD
:10ECD00005F071FC0646D9F8001005F1580395F8C7
:10ECE000572011F8030BC0F3801005F066FBD9F82C
:10ECF0000010044611F8030BC0F3801005F088FBE8
:10ED00008146FFF7DDFB40B1B9F1080F1CD0484642
:10ED1000FFF702FB80F00100C0B298F80020082A3B
:10ED200016D09CB96B7F991A4B424B416A885207A7
:10ED300006D420B99EB9EB7C9BB1BB4211D0002315
:10ED4000184605B0BDE8F0830020E6E70123EDE7B3
:10ED500014B180F00104E4B204F00103E6E73346A5
:10ED6000EEE70123ECE743889B07E8D5022789E714
:10ED7000940E0020032973B5044604D0052956D00B
:10ED8000012002B070BD08230DF107028DF8073095
:10ED9000FFF766FF0028F3D0237C2A4D03B39DF8CC
:10EDA000070094F8BE30DBB92378082804F1C102CB
:10EDB00084F8BF302CD004F1C001FFF7E1FA20B98C
:10EDC00040F645712D20FDF7D5FF94F8C03043F093
:10EDD000020384F8C0301C4904F1B60005F0CBFBF7
:10EDE0002B680622042620465A701E70FFF74AFE42
:10EDF00094F84020E16B286805F041FB28682E71EB
:10EE000001F07CF82868002105F03DFE0020B8E7FD
:10EE10002868034613F8031BC1F3801184F8C0105F
:10EE2000D0F80310C4F8C1109B889380D3E7074B38
:10EE30001B6823B1984780F00100C0B2A1E71846D3
:10EE40009FE700BF940E0020CB450100A8000020E2
:10EE5000F8B504460F4619B300F12805284605F019
:10EE6000A4FDA0B963881A072ED5284605F0B2FD87
:10EE70000646284605F099FD301AC0B205F0B8FDE7
:10EE8000494A936818449060284605F06DFD28466D
:10EE900005F06FFD00F0D8FE2179252000F038FE46
:10EEA000414E002394F85E203068037043706388FD
:10EEB000103B0D2B68D8DFE803F063675F0C6744F5
:10EEC00067676767676767442046BDE8F840FFF7F4
:10EED00025BE06234370202303702046FFF7D2FD92
:10EEE000638823F008039BB2152B05D094F83820D3
:10EEF000616B306805F0B4FA306800F0FFFF002164
:10EF0000306805F0C0FD032321790020337100F043
:10EF1000C7FE054607B9F06063881B0704D505F0F6
:10EF200064FD2844C4F8D8006388103B0D2B36D804
:10EF3000DFE803F038352F2F352F353535353535AA
:10EF4000352F0C2321214370034603F8091B52B1CE
:10EF5000D4F85F200121C0F80920B4F863209A801A
:10EF600005F077FAB9E7A26DC0F80920B4F85C2083
:10EF70009A8094F85710F3E7062303704370ACE7C8
:10EF8000022303700623F9E740F234612D20FDF7D8
:10EF9000F1FE21790120BDE8F84001F007B840F604
:10EFA000CA41F3E7F8BD00BF940E002038B543888E
:10EFB0000446102B04D10121BDE83840FFF748BFBB
:10EFC0000B4DAB7C23B100F04FFA402000F0D4FF92
:10EFD000286800F093FF608810F0040002D12179C6
:10EFE00000F0E4FF002000F0A3FF01232B7138BDE7
:10EFF000940E0020024B0121D869FFF729BF00BF02
:10F00000940E002010B5134CA37C1BB100F0C0FF80
:10F0100000F056FAE06904F0A7FE70B12379E069C8
:10F02000012B0FD12379226A03F18043D268013B7F
:10F03000BDE8104052F823301847E069BDE81040A1
:10F04000FFF76CBD2379022BECD040F658312D2010
:10F05000FDF790FE940E0020094810B5037903F0E7
:10F06000FF0453B918222146043006F04BF900F092
:10F070008FFF00F025FA204610BD0C24FBE700BFEF
:10F08000940E002010B50023084C23712060FFF778
:10F09000E3FF20B140F2EF212D20FDF76BFE236A44
:10F0A00013B940F2F221F7E710BD00BF940E002023
:10F0B000014B024A1A627047940E002078F3000058
:10F0C0002DE9F041067D0446B31EDBB2012B8CBF57
:10F0D0004FF000084FF001087EB3B71E18BF01279C
:10F0E000012B36D800F1580190F8570005F090F93F
:10F0F000082805462DD0FFF71BF958BB657784F823
:10F100001C8084F85070FFF735F9054605F07EFF46
:10F11000174B0022A5FB033584F85E20181845EB39
:10F1200001051146C4E912052046FFF7BDFC70B980
:10F1300040F27A412D20FDF71DFE3746082504F1E7
:10F1400051010020FEF7E0FF0028D7D10020BDE8E4
:10F15000F0810825022EF2D0E37E002BF6D0D4F801
:10F160001530C4F85130B4F81930A4F85530C5E75B
:10F1700040420F00F0B5484E87B00446327902F0A5
:10F18000FF0312B90278FF2A04D140F6B7112D20EF
:10F19000FDF7F0FD3382B3607371B37180F87130A5
:10F1A0003E4B02A802933E4B03933E4B0493336ABB
:10F1B0005B68059300F09AFE00F0DCFC00F0E8FECE
:10F1C00000F07EF9384800F035FD384800F088FE40
:10F1D00004F12800019005F0C7FB019805F0C9FB78
:10F1E00000F032FD2179252000F092FC94F9120004
:10F1F00000F01AFD04F13401206B04F01FFC0746F7
:10F2000004F13C01206B04F03EFC0546E7B194F8A4
:10F210002430CBB1B4F92E50ED43ED0F237F13B959
:10F2200063885B0709D56FF00043D4E912129A4254
:10F2300008BFB1F1FF3F0ED1ADB930680330FFF721
:10F24000B7F8B07407B0F0BD002DE7D094F82550A2
:10F25000002DDFD1E2E705F0D9FED4E91223904278
:10F2600071EB0303E8D3012229462046FFF71CFC7B
:10F2700068B1FFF77FF8054605F0C8FE0C4AA5FB0C
:10F280000232181842EB0102C4E91202D5E7002D40
:10F29000D3D040F6F4117AE7940E002005F0000078
:10F2A00091EB00003DEC0000D6BE898E555555000F
:10F2B00040420F00F7B50446FFF75CFF00212046EF
:10F2C000FFF7C6FDA36E0BB101221A606388DB074E
:10F2D00021D50023256A114E05F10A07CDE9003337
:10F2E000FF23F3746846FEF743F9A0B9009CA542DA
:10F2F000F8D03B466A7A04F10A01607A05F05DF8BD
:10F300000028EFD0A378F374D4F80300044B7061A5
:10F31000B4F807209A8003B0F0BD00BF940E00201F
:10F32000A80E0020024BD8611B6A1B68184700BF5B
:10F33000940E002043881B0710B504460ED5036ABF
:10F340003C220849723042721B884381FF2380F8B7
:10F3500027304FF6FF73038505F00DF9FF2384F87E
:10F36000713010BDE345010035460100ADEF0000EE
:10F370003B46010075ED0000B5F2000065EB0000B2
:10F38000F5EF000068F300006CF3000074F3000078
:10F390000138022808B503D9C3212F20FDF7EAFC64
:10F3A00013290A4B05D811290CD8102907D0D121CF
:10F3B000F3E71529FBD103EB4003D88801E033F8CC
:10F3C000100008BD03EB40039889FAE7B8860200F5
:10F3D000064B1B68D3F8000138B1D3F8040120B103
:10F3E000D3F80801B0FA80F040097047801400207B
:10F3F000034B00221A705A7010229A70704700BF97
:10F40000D00E0020F8B50646022014460D4600F046
:10F4100017F9114B114A0127191D5C609A6002F11E
:10F42000807203342D011F70DC601D83C3E9042644
:10F430000022243303F80A2C0D2203F8092C084A71
:10F440001268C2F830150749C2F80875C2F8383595
:10F4500003C983E80300F8BDD00E00200300000BB1
:10F4600080140020D886020008B5022000F0E8F8D9
:10F470000D4B01221A7000220C4B1B68C3F80021AF
:10F48000C3F80421C3F80821094AC3F88020094BB6
:10F49000C3F88C20084B1B68C3F88C210822074B4B
:10F4A000C3F8042508BD00BFD00E00208014002042
:10F4B00003000080003008508C140020002004500D
:10F4C000144A08B5137803B3134B19680023C1F825
:10F4D00080301249C1F88C3011490968C1F88C316B
:10F4E0000821104BC3F80815FFF772FF40B1012344
:10F4F0005370938EFF2B05D9BA213B20FDF73AFCC0
:10F50000102350709370002313700020BDE8084052
:10F5100000F096B8D00E0020801400200030085073
:10F520008C140020002004500A4B1A7872B10A4B48
:10F530001B68D3F800215AB1D3F8040120B1D3F8E5
:10F540000801B0FA80F04009C0B27047587870479F
:10F5500002207047D00E002080140020064A08B513
:10F5600013782BB1FFF734FF20B192F8340008BDB7
:10F570009078FCE71020FAE7D00E00200A4B022119
:10F580001A680023C2F88030084AC2F88430084A5A
:10F590001268C2F88431074AC2F8081502F58022C1
:10F5A000C2F80835704700BF8414002000300850AE
:10F5B0008C14002000200450024B00221A705A7054
:10F5C0009A707047080F0020054808B503781BB1F2
:10F5D000FFF7D4FF0023037000234370837008BD3E
:10F5E000080F002038B5074B0024074D1B68C3F8EF
:10F5F00000452B68C3F80045FFF7E6FF2B68C3F80A
:10F60000804038BD84140020801400200A4B1A6802
:10F6100013B2002B0DDB01215B0902F01F02203326
:10F6200001FA02F2054941F82320BFF34F8FBFF3DF
:10F630006F8FFFF7D7BF00BF9814002000E100E0F4
:10F6400010B50446FFF7CEFF012C03D0022C07D0E3
:10F6500084B910BD094B02221B68C3F80025F8E7E6
:10F66000074B03221B68C3F8002502F10042C3F8D0
:10F670008020EEE787213D20FDF77CFB84140020ED
:10F6800080140020024BD3F8A00300F00100704763
:10F6900000C0FF00084BD3F8A423D3F8A833511CB3
:10F6A0009BB203D14FF6FF718B4203D0026083807F
:10F6B000012070470020704700C0FF000B4B30B5A1
:10F6C000D3F89053D3F89443D3F89813D3F89C23EA
:10F6D00005EA04030B401340013317BF0560002007
:10F6E000446081601CBFC260012030BD00C0FF00CB
:10F6F0000B4B30B5D3F88053D3F88443D3F8881339
:10F70000D3F88C2305EA04030B401340013317BFE1
:10F7100005600020446081601CBFC260012030BDD4
:10F7200000C0FF00024B00221A809A701A717047C5
:10F73000780F002038B5144D0346084695F83D2053
:10F7400022B940F687013E20FDF714FB6BB9012A70
:10F75000AC6B95F83C1005D100F0DAFD20442B6B22
:10F76000C01A38BD05F095F9F8E7012B0AD1012A36
:10F77000AC6B95F83C1002D100F0BCFDEEE705F053
:10F7800093F9EBE70020EAE7780F002008B501289D
:10F79000084B83F82400084B06D0022808D040F616
:10F7A0003D513E20FDF7E6FA0322C3F8002508BDCF
:10F7B0000422FAE7780F002000A0085008B5144B87
:10F7C00093F84A30D90720D59A070ED5114BD3F8B4
:10F7D000002442F00102C3F80024D3F8200500F011
:10F7E000F600023818BF012008BD5B070DD5094B94
:10F7F000094AC3F80821A3F5A043D3F8403123B147
:10F8000040F276613E20FDF7B5FA0120ECE700BF3B
:10F81000780F002000A008500B00008007B50B4AAD
:10F8200001AB92F9252000F0B7FD9DF9040000F02E
:10F83000FFFC9DF8050000F027FE20B140F23F617B
:10F840003E20FDF797FA03B05DF804FB780F002027
:10F8500008B503460F4863B92831C1600E4900F06E
:10F86000FBFD0130012814D94FF4EB613E20FDF778
:10F8700081FA012B0AD12931C160074900F0F2FD5C
:10F880000130012805D940F26271EFE740F266715C
:10F89000ECE708BD6C0000200887020008B50C4B9F
:10F8A0009B78012B09D100F0E3FD013001280ED92E
:10F8B00040F6D8013E20FDF75DFA022B07D100F09B
:10F8C000DDFD0130012802D940F6DE01F2E708BD76
:10F8D000780F00200A4B40F409000A4A1B8D40F0C3
:10F8E0004000B3F5166F36BFA3F63813A3F51663C1
:10F8F00043F48073C2F80837C2F84005704700BF70
:10F90000780F002000A0085010B50C46FFF73EFF0E
:10F910002046FFF7DFFF0C4B5A78012A03D121461E
:10F92000D878FFF77BFF094BD3F8002442F0100290
:10F93000C3F8002440F20312C3F8442E40F25B6285
:10F94000C3F8482E10BD00BF780F002000A008505B
:10F950002DE9F0410D46164607463F4C00284BD195
:10F9600094F826801046FFF711FF40464146FFF706
:10F97000B1FF3046FFF752FF384940F20313384ACF
:10F98000C1F8443E40F25B63C1F8483E0123207851
:10F99000A370984220D102EB4602938A4FF47A7208
:10F9A00003F5FA73B3FBF2F3ED1A216B2D4B0D4403
:10F9B0002D4AC3F84055C3F8C0212378ABBB94F857
:10F9C0004A3043F0020384F84A30FFF7F7FE04465A
:10F9D00090BB4FF4D16125E002EB8602D3694FF46E
:10F9E0007A7203F5FA73B3FBF2F3ED1A0028DCD157
:10F9F0001D4BC1F80031D8E7012811D194F8261029
:10FA00001046FFF781FF0223A3702378012BCCD08F
:10FA1000293D002BC9D1114B134AC3F80421C4E777
:10FA200040F609013E20FDF7A5F9012BCDD194F850
:10FA30004A3043F00403C6E70A4B0122DA64D3F8E4
:10FA40004C359D4206D929463846FFF701FF20462E
:10FA5000BDE8F0810024FAE7780F002000A00850EC
:10FA600008870200005008500B00008008B5602293
:10FA70000021034805F046FCBDE80840FFF752BEF0
:10FA8000780F0020034B184490F8280000F516600A
:10FA9000704700BF08870200094AD2E90C3092F88B
:10FAA0003C10C01A074B03EB81031A6DDB6D801A03
:10FAB0004FF47A7203F2F313B3FBF2F3C01A7047F8
:10FAC000780F0020088702000F4A08B592F83C1012
:10FAD000012906D0022914D040F2A6213E20FDF7CC
:10FAE00049F940F61C40D2E90C239B1A074A02EB65
:10FAF0008102126D9B1A4FF47A72B0FBF2F0184437
:10FB000008BD4FF4AF60EEE7780F002008870200D1
:10FB1000FF2808B504D940F2C2213E20FDF72AF99A
:10FB2000124B0129A3F8480004D0022919D040F251
:10FB30000731F2E7002343F4801340F000700C4AD1
:10FB400043F4847340F44030C2F8203EC2F8280EDB
:10FB5000D2F8203503F0F703032B05D140F21D3115
:10FB6000DBE74FF08073E6E708BD00BF780F0020A9
:10FB700000A00850F8B5234E4FF48067C6F8907087
:10FB8000BFF34F8FBFF36F8F1F4C01231F4DC4F87E
:10FB9000A430C4F8403E85F824300323C4F800356F
:10FBA0004FF40023C4F80034194B187C00F07EFC9D
:10FBB00002F0B6FE174B184AC4F83833174BC3F897
:10FBC000C820013AC3F8C42040F6FE72144BC4F8B2
:10FBD0001433144BC3F804250023AB87AB6385F8BB
:10FBE0004A3005F080FA4FF480732863C6F89071AC
:10FBF000C4F888342B6E376103B19847BDE8F840EC
:10FC000000F01EBC00E100E000A00850780F0020CA
:10FC10006C000020030000800600008000500850A7
:10FC20000100008000200850014B83F82500704738
:10FC3000780F0020020E034B0002C3F8342EC3F8E5
:10FC40002C0E704700A00850054A064B82F826008B
:10FC5000184490F8283003F516631385704700BFE9
:10FC6000780F00200887020010B504460068FFF7EF
:10FC7000E1FF094B6268C3F84C2E207AFFF7E4FFDE
:10FC8000617A6089FFF744FF607AFFF77FFD227B8E
:10FC9000024B83F8252010BD00A00850780F0020EB
:10FCA0002DE9F0412B4E05460F4696F84A30DA070B
:10FCB00004D440F29D713E20FDF75CF8264C43F0E1
:10FCC0000203D4F8002442F00102C4F8002486F8AC
:10FCD0004A3078BB96F826800846FFF757FD404625
:10FCE0004146FFF7F7FD3846FFF798FD40F2031352
:10FCF0001A4AC4F8443E40F25B63C4F8483E01230C
:10FD0000B370D3642360154B2846D3F84C45214685
:10FD1000FFF79EFD306B241ACDB9114901EB87071F
:10FD20004FF47A71F86900F5FA70B0FBF1F02044F5
:10FD3000BDE8F0810128E6D196F826103846FFF795
:10FD4000E3FD0223B370054BDD646560DBE704F17E
:10FD50002900EDE7780F002000A00850005008505F
:10FD60000887020008B5FFF7F3FD58B9064B0122DA
:10FD7000C3F8400503F5A04302201A61BDE808401E
:10FD8000FEF770BD08BD00BF0050085013B5264BEC
:10FD90004FF48061254A4FF0FF30D3F88844C3F810
:10FDA0009004C2F890114FF40022214904F48074A9
:10FDB000C3F80024002281F84A201E49C1F84025DA
:10FDC000C3F80821C3F80021C3F80421D3F8201593
:10FDD000C9B2D1B18DF80700C3F8202201221A61FF
:10FDE0009DF8072012B1D3F820223AB19DF80730D0
:10FDF0005BB940F6C7013E20FCF7BCFF9DF8072029
:10FE0000013AD2B28DF80720EAE7FFF747FD06492D
:10FE10000023C1F82032FFF785FC1CB14FF480733A
:10FE2000C1F8883402B010BD00A0085000E100E025
:10FE3000780F00200050085070B50024234D244E48
:10FE4000C5F84845C5F84445C5F84045C5F84C4592
:10FE5000FFF79CFF00F0FAFAC5F8C441C6F8084164
:10FE6000C6F80041C6F80441C5F8C840C5F8C4400A
:10FE700002F06EFD174B40F6FE72C6F83843C6F826
:10FE80001443C5F8C041C3F808254FF48062124BF3
:10FE90001C77C3E90D44114BC5F84845C5F84445E6
:10FEA000C5F84045C5F84C45C5F84841C5F844413A
:10FEB000C5F84041C5F84C41C3F89020BFF34F8FBF
:10FEC000BFF36F8FC3F8902170BD00BF0050085082
:10FED00000A0085000200850780F002000E100E04A
:10FEE000014BC3F84C0E704700A008500FC810B566
:10FEF000014C84E80F0010BDDC0F002008B50A4B50
:10FF0000C3F8D00E094B93F84A20586442F001021E
:10FF100083F84A20FFF752FC20B940F648113E20F2
:10FF2000FCF728FF08BD00BF00A00850780F002094
:10FF300010B50F4C0346022294F83D0022770128A9
:10FF400094F83C1094F824204FF096000CD100F067
:10FF5000EDF9084A00232062C2F84431A36B216AFC
:10FF60000B44C2F8443510BD00F0FAF9F1E700BFC8
:10FF7000780F002000500850044BC3F8940ED3F8BB
:10FF8000002442F04002C3F80024704700A008504B
:10FF9000054BD3F8002422F04002C3F800240022CD
:10FFA000C3F8942E704700BF00A0085008B50D4B51
:10FFB0000A46D9700021197088B9012159709978C1
:10FFC00002290ED193F826101046FFF727FC064AA7
:10FFD000D2F8003443F01003C2F8003401E00222EA
:10FFE0005A7008BD780F002000A008502DE9F84392
:10FFF000834C0123834DB4F84870EB64D5F84C254D
:020000040001F9
:10000000236BA2EB030805F001F8C4F85880C4E99B
:100010001401FFF743FC7C4A0023C2F80831C2F800
:100020000031C2F80431D2F8001421F01D01C2F8E9
:10003000001484F84A30237F23B1D5F84431003BC3
:1000400018BF0123A178012934D1D2F81832002B2E
:100050000CBF0025082515F00B0F6B4B04D1D3F80E
:1000600020220AB145F010050022C3F80022C3F88F
:100070001822C3F82022C3F80C22C3F8142205F07A
:100080001803102B03D1012908BF45F020055D4B53
:100090000229D3F84825A263D3F8443584F83D10EB
:1000A000636394F824301BD1D3B940F246213E203B
:1000B000FCF760FE022911D1534AD2F81802D2F897
:1000C0000C2E00280CBF00250225D00758BF45F094
:1000D0000405002BBFD045F00105BCE70025BAE7B9
:1000E000607884F83C3038B9FFF71CFB2077E907CB
:1000F0004BD5636E984757E015F0110F22D1B0F140
:1001000001092379267818BF4FF00109012B1DD072
:10011000022B2ED093BB96214846FFF70BFB0146DE
:10012000FFF700FB012E08D108F13B08884528D8CD
:10013000344B00222670C3F84021E2784846FFF78E
:1001400011FE01E0FFF722FE0020D0E72F48FFF765
:100150008BFD94F83D3013B940F29471A7E7012B61
:1001600004D1FFF7B1FCA1690144D9E7FFF794FC82
:10017000F9E72648FFF778FDA169D1E740F6DE21CF
:1001800095E7214B30461E61B1E7AA071FD5636C86
:1001900001465B78BB42A36E88BF45F0040585F03D
:1001A0000405C5F380009847A378022B0DD1237F67
:1001B0005BB1022B134A17D1A36B216A0B44C2F81F
:1001C0004435104B124AC3F8C421BDE8F88315F03A
:1001D000280F05D085F02001E36EC1F34011E2E75E
:1001E000EB06E1D5236F85E7012B02D040F60741EE
:1001F0005DE7236AA16B8B42E1D840F6084156E7E0
:10020000780F00200050085000A00850800F0020F8
:1002100009000080024B03EB8000006D704700BFB7
:1002200008870200014B53F82000704764870200E2
:100230002E3008B5362852D8DFE800F04E51515123
:1002400051514B51515151515151515151514951AC
:1002500051515151475147514551435141513F51DE
:100260003D3B392D373533312F2D2B2927252321A0
:10027000571C550039231E4AC2F8103708BD2D23DC
:10028000F9E72823F7E72323F5E71F23F3E71B23E9
:10029000F1E71823EFE71523EDE71323EBE711232D
:1002A000E9E70F23E7E70D23E5E70B23E3E709235E
:1002B000E1E70823DFE70723DDE70623DBE7052384
:1002C000D9E70423D7E70323D5E70223D3E70123A4
:1002D000D1E74FF49873CEE74FF48873CBE7C12191
:1002E0003F20FCF747FD3F23C5E73323C3E700BFAB
:1002F00000A00850054B4FF47A72023833F81130E1
:1003000003F2E733B3FBF2F3184470477C87020033
:10031000054B4FF47A7233F8113003F57A73B3FB5F
:10032000F2F31844704700BF7C87020038B51D46C1
:100330000A4B33F8111003EB820305359C684FF428
:100340007A73214401F6B73103FB00141046B4FB65
:10035000F3F42C44FFF75EFF204438BD7C87020095
:1003600070B5064608461546FFF75CFF094A02EBE2
:10037000850291684FF47A7201F6B73102FB0613D9
:10038000181AB0FBF2F42846FFF744FF053020446A
:1003900070BD00BF7C8702002DE9F04F264C87B06E
:1003A000074698460D46164600F0A0F82378814689
:1003B000BB4211D16378AB420ED194F90230B34203
:1003C0000AD1E378834207D1A388A8F8003094F9D2
:1003D000060007B0BDE8F08F7B1EDBB2032B0DD803
:1003E000164A294612F803A00DF11703324650466B
:1003F00000F082F838B13E21A92002E040F2C64167
:100400000620FCF7B7FC039028469DF917B0FFF7CC
:1004100039FB039A0346414658460092524600F083
:1004200039F8B8F80030A071A38027706570A67005
:1004300084F80390CBE700BF800000209087020083
:10044000014B1B685B681847AC000020014B1B6820
:100450009B681847AC000020014B1B681B691847BC
:10046000AC000020014B1B685B691847AC00002002
:10047000014B1B689B691847AC000020014B1B68AF
:10048000DB691847AC000020014B1B689B6A1847CA
:10049000AC00002030B4044C9DF80850246802954C
:1004A000E468A44630BC6047AC00002000220E493E
:1004B00038B50446134644FA02F0D5B20132C007FB
:1004C00042BF581CCD54C3B2042AF4D1C3F1040274
:1004D000042B054D4FF0FF01D2B288BF0022E8186F
:1004E00004F010FF2C7138BDE4140020014B187D7E
:1004F000704700BFF00F0020042810B511D883B159
:1005000004280CBF10242824A1420AD2064C54F817
:10051000200018B141568A42A8BF0A4600201A702E
:1005200010BD6FF01500FBE7F00F00200728034611
:1005300011DC10F12D0F10DB2E30094A40B2105C97
:1005400002EBC00292F93C209A4207D0002918BF62
:100550000130C0B270471B2070470020704700BFB9
:1005600094870200072808B507DCFFF7DFFF044B7C
:1005700003EBC00090F93C0008BD0820FCE700BF79
:100580009487020038B510F0FF04094D05D0012C06
:1005900007D05121B52001F087FF0123AB602B600C
:1005A00038BD02F06BF90028F3D06C62F8E700BFA9
:1005B00000E0105038B510F0FF04194D05D0012CA3
:1005C0001FD08421B52001F06FFF01236B60EB6029
:1005D000144BC5F800411C70114CD4F80834DA07EC
:1005E0000ED402F04BF9A8B1D4F86834DB0711D46B
:1005F0000B4B0022C3F81021C3F81821C3F81421B3
:1006000038BD02F03BF90028DBD00023AC62C5F80E
:100610001C31E1E702F032F90028E9D0F0E700BF31
:1006200000E0105005100020014B01221A707047A5
:100630000510002010B50E4C28B101280DD0D02196
:10064000B52001F031FFD4F8103123B9094B1878E7
:1006500000F0010010BD0120FAE702F00FF90028B8
:10066000EDD0D4F81C01003818BF0120F2E700BF1C
:1006700000E0105005100020024BD3F8080400F0F1
:100680000100704700E01050024BD3F8480400F01E
:100690000100704700E01050024BD3F84004C0B294
:1006A000704700BF00E01050084AD2F84C34D2F82E
:1006B0004C2413F4803306D002F00303C0B21B1A9B
:1006C0005842584170471846704700BF00E010502C
:1006D00038B51A4BD3F80C34DA0304D440F267115E
:1006E0006D2001F0E1FE164A0124164B106A536694
:1006F00020F03F0094645464136CDB03FCD4136A51
:10070000116C03F03F03C1F30A01C1F5806181EA76
:10071000E1750B29A5EBE17509DD3F2B04D0013311
:1007200003431362172DE6DC0023936438BD0B31BD
:10073000F8DA002BF8D0013BF2E700BF00E01050E0
:10074000000812500100008038B50B4C23781BB113
:1007500000232370FFF7BCFFEFF3108572B66378B8
:1007600003F0FF000BB9FFF725FF05B962B6034B95
:1007700000225A6638BD00BF081000200008125041
:10078000002809DB4309012200F01F00603302FA50
:1007900000F0024A42F82300704700BF00E100E089
:1007A00070B5174D012204460E462B18DA7004F07E
:1007B000C9F9A0B934B1012C0FD04FF488716D2064
:1007C00001F072FE11232A19012105EB84045171F5
:1007D0000C4AA660C2F8043370BD8023F3E7002EF4
:1007E000FAD034B90220B047002305EB8404A3609B
:1007F000F2E7012C01D12046F5E740F22B11DEE7AC
:100800000810002000E01050044B0022191803EBE0
:1008100080034A719A60CA70704700BF08100020B8
:10082000014B1882704700BF08100020014B988AC6
:10083000704700BF08100020014B188A704700BFA6
:1008400008100020034610B5EFF3108472B6074A73
:1008500013445A780132D2B25A705B78012B01D11D
:10086000FFF790FE04B962B610BD00BF081000206B
:10087000034610B5EFF3108472B611490B445A7851
:1008800022B940F249216D2001F00EFE5A78013A5A
:10089000D2B25A705B7883B98B7D43B1094BD3F8E0
:1008A0000C34DB0306D44B7803F0FF002BB9FFF7C1
:1008B00081FE02E0C87D01F091FF04B962B610BD6F
:1008C0000810002000E0105010B504F03EF90C4C68
:1008D00004F038F960B1237E3BB90A4B01229A61DA
:1008E000042363760023A37610BD04F031F9F9E701
:1008F000032301226376034BC3F80423F2E700BF0E
:100900000810002000E01050014B01221A627047CD
:1009100000E01050044BD87E28B1044BD3F81001EE
:10092000B0FA80F0400970470810002000E0105035
:1009300038B50B4BDD7E3DB1FFF7ECFF78B140F2EF
:1009400085216D2001F0B0FD0124DC7604F0FDF876
:10095000044B1022C3F81051C3F80423DC6138BDE6
:100960000810002000E01050024B587E003818BFDD
:10097000012070470810002038B5174CA37D23B91B
:100980004FF43E716D2001F08FFD01232370237E13
:10099000C3B9237FB3B1A27E013B9A4212DA04F0BD
:1009A000D1F8054601F0B0FE237F012B82BFA37E64
:1009B0000133A37655B1236AC31A0133022B09D937
:1009C00035B12062BDE83840FFF77EBF636AF3E7C8
:1009D0006062F7E738BD00BF0810002037B5184C3B
:1009E000237E63B9A06A00F00300FFF75DFE30B11B
:1009F000EFF3108372B6627E1AB103B962B603B028
:100A000030BD0122627603B962B608230D4DC5F8E8
:100A100008334FF42073ADF80630BDF806309BB2B2
:100A20005A1E92B2ADF80620002BF6D1C5F80C3153
:100A300084F82C30FFF748FF0823C5F80433DEE7BD
:100A40000810002000E010502DE9F74F534CA37D13
:100A5000002B00F0A0800023514E8DF805300323B9
:100A60008DF80430D6F80051003D18BF012501F083
:100A700005FF38B1D6F81C3123B1012345F08005BC
:100A80008DF80530D6F80891D6F8143113B9D6F898
:100A9000183153B10023424AC2F81431C2F8183158
:100AA000C2F81031E37601F0ADFC3D4BD3F81031C4
:100AB0007BB1E37E1BB104F04BF80023E37663794E
:100AC00045F01005002B64D19DF804308DF80430FA
:100AD00000E0DDB1334E0027314B0DF1040BA6F1E0
:100AE0000308BA46C3F8085317F80B00032809D0C7
:100AF00098F8003033B1336888F800A013B19847F4
:100B0000C6F800A0043608F101084FB3B9F1000F90
:100B100008D0234B0022C3F808210422C3F808237D
:100B2000FFF75CFF94F82C60EA071D4BF6B2D3F890
:100B30000C7108D5627E032A05D1227E92B9042267
:100B4000627601229A61B7B1154B0022C3F80C21DD
:100B5000637E042B0BD040F25B316D2001F0A4FCCE
:100B60000127C1E703F0F4FF02236376EBE70223DA
:100B7000637603F0EDFF76B1002384F82C30637EBA
:100B8000022B01D1FFF7A0FE03B0BDE8F04F03F048
:100B9000DFBF02239AE703B0BDE8F08F0810002002
:100BA00000E010501010002010B5054CA06A00F0B5
:100BB0000300FFF779FD0028F8D0002010BD00BF2A
:100BC000081000202DE9F041054650B10278022AB4
:100BD00007D843784AB9013B1F2B02D88378212BD1
:100BE00008D96FF01500BDE8F081002BF9D18378AA
:100BF000002BF6D1794E326813B2002B0DDB0121A8
:100C00005B0902F01F02203301FA02F2744941F835
:100C10002320BFF34F8FBFF36F8FB6F90000FFF7AC
:100C2000AFFD704C4FF0FF33C4F8083301F026FEDF
:100C3000002308B1C4F81C31C4F80031C4F80831ED
:100C4000C4F80C31684C6370A370AB88A382FFF7C3
:100C500013FD10B10123E3706370624F40F256330D
:100C6000D7F80C04238210F480302AD0FFF7DCFC84
:100C70005E4801F087FD5B4F6023E0750022C7F8F6
:100C800004332B78A978012BE276A26223762177B0
:100C9000A2762ED0022B25D06BBBFFF7F5FC0028E7
:100CA00056D0FFF7F9FCA36A03F0030398424FD133
:100CB000AB792BBBFFF778FF002825DA4FF4A3614F
:100CC0001BE0C7F81001FFF75DFCD7F81031002BCF
:100CD000FBD0FFF7FDFC0020FFF76CFC444B00222B
:100CE0005A66C5E703F031FFD7F80C34D903FBD5BA
:100CF0000223A362D1E740F20A516D2001F0D4FB38
:100D0000384B0422C3F80423237F63B12B7853B9F3
:100D100003F018FF054601F0F7FC6FF00043002DCB
:100D200059D0C4E9080300210125B6F90000617615
:100D3000A575FFF725FD326813B28B4206DB02F082
:100D40001F025B099540264A42F8235008464AE7AD
:100D5000244B012200215A61C3F8081194F828108D
:100D6000C3F840141A610422C3F80423AA79002AA4
:100D7000CAD1D3F80423520702D440F2BD41BCE7E4
:100D80001C4A1769116907F0100741F01001116141
:100D9000D3F808310BB904F00DFADFF8488001E010
:100DA00004F006FAD8F80831002BF9D0FFF7FCFE62
:100DB000002802DA40F2D7419FE727B90D4A1369AC
:100DC00023F010031361074B0422C3F80823002209
:100DD000C3F8082198E7C4E90830A4E79414002078
:100DE00000E100E000E01050081000204907010079
:100DF0000008125000ED00E02DE9F041114E0546CB
:100E00000F4634791CB18A216F2001F04DFB03F0AD
:100E1000A6FE88B12E4496F80580B8F1000F0ED1D9
:100E2000012328467371FFF70DFD28463946FFF769
:100E3000B7FC4046BDE8F0816FF01500FAE72046A8
:100E4000F8E700BF3810002070B50D4D04462E792C
:100E50001EB1A1216F2001F027FB03F080FE58B1E5
:100E60002544687938B12046FFF7CEFC20466E71E4
:100E7000FFF7FEFC304670BD6FF01500FBE700BFCA
:100E80003810002008B501B3F0B14FF0FF331A4617
:100E9000E0FB01320E498A4203D9E2216F2001F0C2
:100EA00003FB180D4FF22441C3F30F1340EA023045
:100EB000B0FBF1F203EB0040064B03FB1200B0FB6A
:100EC000F1F040EA0240013008BD0846FCE700BFEF
:100ED0003F420F00000024F4014B9B68184700BFFD
:100EE00038100020014BDB68184700BF3810002085
:100EF000014B1B69184700BF3810002008B5064B8E
:100F00001B7923B14FF49F716F2001F0CDFABDE83A
:100F10000840FFF731BD00BF38100020034B1A799D
:100F20000AB9FFF783BC988D704700BF38100020C6
:100F3000034B1A790AB9FFF77FBC988A704700BF44
:100F400038100020024B1B790BB9FFF747BD7047E3
:100F500038100020014B9B69184700BF3810002053
:100F600038B51D4C237933B3FFF7C2FF50B91B4D81
:100F7000C5F81001FFF7B0FFD5F81031002BFBD0FA
:100F8000FFF7B0FF154B6022C3F80423636A98474C
:100F9000002806DB94F82E3023B10123002084F8CA
:100FA000303038BDFFF7D6FF0028F6DA4FF4D171A4
:100FB0006F2001F079FA0A4BA3610A4BE3610A4BF7
:100FC00023620A4BA3600A4BE3600A4B2361FFF7DD
:100FD000F9FD0028E1D0E4E73810002000E01050CF
:100FE000A90B01005D4B0100690901004B4B010099
:100FF000514B0100574B0100064B10B51C7924B131
:101000004FF4FB716F2001F04FFAFFF709FC204607
:1010100010BD00BF38100020034610B3007888B917
:101020001A79012A1ED85A79012A1BD89A680E49C2
:10103000643A8A4216D8D8680C4B98422CBF0020DC
:101040000120704701280CD11A79012A09D85A7950
:10105000012A06D8DA680449643A8A4201D89868B5
:10106000EAE70020704700BF3C8601000040420FC5
:1010700010B5054C236813B1984700232360BDE8E1
:10108000104000F04DBD00BF6C1000202DE9F8436A
:101090008846074680B300F037F84FF00009054650
:1010A0005FFA89F6AE420AD2304609F1010900F032
:1010B00031F890F82640002CF2D1FF2E03D16FF0CA
:1010C0000B00BDE8F883304600F024F805460146E1
:1010D000848480F8264080F828600A4800F008FEE2
:1010E000202885F827000AD001232F62204685F8A2
:1010F000263088F80060E4E76FF01500E1E76FF054
:101100002200DEE7C94C0100014B1879704700BF8F
:1011100070100020044B1A79824283BF1B68302272
:1011200002FB0030002070477010002010B510F056
:1011300003040AD1064A1171106028B130224A43D3
:10114000214604F0DFF8204610BD6FF00D00FBE7EC
:1011500070100020094A10B592F80033202B03D1FB
:101160003E21022001F0A0F918214B430321D018A1
:10117000D3584068BDE81040184700BF78100020E1
:101180000B2808B504D940F24371064801F082F9F2
:101190000001002300F1A04000F56220C0F82C35CA
:1011A00008BD00BFEFBE020038B50B4C4FF4E06342
:1011B00000250820C4F83833FFF7E2FF0920C4F8FF
:1011C0002051FFF7DDFF0A20C4F82451FFF7D8FFB4
:1011D000C4F8285138BD00BF00200E50084B202213
:1011E000C3F89020BFF34F8FBFF36F8FC3F89021E8
:1011F0000122044B5A604FF0FF32C3F808237047B6
:1012000000E100E000500850054BD3F85007D3F838
:10121000541711F0404FF8D1C1F31301704700BFCC
:1012200000200E5002282DE9F04717461E469DF873
:1012300020A004D94FF492716E2001F035F91B4BB8
:101240004FF00108DFF8709000251C5C08FA04F8E4
:101250002046C9F83883FFF793FF154BA2009D5035
:10126000FFF7D2FF874276EB01031DD3BAF1000FDF
:1012700001D0C9F834830B2C04D940F2DB410D486E
:1012800001F008F9B6F5801F02D340F2E141F6E71C
:101290002401012004F1A04404F56224C4F820755F
:1012A000C4F82465BDE8F0872846FBE7AC88020057
:1012B00000210E50EFBE020000200E50022813B590
:1012C00004D940F2AB116E2001F0EEF848B908499C
:1012D0004FF00044C1F8A04120240649C1F89041D4
:1012E0000C6101210091FFF79DFF02B010BD00BF0E
:1012F00000200E5000E100E0022810B504D94FF4A0
:10130000DC716E2001F0D0F8084A08B9C2F8A001DB
:10131000074B1C5C0123A3402046A400C2F83833CD
:10132000FFF72EFF034B00221A5110BD00200E5074
:10133000AC88020000210E5008B5FFF735FF024BC4
:101340000022C3F8A02108BD00200E5008B5FFF709
:1013500045FF114BD3F8042522F00302C3F80425FE
:10136000D3F8082542F00302C3F80825202292FA98
:10137000A2F2B2FA82F2092A04DD4FF4737107482F
:1013800001F088F8C3F810250122DA604FF000421E
:10139000C3F8802008BD00BF00500850EFBE020017
:1013A00070B5194C2026194AD4F81035184D03F0A1
:1013B00001031370D4F8103543F00103C4F810355D
:1013C000FFF7C4FFC5F89C60BFF34F8FBFF36F8F6B
:1013D000FFF7EAFE0023C5F89C610E4AC4F8A0316D
:1013E0004FF00043C2F88030A2F58022C2F880316D
:1013F000012302F57832C2F80435A2F58022C2F842
:101400000435EE6170BD00BF00200E50B113002006
:1014100000E100E000400C500C4B10B41A5C0123BA
:101420000B4C9340D4F834130B420CD09100094A72
:101430000A44116839B100211160C4F838335DF8ED
:10144000044B00F059BE5DF8044B7047AC880200B5
:1014500000200E5000210E50034BD3F8043313B17B
:10146000072000F049BE7047005008500028ADBF6B
:1014700000F1604000F00F00044B00F56140B4BF84
:10148000185C90F800034009704700BF14ED00E0BD
:101490001822034B50431A181B585068184700BFB6
:1014A00078100020031F022B0B4B03F8110000D90A
:1014B000704793F8420083F84210C2B220284FF0E0
:1014C000200016BF03EB420283F84110517003EB7A
:1014D00041025070704700BFB8130020F8B50D46A8
:1014E00004780AB12021117020261B499C4208D0A3
:1014F000202C01D10020F8BD01EB440726467C7862
:10150000F4E7202CF6D0144B077803EB4401A742F4
:1015100049781AD10170114F7DB127B1002140F2F5
:101520009A30AFF300802B78A34206D127B1002177
:1015300040F29D30AFF300802E7027B1002140F2C1
:10154000A230AFF300800120D5E703EB46035970CA
:10155000002AE0D01670DEE7B8130020000000007B
:1015600010B5074C94F8583023B10AF0F9FE002367
:1015700084F85830034BE26D1B68C3F8182510BD82
:10158000B81300209014002010B5074C94F8583080
:1015900023B90AF0DFFE012384F85830034B0122FF
:1015A0001B68C3F8182510BDB81300209014002044
:1015B00008B520B9024B0BB1AFF3008062B608BD8D
:1015C000000000002DE9F7431D4C4FF020081D4E90
:1015D00094F841501C4F202D02D103B0BDE8F08398
:1015E00014F81530013BDBB2052B04D816F8039034
:1015F000B9F1080F04D140F24B61012000F054FF13
:10160000EFF3108072B61FB10190AFF30080019824
:1016100004EB45035B7884F8413094F84230AB42E8
:1016200008BF84F84280FFF7C3FF012328464946DC
:1016300004F81530FFF72CFF94F84150CBE700BFBA
:10164000B8130020AF88020000000000202A70B507
:10165000054604D140F2F911012000F025FF2029B0
:10166000144B14BF03EB410193F8404003EB4200DD
:1016700018BF4C7840780CBF83F840004870204673
:101680000146064603F8105003EB40008A424078BA
:10169000F6D193F8425003EB410183F84260EAB27D
:1016A000202D16BF03EB420283F8414054702022E4
:1016B0004A7070BDB81300208A4238B505461346FB
:1016C000084C06D00520FFF7C1FF04EB450460700D
:1016D00038BD202A16BF04EB420394F84000587826
:1016E000F3E700BFB813002010B5094CD4E912236A
:1016F000B3F1FF3F08BFB2F1FF3F07D0FFF7F2FBA6
:101700004FF0FF324FF0FF33C4E9122310BD00BF8A
:10171000B813002010B5054C94F850302BB10220BE
:10172000FFF7EAFD002384F8503010BDB813002005
:1017300010B50F4CFFF73CFF24B1002140F2C94027
:10174000AFF300800B4B93F84130202B09D024B12C
:10175000002140F2D140AFF30080074B187801F030
:101760003DF824B1002140F2D640AFF3008010BD17
:1017700000000000B8130020B013002010B5084C82
:10178000D4E91223B3F1FF3F08BFB2F1FF3F05D107
:10179000FFF7A2FBFFF738FDC4E9120110BD00BF3F
:1017A000B81300202DE9F04F4FF0180EDFF858C1A4
:1017B00006460F460EFB03FE8FB00CEB0E0208AC84
:1017C00008320FCA86420D4684E80F0077EB01030A
:1017D000044605D34FF0000948460FB0BDE8F08F2E
:1017E000F444861B9CF814A061EB0707FFF7A0FBED
:1017F00000F11C0BBAF1010F00901BD04049D1E958
:101800001232A34272EB050028D2B4EB030865EB59
:101810000209FFF76DFB3A490246D1E91201B1F125
:10182000FF3F08BFB0F1FF3F67D00192FFF780FB99
:10183000019ABAB122462B460020FFF73FFD8146B0
:101840000028C7D0BAF1010F15D05E4577F100032B
:1018500011D2FFF793FFFFF75DFF29E04FF000087B
:10186000C146D6E7804579F10003E3D25E4577F1C2
:101870000003AFD3DEE7FFF737FFBAF1010FEAD07D
:101880005E4577F10003E6D3009B0220E21A65F182
:101890000003FFF713FD20B94FF41571012000F08C
:1018A00003FE174B93F8502012B9012283F8502001
:1018B000B4F119024FF0010065F10003FFF7FEFCDF
:1018C000C0B1FFF74DFE00234FF0FF304FF0FF3166
:1018D00002AD8DF82CA08DF830300A4C0293CDE982
:1018E00004010FCD0FC40FCD0FC495E80F0084E89D
:1018F0000F0071E7FFF748FEE5E7002A9AD1B5E748
:10190000B8130020801300207810002038B5104B49
:101910001B78202B0CD00F4BD3E90645186A6A348C
:1019200045F10005241845F100052046294638BD3B
:1019300010F14104137B41F10005012BF5D0FFF7B5
:10194000D7FA0028F1D1FFF7F3FA0419EBE700BF4B
:1019500078130020801300202DE9F04705460C463F
:1019600017464FF01809DFF83880DFF838A0202C30
:1019700008D009FB04F6284606F10801414403F0AB
:1019800053FB10B10120BDE8F08746443C706B7BEF
:10199000727D9A42F7D90AEB44046478E7E700BF06
:1019A00078100020B81300202DE9F0472023DFF83D
:1019B000488006460D4617464FF01809DFF83CA050
:1019C00098F840400B70202C08D12B783A462146DD
:1019D00030463B70BDE8F047FFF7BEBF09FB04A0EF
:1019E0003146083003F020FB0028EED02C7008EBC5
:1019F00044046478E7E700BFB813002078100020A3
:101A00002DE9F74F87180E4643F10008D1E900236E
:101A1000974278EB030337D3DFF874900DF1070298
:101A20000DF106013046FFF7BFFF70BB9DF80710B0
:101A30004FF0180A337B0AFB0191D1E902B508691E
:101A40001BF1290445F10005041945F10005012B9E
:101A500013D00B7D012B10D1FFF76AFAA4EB0B0218
:101A600082420ADA9DF807300AFB0393D3E9024564
:101A7000FFF75EFA041945F10005A74278EB05036C
:101A800002D3C6E90045C9E7002003B0BDE8F08FE6
:101A900078100020F8B51C4C002542F220031B4AA8
:101AA0004FF0FF304FF0FF31194F2E46A4F8403071
:101AB0002023156084F842303B7082F8285084F867
:101AC000523084F85050C2E90201C4E9120104F80E
:101AD00015600135202DFAD10E4884F8586084F83D
:101AE000546000F04FFE0C4B3D7018700B4B84F8A7
:101AF00058601B68D3F81835E365FFF751FC0123E4
:101B000084F85330F8BD00BFB813002080130020C4
:101B100078130020C5150100B01300209014002098
:101B20002DE9F843FFF770FB05460E46FFF70EFC64
:101B3000FFF702FC67484FF0FF334FF0FF32664C6F
:101B4000C0E9022390F82830F3B9026A40F2F9673D
:101B5000D0E906311B3341F100019B1802F5DF6229
:101B600041F10001B2FBF7F29B1841F100019D42E7
:101B700076EB010308D307212078FFF789FC40F2B8
:101B8000BD21012000F090FC2778202F02D140F2E7
:101B9000C721F6E720232370504C94F8409084F836
:101BA00052300023B9F1200F03601ED0DFF83481DA
:101BB000182202FB0982937D012B16D1137D012B84
:101BC0006FD0FFF795F900286BD1FFF7B1F94519F0
:101BD0004FF0180346F1000603FB0983D3E9020125
:101BE000A842B14128BFC3E9025694F8543023B14A
:101BF000002384F8543002F0BDFFDFF8E880384E4F
:101C000094F84050202D12D0FFF7FEFA20224FF01A
:101C1000180E0EFB0583D3E902C3604571EB030385
:101C200041D2202A03D020210420FFF70FFD0EB15E
:101C3000AFF30080FFF7E8FA94F84050202D3AD136
:101C4000FFF752FDFFF766FDFFF776FB84F8525071
:101C5000FFF786FC14F81730022B0BD1214B18220A
:101C6000394602FB07331B7D022B0CBF01200620E7
:101C7000FFF718FCFF2384F8433094F84130202B01
:101C800003D0194B187800F0A9FD184994F860307A
:101C9000D1F8482722F001021343C1F84837BDE8C4
:101CA000F883293594E704EB45032A465B78202B1B
:101CB000B9D01D46ADE701222B46FFF773FD94F81E
:101CC000402020B920210420FFF7C0FC98E784F8C9
:101CD0005220BFE78013002078130020B8130020A3
:101CE0000000000078100020B013002000200E50EB
:101CF000F8B504460D46FFF72DF9002804DA40F246
:101D00005331012000F0D0FB00230A4911F81320C1
:101D1000D8B24AB91822084E5A43B718B450012213
:101D20007D6001F81320F8BD0133202BEED1184659
:101D3000F9E700BFB8130020781000201F2809D849
:101D40000549002311F81020012A03D101F81030B1
:101D50001046704700207047B8130020014BD3E9AC
:101D600006017047801300202DE9F043037885B009
:101D700004461BB1002005B0BDE8F083284B58682D
:101D8000C0F30800002843D1264D4FF0000925B1CB
:101D9000002140F22240AFF30080DFF88C8088F809
:101DA000439025B1002140F22640AFF30080FFF7B9
:101DB0002BFA6B46224607460E4603F054F925B12E
:101DC000002140F22D40AFF300806A46384631468C
:101DD000FFF79CFD009B3A468342019B8B413346B3
:101DE00038BFCDE9000169464FF0FF30FFF708FE2C
:101DF000DDE90023C4E9042325B1002140F23B4082
:101E0000AFF3008098F84330002BC0D10120B2E737
:101E10001038FFF72BFBC0B20028B5D1AAE700BFEE
:101E200000ED00E000000000B8130020714B2DE928
:101E3000F04F0446586889B08946C0F3080098B14D
:101E40001038FFF713FB10F0FF060ED16A4B1B781A
:101E5000202B04D140F2E641012000F025FB0E7852
:101E600056B140F2E941F7E7082699F80030012B16
:101E700002D940F2ED41EFE7DFF894A1BAF1000F8B
:101E800004D000214FF49E60AFF300804FF0010BAF
:101E90005A4DBAF1000F04D0002140F2F940AFF3DF
:101EA00000805846FFF784FB4FF0000385F843306D
:101EB000BAF1000F04D0002140F2FD40AFF30080E2
:101EC0000DF11008FFF7A0F94A46434603F0CBF89E
:101ED000BAF1000F04D0002140F20350AFF30080AC
:101EE000EFF31087BB4672B6454B0BB1AFF30080E2
:101EF00095F8433003F0FF02002BCAD115F81430D7
:101F00000192013B012B08D93846FFF751FB019A9A
:101F10009146484609B0BDE8F08F0DF10F020DF172
:101F20000E014046FFF740FD814648B92146042096
:101F3000FFF7B8FA38464FF00109FFF7F9FBE8E779
:101F4000304B4FF0180C9DF80EA00CFB043C98E8A9
:101F50000F000CF1080C8CE80F0086B3BAF1200FCB
:101F60002DD1254B1B78202B29D1274B0BB1AFF35B
:101F70000080FFF749F9049A10F11C0C41F10003AD
:101F80006245059A9A410AD395F85220202A0ED02C
:101F90001E4AD2E906E2E64572EB030307D2214668
:101FA0000420FFF77FFA3846FFF7C2FBB1E723466C
:101FB0000222FFF7F7FB0028F1D085F852409DF888
:101FC0000F2020469DF80E10FFF776FBBAF1200F88
:101FD00017BF9DF80E3085F8404005EB43035C7059
:101FE000032305F81430002EDDD1FF2385F843309C
:101FF000D9E700BF00ED00E078130020B8130020FF
:102000000000000078100020000000008013002075
:10201000000000002DE9F843314F044627B10021AC
:1020200040F26B50AFF30080EFF3108872B62D4B87
:102030000BB1AFF300802C4D15F81430032B06D0F4
:1020400000264046FFF7B4FA3046BDE8F88395F81D
:102050004030A34215D1254B1B78202B11D105EB25
:102060004403660093F80190B9F1200F14D1FFF7F3
:102070003BFBFFF74FFBFFF75FF985F85290FFF747
:102080006FFA002223461A481146FFF727FA064640
:10209000B8B940F2A5510DE0164B0BB1AFF300807B
:1020A0002E44FFF7B1F802227378FFF77BFB20B9CB
:1020B00040F29A51012000F0F7F9737885F8523018
:1020C000DFE70123404605F81430FFF771FA002FCF
:1020D000BAD0002140F2AB50AFF30080B4E700BFAC
:1020E0000000000000000000B8130020781300205A
:1020F000F81300200000000070B586B0072870D8E3
:10210000DFE800F00486716F6F6F6F8B4C4C4D4DA4
:10211000D4E91223B3F1FF3F08BFB2F1FF3F05D16D
:10212000FEF7DAFED5E90623C4E91223464E3378DA
:10213000202B24D1454BD3F8482702F0010284F824
:102140006020D3F8482742F00102C3F8482794F8EA
:102150004030202B04D140F26721012000F0A4F987
:1021600004EB4302527884F84020FF2284F8432095
:102170000222337004F81320002385F82830FEF77C
:10218000B7FE95F82430012B1ED0E8B902F0F4FC1C
:1021900050B994F861300133DBB2312B84F86130EF
:1021A0003DD940F2EF51D8E700211822684603F0EC
:1021B000A9F84FF47A73694630780193FFF736FE39
:1021C00030B940F22161C8E7002384F8613030E083
:1021D00095F82840012385F82830FFF7A1FC85F801
:1021E000284006B070BD164C94F850302BB1FFF764
:1021F000C5FA002384F85030F3E74FF0FF31114B5C
:102200004FF0FF30C3E9020105210F4B187812E0AF
:1022100006B0BDE87040FFF7B7B90421F5E70C4BF5
:10222000D3F80031002BBFD0012384F8543002F0E2
:102230009FFC0021307806B0BDE87040FFF728B958
:10224000B8130020801300207813002000200E50C7
:1022500000E01050134B10B51A78202A04D140F238
:10226000F961012000F020F90F49D1E90243B3F1EF
:10227000FF3F08BFB4F1FF3F02D040F2FA61F0E740
:1022800018240A4B04FB0233D3E90223BDE81040B3
:1022900082184FF0020043F10003C1E90223FFF767
:1022A0000DB800BF781300208013002078100020A4
:1022B0002DE9F74FDFF8ACA006469AF80030202B46
:1022C00004D140F23971012000F0EEF8182841D90C
:1022D000224D00234FF0FF392F6A3A1843EB0300D9
:1022E0009145834136D3DFF8808098F8544084B913
:1022F0004FF0200B2A6285F825100DF1070298F89F
:10230000401005F118008DF807B0FFF725FB10B954
:102310002F6202201FE00220FEF7EEFF4FF0FF3396
:102320004FF0FF329AF800005946C5E902239DF8A4
:102330000720FFF7C1F928683044286088F84390E7
:102340009DF80730202B03D0054B187800F046FA93
:10235000204600E0012003B0BDE8F08F801300208C
:10236000B013002078130020B8130020F8B5214ED8
:10237000044616F8103023B940F2AC71012000F089
:1023800093F81D4D25B1002140F2B370AFF30080EA
:10239000012716F81430012B16D1EFF3108672B610
:1023A000164B0BB1AFF30080154923460022481E9F
:1023B000FFF794F83046FFF7FBF825B1002140F213
:1023C000CC70AFF30080F8BD043B022B09D806F8AF
:1023D0001470002DDDD0002140F2C370AFF30080F7
:1023E000D7E725B1002140F2BF70AFF3008002F0C3
:1023F000DFFEEEE7B8130020000000000000000040
:10240000FA13002010B5EFF3108472B6094B0BB12C
:10241000AFF30080084B1B78202B08D0074B01221C
:1024200083F854202046BDE81040FFF7C1B802F001
:10243000A1FBF7E70000000078130020B81300208C
:10244000BFF34F8F0549064BCA6802F4E06213439D
